:020000040800F2
:1000000000A00020198B0008995D0008A55D00087C
:10001000C95D0008D15D0008D95D0008000000003E
:100020000000000000000000000000005D11010859
:10003000E15D000800000000E1120108ED5D00082C
:100040005D8B0008F95D00085D8B00085D8B000882
:100050005D8B00085D8B00085D5E0008695E00082E
:10006000815E00085D8B0008755E00085D8B0008EE
:100070005D8B00085D8B00085D8B00085D8B0008C0
:100080005D8B00085D8B00085D8B00085D8B0008B0
:100090005D8B00085D8B00085D8B00085D8B0008A0
:1000A000255E00085D8B00085D8B00085D8B0008F5
:1000B000055E0008155E00085D8B00085D8B00087A
:1000C0005D8B00085D8B00085D8B00085D8B000870
:1000D0005D8B00085D8B00085D8B00085D8B000860
:1000E0005D8B00085D8B00085D8B00085D8B000850
:1000F0005D8B00085D8B00085D8B00085D8B000840
:100100000000000000000000000000005D8B0008FF
:100110005D8B00085D8B00085D8B00085D8B00081F
:100120005D8B00085D8B00085D8B00085D8B00080F
:100130005D8B00085D8B00080000000000000000DF
:100140005D8B00085D8B00085D8B000800000000DF
:10015000000000000000000000000000000000009F
:1001600000000000000000005D8B0008355E000804
:10017000455E0008000000000000000000000000D4
:10018000000000005D8B000880B500AF0D4B0E4AEB
:100190001A600C4B00221A710A4B00225A71094B4B
:1001A00000225A61074B00229A61064B01221A6213
:1001B000044809F059FF0346002B01D000F09AF8DB
:1001C00080BD00BF605600200030024080B584B082
:1001D00000AF78603960054879683A6809F0A6FF91
:1001E000F860FB6818461037BD4680BD6056002099
:1001F00080B582B000AF0D4A0C4BDB6943F08053F1
:10020000D36101200021002209F0F2FE012009F053
:100210000BFFA0233B60064B7B603B4618460DF06E
:10022000E9F80DF045F90837BD4680BD00100240E1
:100230000200010080B485B000AF78600B467B807F
:100240000023FB6000237B810BE07B895B007A68E5
:1002500013441B881A46FB681344FB607B890133F7
:100260007B817A897B889A42EFD37B88FA68B2FBDC
:10027000F3F39BB218461437BD465DF8047B704714
:1002800080B500AF002005F001FE012005F0FEFD65
:10029000022005F0FBFD032005F0F8FD042005F029
:1002A000F5FD052005F0F2FD062005F0EFFD072025
:1002B00005F0ECFD00F002F880BD00BF80B500AF96
:1002C000002005F07DFE012005F07AFE022005F0F9
:1002D00077FE032005F074FE042005F071FE052072
:1002E00005F06EFE062005F06BFE072005F068FEA7
:1002F00080BD00BF80B500AF002005F047FE0120A3
:1003000005F044FE022005F041FE032005F03EFE0C
:10031000042005F03BFE052005F038FE062005F020
:1003200035FE072005F032FE02F0E8FEFEE700BFD2
:100330002DE9F04FE1B00EAF07F10C03186007F1A3
:100340000C031B681B68C7F8443107F10C031B68DA
:1003500004331B68C7F8403107F10C031B680833EE
:100360001B68C7F83C3107F10C031B680C331B6892
:10037000C7F8383107F10C031B6810331B68C7F846
:10038000343107F10C031B6814331B68C7F8303194
:1003900007F10C031B6818331B68C7F82C3107F1F1
:1003A0000C031B681C331B68C7F828312F4B1B68D4
:1003B000C7F824312E4B1B68C7F820312D4B1B6822
:1003C000C7F81C312C4B1B68C7F818312B4B1B6826
:1003D000C7F810312A4B1B68C7F81431294800F0C0
:1003E000CBFCD7F84431BB60D7F84031D7F83CB1EB
:1003F000D7F838A1D7F83491D7F83081D7F82CC185
:10040000D7F828E1D7F82461D7F82051D7F81C4154
:10041000D7F818217A60D7F81011D7F8142107F10E
:1004200010000093CDF804B0CDF808A0CDF80C90E2
:10043000CDF81080CDF814C0CDF818E007960895D7
:1004400009947C680A940B910C924FF480710E4AC7
:10045000BB6814F0D1FD07F11003184600F08CFCC6
:1004600007F5A677BD46BDE8F08F00BF28ED00E098
:100470002CED00E030ED00E03CED00E034ED00E07C
:1004800038ED00E05C7F0108747F010880B485B01E
:1004900000AFF860B9601346FB80FB68BA681A6069
:1004A000FB68FA889A80FB6800225A81FB68002268
:1004B000DA80FB6800221A811437BD465DF8047BA0
:1004C000704700BF80B586B000AFF860B9601346D2
:1004D000FB80F86800F014F903461A46FB88934243
:1004E00004D9F86800F01EF9002349E0FB689B88F6
:1004F0009AB2FB681B899BB2D31AFB82FA88FB8AEB
:100500009A420CD8FB681B68FA68128992B21A44A6
:10051000FB881046B9681A4613F0DAFE16E0FB684D
:100520001B68FA68128992B21A44FB8A1046B968AD
:100530001A4613F0CDFEFB681868FB8ABA68D1181A
:10054000FA88FB8AD31A1A4613F0C2FEFB681B898D
:100550009BB21A46FB881344FA68928892B293FBC6
:10056000F2F102FB01F29B1A9AB2FB681A81FB6856
:100570005B899AB2FB8813449AB2FB685A810123C3
:1005800018461837BD4680BD80B483B000AF786090
:1005900039607B685B899BB2002B01D1002322E08C
:1005A0007B681B687A68D28892B213441A783B68D9
:1005B0001A707B685B899BB2013B9AB27B685A8157
:1005C0007B68DB889BB201339AB27B68DA807B68F8
:1005D000DB889AB27B689B889BB29A4202D37B6885
:1005E0000022DA80012318460C37BD465DF8047BF3
:1005F000704700BF80B487B000AFF860B9601346A1
:10060000FB80FB685B899BB2FA889A4201D9002380
:1006100032E0FB689B889AB2FB68DB889BB2D31AF6
:10062000BB82FA88BB8A9A4202D8FB88FB8201E02F
:10063000BB8AFB82FB681B68FA68D28892B21A44B4
:10064000BB681A60FB68DB889BB21A46FB8A1344BE
:10065000FA68928892B293FBF2F102FB01F29B1AC4
:100660009AB2FB68DA80FB685B899AB2FB8AD31A7C
:100670009AB2FB685A81FB8A18461C37BD465DF862
:10068000047B704780B483B000AF78600B467B80FA
:100690007B685B899BB27A889A4207D17B6800228B
:1006A0005A817B68DB889AB27B681A817B681B89D8
:1006B0009BB27A889A4208D87B681B899AB27B8859
:1006C000D31A9AB27B681A810DE07B689B889BB233
:1006D0001A467B88D11A7B681B899AB28BB2134465
:1006E0009AB27B681A817B685B899AB27B88D31A3D
:1006F0009AB27B685A810C37BD465DF8047B70471F
:1007000080B483B000AF78607B689B889AB27B68C6
:100710005B899BB2D31A9BB218460C37BD465DF875
:10072000047B704780B485B000AF78600023FB8104
:1007300007E07B681A68FB89591CF9811344002281
:100740001A707B689B889BB2FA899A42F1D37B68C6
:100750000022DA807B6800221A817B6800225A819D
:100760001437BD465DF8047B704700BF80B584B088
:1007700000AF78600123FB73786824217022002386
:1007800000F070F80346FB73FB7B18461037BD463C
:1007900080BD00BF80B584B000AF78600123FB73DB
:1007A000786824217022002300F008F80346FB73C8
:1007B000FB7B18461037BD4680BD00BF80B586B0B4
:1007C00000AFF860084611461A4603467B810B4687
:1007D0007B721346FB807B7A6F2B09D97B7A802B47
:1007E00006D8FA887B8904331344B3F5006F01DD22
:1007F00000232EE0194800214FF4006213F073FD2E
:100800007B7A1648194600F00BF90346002B01D1FC
:1008100000231EE07B891248F9681A4613F058FD40
:100820007B890F481946FFF7D1FC03467B6107F12E
:1008300014030A481946042213F04AFD7B7A07483C
:10084000194600F081F80346002B01D1002300E097
:10085000012318461837BD4680BD00BF780200202E
:100860007C0200202DE9F04389B000AFF860084613
:1008700011461A4603467B810B467B721346FB806A
:100880006B461E467B89013BFB617A894FF0000372
:100890004FEAC30949EA52794FEAC2087A894FF010
:1008A0000003DD0045EA5275D4007B890733DB087D
:1008B000DB00ADEB030D6B460033BB617B7A6F2B26
:1008C00009D97B7A802B06D8FA887B8904331344B4
:1008D000B3F5006F01DD002330E07A7AFB88104623
:1008E000194600F0CFF87861BC69FB8804339BB2ED
:1008F0007A7A1046194600F01FF902467B89204695
:1009000011461A4600F0E4F80346002B01D10023FB
:1009100014E0BA697B8910461946FFF757FC386125
:100920003A697B699A4208D1BA697B89F8681146AD
:100930001A4613F0CDFC012300E00023B54618460B
:100940002437BD46BDE8F08390B587B000AF78602E
:100950000B46FB700023FB7509F0F8FD0346FB75A1
:10096000FB7803F58033DB02184609F06BFE2A4A58
:10097000294B1B6923F002031361FB7803F58033D5
:10098000DB023B610023FB6022E0FB689B007A688E
:1009900013441C68FB689BB2FA781046194600F0B5
:1009A00071F803469C420DD0FB689B007A681344A3
:1009B0001B681A464FF000030220396909F050FD08
:1009C0000346FB753B6904333B61FB680133FB6005
:1009D000FB68B3F5007F0AD2FB7D002B07D13B6992
:1009E000B3F1006F03D33B690C4A9342CDD9FB7D31
:1009F000002B03D009F0C6FD002309E009F0C2FD79
:100A00000346FB75FB7D002B01D0002300E0012392
:100A100018461C37BD4690BD00200240FFFF03086A
:100A200080B485B000AF78600B46FB700023FB609C
:100A3000FB7803F58033DB02BB60BB68B3F1006F6A
:100A400003D3BB680E4A934201D9002311E00BE0A7
:100A50007A68FB681344BA6812781A70BB6801336D
:100A6000BB60FB680133FB60FB68B3F5006FEFD33D
:100A7000012318461437BD465DF8047B704700BF5C
:100A8000FFFF030880B485B000AF03460A46FB7140
:100A90001346BB80FB7903F580335A02BB881344AD
:100AA0009B00FB60FB68B3F1006F03D3FB68074A50
:100AB000934202D94FF0FF3301E0FB681B681846F0
:100AC0001437BD465DF8047B704700BFFFFF030885
:100AD00080B487B000AFF860B9607A6000237B61B2
:100AE000BB683B610BE0FA687B6913443A69127892
:100AF0001A703B6901333B617B6901337B617A6921
:100B00007B689A4207D23B69B3F1006F03D33B691C
:100B1000084A9342E7D97B685A1E7B699A4201D9F9
:100B2000002300E0012318461C37BD465DF8047B16
:100B3000704700BFFFFF030880B483B000AF0346D7
:100B40000A46FB711346BB80FB7903F58033DA025A
:100B5000BB88134418460C37BD465DF8047B7047CC
:100B600080B592B000AF7860396007F1080318468D
:100B70000021402213F0B7FB184807F0ADFB07F146
:100B8000080318461649402214F0C2FA07F1080378
:100B9000184614F087FA0346C3F13F0307F1080231
:100BA000104639681A4614F085FA07F1080318460A
:100BB00014F078FA0346C3F13F0307F10802104628
:100BC00008491A4614F076FA07F10803184607F0A8
:100BD00083FBFFF78FFB4837BD4680BD08800108C7
:100BE000248001082C80010880B592B000AF7860A5
:100BF000396007F1080318460021402213F073FB07
:100C0000154807F069FB07F10803184614F04AFA83
:100C10000346C3F13F0307F10802104639681A463C
:100C200014F048FA07F10803184614F03BFA03469B
:100C3000C3F13F0307F10802104608491A4614F0B1
:100C400039FA07F10803184607F046FBFFF752FB95
:100C50004837BD4680BD00BF308001082C800108A8
:100C600080B500AF164B1B68164AA2FB03235B0B33
:100C7000013B154A1360154B154A1A60134B4FF68A
:100C8000FF72DA60104B1B68104A53600F4B002252
:100C90001A610E4B00229A600C480EF0E3FF0346E7
:100CA000002B02D0002000F04FF808480FF002F8A7
:100CB0000346002B02D0012000F046F880BD00BFA3
:100CC000D40100205917B7D17C0A00208856002093
:100CD0000040014080B400AF044B1B680133034A5D
:100CE0001360BD465DF8047B704700BF780A0020A2
:100CF00080B400AF054B002283F83920044B00225A
:100D00001A60BD465DF8047B704700BF885600201E
:100D10008456002080B400AF084B1B68596A084B0A
:100D20001A6813461B049B1A0B44064A1360054BB2
:100D30001B681846BD465DF8047B70478856002046
:100D4000780A00208456002080B582B000AF0346A8
:100D5000FB71FB79002B02D0012B04D007E0044883
:100D600000F00AF803E0034800F006F800BFFEE7D1
:100D700048800108708001080FB480B582B000AFD0
:100D800007F114033B600C4880213A693B6815F079
:100D9000E5F878607B68002B05DD7B68064819461E
:100DA00000F05EF878607B6818460837BD46BDE8FD
:100DB000804004B0704700BF800A0020B0B590B0FA
:100DC00000AF786039607A683B6813441B78002B69
:100DD0000BD104233B637B68FB623C6BFD6A2046BE
:100DE0002946ABBE0446BC6235E03B68FB632FE09E
:100DF000FB6B102B28BF10237B630023BB630DE02C
:100E00007B68197807F10C02BB6B13440A461A7011
:100E1000BB6B0133BB637B6801337B60BA6B7B6B5D
:100E20009A42EDD307F10C02BB6B134400221A70F7
:100E300004237B6207F10C033B627C6A3D6A204617
:100E40002946ABBE0446FC61FA6B7B6BD31AFB638D
:100E5000FB6B002BCCD13B6818464037BD46B0BD7C
:100E600080B582B000AF7860396078683968FFF784
:100E7000A5FF034618460837BD4680BD80B582B041
:100E800000AF0023FB71164A154B5B6943F4001356
:100E900053611448102100F01BFA1248042100F09D
:100EA00017FA0A200521002209F0A2F80A2009F009
:100EB000BBF808200521002209F09AF8082009F063
:100EC000B3F805F097FB05F0D3FC074805F03CFCB0
:100ED000064805F00FFDFB7918460837BD4680BD72
:100EE0000010024000100048000B00200C0B0020F6
:100EF00080B584B000AF4FF000037B604FF000037B
:100F0000BB604FF00003FB603B1D184605F01CFC66
:100F1000BB68094A1360D7ED017AF1EE677A064B98
:100F2000C3ED017AD7ED037AF1EE677A024BC3ED98
:100F3000027A1037BD4680BD000B002080B584B01A
:100F400000AF4FF000037B604FF00003BB604FF039
:100F50000003FB603B1D184605F0CCFC7B68094A8A
:100F60001360D7ED027AF1EE677A064BC3ED017A92
:100F7000D7ED037AF1EE677A024BC3ED027A1037B0
:100F8000BD4680BD0C0B002080B485B000AFF8607A
:100F9000B9607A60084B1A68FB681A60064B5A6899
:100FA000BB681A60044B9A687B681A601437BD46A8
:100FB0005DF8047B704700BF000B002080B485B053
:100FC00000AFF860B9607A60084B1A68FB681A6075
:100FD000064B5A68BB681A60044B9A687B681A60B3
:100FE0001437BD465DF8047B704700BF0C0B002032
:100FF00080B586B000AF0023FB75154A144B5B69C2
:1010000043F40013536102233B60124B7B600023C7
:10101000BB600323FB603B460F48194609F052FBB7
:1010200007200521002208F0E3FF072008F0FCFF5D
:1010300005F0BEFA05F056FA0346002B01D0FFF783
:1010400059F900F00BF8FB7D18461837BD4680BDF6
:1010500000100240000011100010004880B584B05C
:1010600000AF4FF000037B604FF00003BB604FF018
:101070000003FB603B1D184605F0A8FAD7ED027A85
:10108000F1EE677A444BC3ED007AD7ED017AF1EEC9
:10109000677A414BC3ED017AD7ED037AF1EE677AB7
:1010A0003D4BC3ED027A3D4B1B88C72B27D83A4BEB
:1010B000D3ED007A3A4B93ED007A77EE277A384BEE
:1010C000C3ED007A344BD3ED017A354B93ED017AC1
:1010D00077EE277A324BC3ED017A2F4BD3ED027AAC
:1010E0002F4B93ED027A77EE277A2D4BC3ED027AE0
:1010F0002A4B1B8801339AB2284B1A8049E0274BB0
:101100001B88C82B24D1264BD3ED007A9FED257A7E
:10111000C7EE877A224BC3ED007A214BD3ED017ADB
:101120009FED207AC7EE877A1D4BC3ED017A1C4BE9
:10113000D3ED027A9FED1B7AC7EE877A184BC3ED89
:10114000027A164B1B8801339AB2144B1A8020E0A6
:10115000114B93ED007A124BD3ED007A77EE677A5C
:101160000D4BC3ED007A0C4B93ED017A0C4BD3ED94
:10117000017A77EE677A084BC3ED017A064B93ED5F
:10118000027A074BD3ED027A77EE677A024BC3ED12
:10119000027A1037BD4680BD180B0020300B0020AE
:1011A000240B00200000484380B485B000AFF860F5
:1011B000B9607A60084B1A68FB681A60064B5A6877
:1011C000BB681A60044B9A687B681A601437BD4686
:1011D0005DF8047B704700BF180B002080B586B017
:1011E00004AF00237B6005200121002210F00EFADD
:1011F0000246144B1A60134B1B68002B02D1FFF7F9
:1012000079F817E0062300930F4B01930023029314
:10121000002303930D480E494FF40072002310F091
:10122000C3FD38603B68012B02D0FFF763F801E093
:101230007B6802E002237B60FAE718460837BD4668
:1012400080BD00BF3C0B0020380B00209516000825
:101250009880010880B584B000AF0346FB7100237D
:10126000FB60174B1968174BA3FB01235A09134660
:101270005B0013441B01CA1A002A02D1022004F0A9
:10128000B9FE0F4B1B6801330D4A13600E4B1968F2
:10129000FA1D07F10C03084611461A46002310F008
:1012A000EFFA0346012B01D0FFF724F8FB68002B6F
:1012B00003D0064B4FF080521A601037BD4680BDF8
:1012C000340B0020ABAAAAAA3C0B002004ED00E0DE
:1012D00080B588B000AF786039603B68FB60074B31
:1012E0003B6100237B610323BB6107F10C0378683A
:1012F000194609F0E7F92037BD4680BD00001110FE
:1013000080B586B004AF03463960FB80FB88092BAB
:1013100003D8134B0A221A8002E0114AFB8813807B
:101320003B689AB20F4B1A80012300930E4B019336
:1013300000230293002303930C480D494FF4C0721D
:10134000002310F031FD0346012B03D0FEF7D2FF3E
:10135000002300E0012318460837BD4680BD00BFCA
:10136000440B0020460B0020400B0020951700087E
:10137000A480010880B500AF084B1B68002B09D082
:10138000064B1B68184610F0C3FD044B00221A6080
:10139000012300E00023184680BD00BF400B002061
:1013A0002DE9B04F2DED0A8BF2B012AF0246FB1DB6
:1013B0001A7007F1B40107F1B00207F1AC03084657
:1013C00011461A46FFF7E0FD07F1A80107F1A40254
:1013D00007F1A003084611461A46FFF7E5FE07F19C
:1013E0009C0107F1980207F19403084611461A463A
:1013F000FFF7E4FDFB1D1B78002B5DD1D7F8B4305F
:10140000184612F0FBFB80468946D7F8B0301846E4
:1014100012F0F4FB41EC180BD7F8AC30184612F080
:10142000EDFB41EC1C0BD7F8A830184612F0E6FB98
:1014300041EC1B0BD7F8A430184612F0DFFB41EC4F
:101440001A0BD7F8A030184612F0D8FB41EC190B54
:10145000D7F89C30184612F0D1FB82468B46D7F85D
:101460009830184612F0CAFB04460D46D7F894305F
:10147000184612F0C3FB02460B4607F1B801CDE94E
:1014800000898DED028B8DED04CB8DED06BB8DEDCE
:1014900008AB8DED0A9BCDE90CABCDE90E45CDE94E
:1014A00010230846C0216F4A13F0A6FD07F1B803C8
:1014B000184606F011FFCDE0FB1D1B78012B40F014
:1014C000C98007F1380301221A76D7F8B42007F152
:1014D0003803DA6107F13803012283F82020D7F8B6
:1014E000B02007F138035A6207F13803012283F86C
:1014F0002820D7F8AC2007F13803DA6207F1380367
:1015000001221A70D7F8A82007F138035A6007F1B2
:10151000380301221A72D7F8A42007F13803DA60E1
:1015200007F1380301221A74D7F8A02007F1380315
:101530005A6107F13803012283F83020D7F89C2044
:1015400007F138035A6307F13803012283F8382082
:10155000D7F8982007F13803DA6307F1380301223E
:1015600083F84020D7F8942007F138035A6407F134
:10157000800207F10803104619462D2200F010FAE8
:1015800007F1800207F13803104637491A4600F088
:1015900007FD034687F87F3107F18003DB6807F119
:1015A000B80200931046C021304A032313F024FDF3
:1015B00007F1B803184613F075FDC7F8780107F175
:1015C0008003DA68D7F87831D418294813F06AFD17
:1015D00003462344BF2B20D807F1B802D7F878314F
:1015E000D11807F18003DB6807F1080208461146AD
:1015F0001A4612F06DFE07F18003DA68D7F87831E9
:10160000134407F1B802D418194813F04BFD0346F0
:10161000204617491A4612F05BFE97F87F31002BDF
:1016200016D007F18003DB689AB2D7F878319BB205
:1016300013449CB20E4813F035FD03469BB223447D
:101640009BB207F1B8021046194606F057FE01E0BA
:10165000FEF750FE07F5C077BD46BDEC0A8BBDE82E
:10166000B08F00BFB880010820960108688101088A
:101670007081010880B483B000AF0346FB71044A57
:10168000FB7913700C37BD465DF8047B704700BFD3
:10169000480B002080B584B000AF7860FFF7A8FC4D
:1016A0000346002B01D0FEF725FEFFF7E7FB0346BC
:1016B000002B01D0FEF71EFE354B1A6807F10F0311
:1016C000104619464FF0FF32002310F043F903464D
:1016D000002B04D1FEF70EFE00BF00BF54E0FB7BE1
:1016E0000A3B212BE8D801A252F823F07517000815
:1016F000B9160008B9160008B9160008B91600088E
:10170000B9160008B9160008B9160008B91600087D
:10171000B9160008B9160008B9160008B91600086D
:10172000B9160008B9160008B91600087B1700089A
:10173000B9160008B9160008B9160008B91600084D
:10174000B9160008B9160008B9160008B91600083D
:10175000B9160008B9160008B9160008B91600082D
:10176000B9160008B9160008B91600088117000854
:10177000B9160008FFF772FC05E0FFF7B9FB02E0BD
:10178000FFF7DCFB00BF97E71037BD4680BD00BF09
:101790003C0B002080B584B000AF786010F024FDD1
:1017A0000346BB60BB68FB60104B1B889BB21A46AC
:1017B00007F108031846114610F0F0FB0C4B1B789C
:1017C0001846FFF7EDFD10F00FFD0146094B1B8891
:1017D0009BB21A464FF47A7303FB02F2FB68134480
:1017E000994201D3FFF7C6FDDEE700BF440B00209E
:1017F000480B0020460B002080B485B000AFF86095
:10180000B9607A60FB68BA681A60FB68BA685A60A7
:10181000FB6800229A60FB687A68DA60FB685B68A4
:101820009B781A467B681A44FB681A61FB681A6940
:10183000FB685B68DB785BB21A44FB685A61FB6843
:101840005B681B78002B14BF01230023DBB2184612
:101850001437BD465DF8047B704700BF80B584B087
:1018600000AF78607B685B68BB60BB681B78002B4F
:1018700001D100236CE07B685B6803F10A027B689E
:101880005A607B685B681B78002B0AD17B681A68FA
:101890007B68DB68786811461A46FFF7ADFF0023C6
:1018A00056E0BB681B79FB60BB685B7803F03003D4
:1018B000302B11D17B685B685B7803F03003302BF1
:1018C0000AD10023FB607B681A69BB689B785B4286
:1018D0001A447B681A611BE0BB685B7803F0C003A5
:1018E000002B0DD1BB685B7803F03003202B07D1B0
:1018F000BB685B791A46FB6802FB03F3FB6007E0F9
:10190000BB685B7803F0C003802B01D10423FB602C
:10191000BB685B7803F03003002B04D17B689B68C5
:101920005A1C7B689A607B681A697B685B689B7845
:101930001946FB680B441A447B681A617B681A6974
:101940007B685B68DB785BB21A447B685A61012371
:1019500018461037BD4680BD80B487B000AFF86030
:10196000B9607A60FB685B687B617A697B681A445E
:10197000FB685A6007E07B695A1C7A61BA68511C9F
:10198000B96012781A707B685A1E7A60002BF2D107
:10199000012318461C37BD465DF8047B704700BF25
:1019A000B0B48BB000AFF860B9607A600B4B7B616C
:1019B000BB68BB617B68FB6100233B6200237B62E9
:1019C000FB681D4607F114040FCC0FC523682B607C
:1019D000F8682C37BD46B0BC704700BF59190008E5
:1019E00080B584B000AFF860B9607A60FB681B68AE
:1019F000002B2BD0FB68DA687B681A44FB689B6875
:101A00009A420BD9FB681B69002B02D0FB681B694B
:101A100000E0144BFA68136100231EE0FB681B68AA
:101A2000F868B9687A689847034683F00103DBB227
:101A3000002B0BD0FB681B69002B02D0FB681B69D5
:101A400000E0094BFA681361002306E0FB68DA68DE
:101A50007B681A44FB68DA60012318461037BD46DC
:101A600080BD00BF98810108A481010880B58CB0B9
:101A700000AFF860B9607A603B603B68002B01D131
:101A80000123F5E0BB685B7803F0C003802B11D025
:101A9000BB685B791A463B689A420BD2FB681B69AC
:101AA000002B02D0FB681B6900E0734BFA681361DE
:101AB0000023DDE0BB685B7803F00F03042B00F329
:101AC0008A80BB681B78F86802211A4600F04AFB3E
:101AD000034683F00103DBB2002B01D00023C7E0F3
:101AE000BB685B7803F00F03032B03D13B689B00BB
:101AF0007B6236E0BB685B7803F00F03042B03D1F5
:101B00003B68DB007B622CE000233B6100237B61B0
:101B10000023BB610023FB6100233B627B68BB6247
:101B20000023FB6217E007F11002BB6B1046B96897
:101B3000BA6A9847034683F00103DBB2002B01D059
:101B4000002395E0BB681B791A46BB6A1344BB624D
:101B5000FB6A0133FB62FA6A3B689A42E3D3FB6992
:101B60007B627B6A1A464FF00003F86800F062FA65
:101B7000034683F00103DBB2002B01D0002377E0A2
:101B8000FB681B68002B06D1F86800217A6AFFF712
:101B900027FF03466CE07B68BB620023FB6215E015
:101BA000BB6BF868B968BA6A9847034683F00103CB
:101BB000DBB2002B01D000235AE0BB681B791A4628
:101BC000BB6A1344BB62FB6A0133FB62FA6A3B687F
:101BD0009A42E5D34BE07B68BB620023FB6242E0A4
:101BE000F868B96800F0E0FA034683F00103DBB25D
:101BF000002B01D000233BE0BB685B7803F0C003FF
:101C0000802B1AD1BB685B7803F00F03062B05D03D
:101C1000BB685B7803F00F03052B0ED1BB6A1A6813
:101C2000BB6BF868B9689847034683F00103DBB2E1
:101C3000002B01D000231BE00CE0BB6BF868B968F7
:101C4000BA6A9847034683F00103DBB2002B01D048
:101C500000230DE0BB681B791A46BB6A1344BB62C4
:101C6000FB6A0133FB62FA6A3B689A42B8D30123EC
:101C700018463037BD4680BDB081010890B58BB0A5
:101C800002AFF860B9607A600123FB75BB685B78CE
:101C900003F00F035E4A52F82330BB61BB68DB7868
:101CA000002B06D0BB68DB785BB27A681344FB611B
:101CB00002E007F11703FB61BB685B7803F0C00328
:101CC000802B09D17B681B687B607B68002B14BF6D
:101CD00001230023DBB2FB75BB685B7803F03003A4
:101CE000102B32D0102B02DC002B05D07FE0202BF4
:101CF00049D0302B5BD07AE07B68002B0BD1FB689E
:101D00001B69002B02D0FB681B6900E0414BFA689D
:101D10001361002378E0F868B96800F045FA0346DB
:101D200083F00103DBB2002B01D000236CE0BB6920
:101D3000F868B9687A689847034683F00103DBB214
:101D4000002B01D000235FE05DE0FB691B78002BD6
:101D500018D0F868B96800F027FA034683F0010349
:101D6000DBB2002B01D000234EE0BB69F868B968F4
:101D70007A689847034683F00103DBB2002B01D059
:101D8000002341E03FE0FB691B781C46BB690093E0
:101D9000F868B9687A682346FFF768FE034683F05F
:101DA0000103DBB2002B01D000232DE02BE0FB6907
:101DB0001A78BB681B789A4218D1F868B96800F0A5
:101DC000F3F9034683F00103DBB2002B01D00023BB
:101DD0001AE0BB69F868B9687A689847034683F0E7
:101DE0000103DBB2002B01D000230DE00BE0FB6808
:101DF0001B69002B02D0FB681B6900E0064BFA68E8
:101E00001361002300E0012318462437BD4690BD2E
:101E100074810108C8810108E081010880B586B09D
:101E200000AFF860B9607A607B687B617B690433DE
:101E30003B617B691B68002B17D07B691B68F868C6
:101E4000B9683A699847034683F00103DBB2002B77
:101E50000BD0FB681B69002B02D0FB681B6900E0FC
:101E6000044BFA681361002300E001231846183779
:101E7000BD4680BDF481010880B584B000AFF86034
:101E8000B9607A60BB685B7803F0C003402B0AD06E
:101E9000802B01D0002B0DD1F868B9687A68FFF764
:101EA000EDFE034611E0F868B9687A68FFF7B6FFFF
:101EB00003460AE0FB681B69002B02D0FB681B6924
:101EC00000E0044BFA681361002318461037BD4642
:101ED00080BD00BFE081010880B584B000AF7860AC
:101EE00039603B681B689B68FB60FB685B7803F0AC
:101EF000C003802B08D13B6804337868F9681A4620
:101F0000FFF7BAFF034607E03B685B687868F9684B
:101F10001A46FFF7B1FF034618461037BD4680BD8D
:101F200080B586B000AFF860B9607A607B681B68E6
:101F30007B611EE07B691B685B68002B08D07B69B6
:101F40001B685B68F868796998470346FB7405E08D
:101F5000F8687969FFF7C0FF0346FB74FB7C83F0E8
:101F60000103DBB2002B01D0002306E07B699B68F4
:101F70007B617B69002BDDD1012318461837BD46F4
:101F800080BD00BF80B485B000AF78607B68FB6027
:101F9000FB6818461437BD465DF8047B704700BFE8
:101FA00080B58AB000AFF860B9607A607868FFF7F2
:101FB000E9FF024607F110031846B968FFF71CFC59
:101FC000034683F00103DBB2002B01D001232CE098
:101FD0007B695B7803F00F03082B0ED17A693B6AAB
:101FE000F86811461A46FFF79BFF034683F001038A
:101FF000DBB2002B10D0002317E07A693B6AF86847
:1020000011461A46FFF738FF034683F00103DBB29F
:10201000002B01D0002308E007F110031846FFF75A
:102020001DFC0346002BD3D1012318462837BD469B
:1020300080BD00BFB0B588B000AFF860C7E900232D
:102040000023FB61D7E90023134307D13B46F8681F
:1020500019460122FFF7C4FC034634E016E0D7E935
:102060000023D3B263F07F03D9B207F11002FB69FA
:1020700013440A461A70D7E90023D40944EA43649A
:10208000DD09C7E90045FB690133FB61D7E900239E
:102090001343E4D1FB69013BFA69013A07F12001DE
:1020A0000A4412F8102C02F07F02D2B207F120018C
:1020B0000B4403F8102C07F11003F8681946FA696D
:1020C000FFF78EFC034618462037BD46B0BD00BF63
:1020D00080B586B000AFF860C7E90023D7E90023D8
:1020E000002A73F100030BDAD7E90023921843EBBF
:1020F00003036FEA02026FEA0303C7E9042306E061
:10210000D7E90023921843EB0303C7E90423F868D7
:10211000D7E90423FFF78EFF034618461837BD465C
:1021200080BD00BF80B582B000AF7860396078684C
:1021300039680422FFF754FC034618460837BD46A9
:1021400080BD00BF80B582B000AF7860396078682C
:1021500039680822FFF744FC034618460837BD4695
:1021600080BD00BFB0B586B000AFF8600B467A60A6
:10217000FB727B681A464FF00003DD0045EA52759A
:10218000D400FA7A4FF0000342EA040243EA05035E
:10219000C7E90423F868D7E90423FFF74BFF034698
:1021A00018461837BD46B0BD80B584B000AF786022
:1021B00039603B685B7803F00F03072B1ED801A240
:1021C00052F823F0E5210008E5210008E521000888
:1021D000EB210008F1210008F7210008F721000891
:1021E000F72100080023FB7314E00523FB7311E0C3
:1021F0000123FB730EE00223FB730BE07B681B697A
:10220000002B02D07B681B6900E0094B7A681361E0
:10221000002308E03B681B781A46FB7B7868194668
:10222000FFF7A0FF034618461037BD4680BD00BF2C
:10223000E081010880B584B000AFF860B9607A60D1
:102240007B681A464FF00003F868FFF7F3FE034679
:1022500083F00103DBB2002B01D0002305E0F86816
:10226000B9687A68FFF7BCFB034618461037BD46CD
:1022700080BD00BF80B58CB000AFF860B9607A60F7
:1022800000237B610023BB610023FB6100233B62D1
:1022900000237B6207F114031846B9687A68FFF7D8
:1022A0007FFE034683F00103DBB2002B04D07A6A81
:1022B000FB681A61002363E03B6AFB62FB6A1A4613
:1022C0004FF00003F868FFF7B5FE034683F0010303
:1022D000DBB2002B01D0002352E0FB681B68002B0F
:1022E00006D1F8680021FA6AFFF77AFB034647E057
:1022F000FB68DA68FB6A1A44FB689B689A420BD950
:10230000FB681B69002B02D0FB681B6900E01E4BB9
:10231000FA681361002333E0FB681B687B61FB688C
:102320005B68BB61FB6AFB6100233B6200237B624D
:1023300007F114031846B9687A68FFF731FE0346BF
:1023400087F82B30FB68DA683B6A1A44FB68DA606E
:10235000BA69FB685A607A6AFB681A613A6AFB6A72
:102360009A420BD0FB681B69002B02D0FB681B69EB
:1023700000E0064BFA681361002301E097F82B3068
:1023800018463037BD4680BD988101080482010897
:1023900080B586B000AFF860B9607A604FF0000297
:1023A0004FF00003C7E90423BB681B79013B072BEF
:1023B00030D801A252F823F0D9230008E9230008FD
:1023C00015240008F9230008152400081524000826
:1023D00015240008092400087B681B785AB24FEACC
:1023E000E273C7E9042321E07B681B881AB24FEA35
:1023F000E273C7E9042319E07B681B681A464FEAB9
:10240000E273C7E9042311E07B68D3E90023C7E93D
:1024100004230BE0FB681B69002B02D0FB681B69DF
:1024200000E0074BFA681361002305E0D7E90423B5
:10243000F868FFF7FFFD034618461837BD4680BD14
:102440001882010880B586B000AFF860B9607A6084
:102450004FF000024FF00003C7E90423BB681B796B
:10246000013B072B30D801A252F823F08D2400083D
:102470009D240008C9240008AD240008C9240008D0
:10248000C9240008C9240008BD2400087B681B7803
:10249000DAB24FF00003C7E9042321E07B681B8810
:1024A0009AB24FF00003C7E9042319E07B681B6868
:1024B0001A464FF00003C7E9042311E07B68D3E913
:1024C0000023C7E904230BE0FB681B69002B02D043
:1024D000FB681B6900E0074BFA681361002305E005
:1024E000F868D7E90423FFF7A5FD03461846183717
:1024F000BD4680BD1882010880B586B000AFF86087
:10250000B9607A604FF000024FF00003C7E904237E
:10251000BB681B79013B072B30D801A252F823F08E
:1025200041250008512500087D2500086125000887
:102530007D2500087D2500087D25000871250008FF
:102540007B681B785AB24FEAE273C7E9042321E0A3
:102550007B681B881AB24FEAE273C7E9042319E0CB
:102560007B681B681A464FEAE273C7E9042311E04F
:102570007B68D3E90023C7E904230BE0FB681B69F0
:10258000002B02D0FB681B6900E0074BFA6813615F
:10259000002305E0F868D7E90423FFF799FD034617
:1025A00018461837BD4680BD1882010880B584B032
:1025B00000AFF860B9607A60F8687968FFF7C2FD2B
:1025C000034618461037BD4680BD00BF80B584B0B5
:1025D00000AFF860B9607A60F8687968FFF7A2FD2B
:1025E000034618461037BD4680BD00BF80B586B093
:1025F00000AFF860B9607A607B687B617B68002B14
:1026000006D1F86800210022FFF714FE034622E0FD
:10261000BB685B7803F0C003002B12D17B691B7889
:102620000133BA68127993420BD9FB681B69002BFE
:1026300002D0FB681B6900E0094BFA6813610023B4
:1026400009E07B695A1C7B691B78F86811461A46B9
:10265000FFF7F0FD034618461837BD4680BD00BFA2
:102660002C82010880B588B000AFF860B9607A604C
:102670000023FB61BB681B79BB617B687B61BB6826
:102680005B7803F0C003802B02D14FF0FF33BB61B6
:102690007B68002B02D10023FB610EE005E0FB69A3
:1026A0000133FB617B6901337B61FA69BB699A4243
:1026B00003D27B691B78002BF1D1F8687968FA693D
:1026C000FFF7B8FD034618462037BD4680BD00BF62
:1026D00080B584B000AFF860B9607A60BB68D3F8A9
:1026E0000630002B0BD1FB681B69002B02D0FB6866
:1026F0001B6900E0084BFA681361002308E0BB681F
:10270000D3F80630F86819467A68FFF7B3FD034638
:1027100018461037BD4680BD4082010880B584B0A0
:1027200004AF06230093094B019300230293002377
:10273000039307480749802200230FF035FB034627
:10274000012B01D0FDF7D6FDBD4680BDC45600204B
:10275000012B00085C82010880B400AF034B1B789A
:102760001846BD465DF8047B704700BF6C0B002027
:1027700080B400AF044B1B6807EE903AB0EE670AD6
:10278000BD465DF8047B70474C0B002080B400AF61
:10279000044B5B6807EE903AB0EE670ABD465DF801
:1027A000047B70474C0B002080B400AF044B9B6847
:1027B00007EE903AB0EE670ABD465DF8047B7047BD
:1027C0004C0B002080B400AF044BDB6807EE903A5E
:1027D000B0EE670ABD465DF8047B70474C0B0020E5
:1027E00080B500AF00F034F8174B1B78012B08D0F0
:1027F000022B09D0002B23D100F080FC00F0CAFF8F
:1028000021E000F0C1FB1EE000F046F80F4801F0A7
:10281000C1F80E4B93ED006A0C4BD3ED016A0B4BE4
:1028200093ED027A094BD3ED037AB0EE460AF0EE4F
:10283000660AB0EE471AF0EE671A00F085FC02E077
:1028400000F05CFC00BF80BD6C0B00205C0B002026
:1028500080B500AF01F074FE0346002B03D10D4B91
:1028600000221A7014E001F021FB0346002B03D074
:10287000084B01221A700BE001F030FB0346002BDD
:1028800003D0044B02221A7002E0024B00221A709D
:1028900080BD00BF6C0B002080B500AF01F0B2FA24
:1028A0000346B3F5E16F0ADC01F0ACFA034613F519
:1028B000E16F04DB8C4B4FF000021A604DE001F039
:1028C000A1FA0346002B24DB01F09CFA0346A3F592
:1028D000E163184611F080F902460B46104619468E
:1028E0004FF000024FF0404311F0DCF902460B4676
:1028F0001046194678A3D3E9002311F0FDFA0246E9
:102900000B461046194611F08FFC0246764B1A60B2
:1029100023E001F077FA034603F5E163184611F06E
:102920005BF902460B46104619464FF000024FF085
:10293000404311F0B7F902460B461046194668A30A
:10294000D3E9002311F0D8FA02460B461046194687
:1029500011F06AFC0246644B1A6001F061FA03460A
:10296000B3F5E16F0ADC01F05BFA034613F5E16FA2
:1029700004DB5D4B4FF000025A602DE001F050FA8D
:102980000346002B14DB01F04BFA0346A3F5E16389
:1029900007EE903AF8EEE77A9FED547A67EE877A81
:1029A0009FED537AC7EE877A4F4BC3ED017A13E060
:1029B00001F036FA034603F5E16307EE903AF8EECC
:1029C000E77A9FED4A7A67EE877A9FED4A7AC7EEFB
:1029D000877A454BC3ED017A01F030FA0346B3F52F
:1029E000E16F0ADC01F02AFA034613F5E16F04DB1C
:1029F0003D4B4FF000029A602DE001F01FFA0346B4
:102A0000002B14DB01F01AFA0346A3F5E16307EE8D
:102A1000903AF8EEE77A9FED357A67EE877A9FED88
:102A2000347AC7EE877A304BC3ED027A13E001F0B7
:102A300005FA034603F5E16307EE903AF8EEE77A0C
:102A40009FED2A7A67EE877A9FED2A7AC7EE877A1A
:102A5000254BC3ED027A01F0FFF90346B3F5E16FB0
:102A60000ADC01F0F9F9034613F5E16F04DB1E4BB4
:102A70004FF00002DA602DE001F0EEF90346002B82
:102A800014DB01F0E9F90346A3F5E16307EE903AA0
:102A9000F8EEE77A9FED187A67EE877A9FED147A61
:102AA000C7EE877A104BC3ED037A13E001F0D4F937
:102AB000034603F5E16307EE903AF8EEE77A9FEDFF
:102AC0000E7A67EE877A9FED0B7AC7EE877A064B10
:102AD000C3ED037A80BD00BF00000000C03DDE40B2
:102AE00000000000003EDE404C0B0020920A86BE33
:102AF00000EEF14600F0F146920A06BFAFF3008007
:102B000080B584B000AF78600023FB600FF06CFBF1
:102B10000346BB6007F10803184614210FF03EFA84
:102B2000FFF75EFEFA68104BA3FB02135B096421FA
:102B300001FB03F3D31A002B03D1032003F026FA81
:102B40000EE0F968094BA3FB01231A0913469B0009
:102B500013449B00CA1A002A02D1032003F030FA62
:102B6000FB680133FB60D5E71F85EB51CDCCCCCCA6
:102B700080B500AF00F004F800F026F8FEE700BFD3
:102B800080B500AF07F014F9FDF7FEFAFDF730FB52
:102B900000F028F804F044F9FDF772FB0020012151
:102BA00003F040FAFEF71AFB0346002B01D0FDF7B5
:102BB000A1FB02F0ABFD00F0EDFD00F049F801F0E3
:102BC000ABF8FEF74DF880BD80B500AFFFF7A6FD6E
:102BD00005F0E8FB05F01EFC05F032FC0FF036FABC
:102BE00080BD00BF80B59EB000AF0123FB63012311
:102BF0003B6400237B640023FB640223BB654FF42A
:102C00008033FB654FF4E0133B6607F13C03184645
:102C10000BF074FA3B4618460BF0DCF90023BB635B
:102C20003B4618460BF058F80F237B660223BB6621
:102C30000023FB664FF480633B6700237B6707F14B
:102C40006403184602210AF063FC7837BD4680BD54
:102C500080B588B000AF514BFF221A704F4B012254
:102C60005A704E4B01229A704D4B01221A704C4BF8
:102C700001225A704A4BFF229A704A4B01221A7065
:102C8000484BFF225A70474B01229A70464BFF2255
:102C90001A70454BFF225A70434BFF229A70434BE8
:102CA000434A1A60434B1B68434AA2FB03235B0D54
:102CB000013B3E4A53603D4B4EF66022DA603B4B8F
:102CC00000221A61394B00229A6038480DF00EF844
:102CD0000346002B01D0FDF70DFB60237B60002332
:102CE000FB6004237B610023BB603B1D2F4819461A
:102CF00000220DF0D3FF0346002B01D0FDF7FAFAB6
:102D00000023BB603B1D2948194604220DF0C6FF75
:102D10000346002B01D0FDF7EDFA0023BB603B1DFD
:102D20002248194608220DF0B9FF0346002B01D0B6
:102D3000FDF7E0FA0023BB603B1D1C4819460C223E
:102D40000DF0ACFF0346002B01D0FDF7D3FA174876
:102D500000210CF0F3FF0346002B01D0FDF7CAFA67
:102D6000124804210CF0EAFF0346002B01D0FDF7C6
:102D7000C1FA0E4808210CF0E1FF0346002B01D0F8
:102D8000FDF7B8FA09480C210CF0D8FF0346002BD8
:102D900001D0FDF7AFFA2037BD4680BD780B00208B
:102DA0007C0B0020800B0020840B0020880B00206F
:102DB00000080040D4010020819F5E1690B583B0CA
:102DC00000AF0446084611461A462346FB800346D8
:102DD000BB800B467B8013463B80FB88184600F087
:102DE000EDFBBB88184600F011FC7B88184600F00C
:102DF00035FC3B88184600F059FC0C37BD4690BDA9
:102E000080B483B000AF0346FB71044AFB791370B2
:102E10000C37BD465DF8047B704700BFCC0B00202B
:102E200090B5B9B004AF0346FB71FB79002B1CD100
:102E3000504B1B881C464F4B5B8818464D4B9B885C
:102E400019464C4BDB881A4607F168030090019144
:102E5000029218466021484A234612F0CDF807F145
:102E60006803184605F038FA80E0FB79012B7DD124
:102E700001233B7201233B7401233B76012387F836
:102E800020303C4B1B88FB603A4B5B887B61394BA5
:102E90009B88FB61374BDB887B6207F1540207F1AB
:102EA0002803104619462C22FEF77AFD07F154023A
:102EB00007F10803104631491A46FFF771F8034637
:102EC00087F8CF303B6E07F168020093104660210F
:102ED0002B4A022312F090F807F16803184612F00B
:102EE000E1F8C7F8C8003A6ED7F8C830D4182548BA
:102EF00012F0D8F8034623445F2B1CD807F1680270
:102F0000D7F8C830D1183B6E07F1280208461146A1
:102F10001A4611F0DDF93A6ED7F8C830134407F1BC
:102F20006802D418174812F0BDF803462046154928
:102F30001A4611F0CDF997F8CF30002B14D03B6E24
:102F40009AB2D7F8C8309BB213449CB20D4812F025
:102F5000A9F803469BB223449BB207F168021046CE
:102F6000194605F0CBF901E0FDF7C4F9D437BD46A9
:102F700090BD00BF700B002068820108EC9501082D
:102F8000A0820108A882010890B589B000AF00F0C6
:102F900039FF034603F50043FB61FB695C4200F027
:102FA0003FFF034603FB04F34F4A82FB03121A441C
:102FB0009213DB17D31ABB61FB695C4200F03EFF42
:102FC000034603FB04F3484A82FB03121A4492139C
:102FD000DB17D31A7B61FB695C4200F03DFF0346BF
:102FE00003FB04F3404A82FB03121A449213DB17DB
:102FF000D31A3B613D4B1B785BB2BA6902FB03F20B
:10300000FB691A44394B5B785BB2796901FB03F3C6
:103010001A44364B9B785BB2396901FB03F31344C6
:10302000FB60334B1B785BB2BA6902FB03F2FB69AE
:103030001A442F4B5B785BB2796901FB03F31A44A6
:103040002B4B9B785BB2396901FB03F31344BB60E4
:10305000284B1B785BB2BA6902FB03F2FB691A4486
:10306000244B5B785BB2796901FB03F31A44214B73
:103070009B785BB2396901FB03F313447B601E4B01
:103080001B785BB2BA6902FB03F2FB691A441A4B64
:103090005B785BB2796901FB03F31A44164B9B78AA
:1030A0005BB2396901FB03F313443B6007F10C0089
:1030B00007F108013A1D3B4600F020FB01F040FA01
:1030C0000346002B0AD0FB6898B2BB6899B27B68B4
:1030D0009AB23B689BB2FFF771FE01E000F00EF878
:1030E0002437BD4690BD00BF03000180780B00204F
:1030F0007C0B0020800B0020840B002080B400AFEC
:103100000F4B1B6800225A630D4B1B6800229A6309
:103110000B4B1B680022DA63094B1B6800221A6400
:10312000084B00221A80074B00225A80054B0022D0
:103130009A80044B0022DA80BD465DF8047B70471C
:10314000880B0020700B0020B0B588B000AF87ED71
:10315000030AC7ED020A87ED011AC7ED001AF868E5
:1031600010F04CFD02460B4610461946CCA3D3E99D
:10317000002310F097FD02460B46104619464FF00B
:1031800000024FF0000310F0DBFB02460B46144632
:103190001D46B86810F032FD02460B46104619462F
:1031A000C1A3D3E9002310F07DFD02460B46204663
:1031B000294610F0C3FB02460B4614461D467868AC
:1031C00010F01CFD02460B4610461946B6A3D3E983
:1031D000002310F067FD02460B462046294610F0FA
:1031E000AFFB02460B4614461D46386810F006FD3C
:1031F00002460B4610461946ADA3D3E9002310F052
:1032000051FD02460B462046294610F099FB024626
:103210000B461046194610F0DFFF0346FB61F868C5
:1032200010F0ECFC02460B46104619469CA3D3E96D
:10323000002310F037FD02460B46104619464FF0AA
:1032400000024FF0000310F07BFB02460B461446D1
:103250001D46B86810F0D2FC02460B4610461946CF
:1032600091A3D3E9002310F01DFD02460B46204632
:10327000294610F065FB02460B4614461D46786849
:1032800010F0BCFC02460B461046194686A3D3E953
:10329000002310F007FD02460B462046294610F099
:1032A0004FFB02460B4614461D46386810F0A6FC3C
:1032B00002460B46104619467DA3D3E9002310F0C1
:1032C000F1FC02460B462046294610F037FB024629
:1032D0000B461046194610F07FFF0346BB61F868A5
:1032E00010F08CFC02460B46104619466CA3D3E93D
:1032F000002310F0D7FC02460B46104619464FF04B
:1033000000024FF0000310F01BFB02460B46144670
:103310001D46B86810F072FC02460B46104619466E
:1033200061A3D3E9002310F0BDFC02460B46204602
:10333000294610F005FB02460B4614461D467868E8
:1033400010F05CFC02460B461046194656A3D3E922
:10335000002310F0A7FC02460B462046294610F039
:10336000EDFA02460B4614461D46386810F046FC3E
:1033700002460B46104619464DA3D3E9002310F030
:1033800091FC02460B462046294610F0D9FA024627
:103390000B461046194610F01FFF03467B61F86884
:1033A00010F02CFC02460B46104619463CA3D3E90C
:1033B000002310F077FC02460B46104619464FF0EA
:1033C00000024FF0000310F0BBFA02460B46144611
:1033D0001D46B86810F012FC02460B46104619460E
:1033E00031A3D3E9002310F05DFC02460B462046D2
:1033F000294610F0A3FA02460B4614461D4678688B
:1034000010F0FCFB02460B461046194626A3D3E9F2
:10341000002310F047FC02460B462046294610F0D8
:103420008DFA02460B4614461D46386810F0E6FB3E
:1034300002460B46104619461DA3D3E9002310F09F
:1034400031FC02460B462046294610F077FA024628
:103450000B461046194610F0BFFE03463B6107F1CC
:103460001C0007F1180107F1140207F1100300F026
:1034700045F901F065F80346002B0AD0FB6998B2C4
:10348000BB6999B27B699AB23B699BB2FFF796FC24
:1034900001E0FFF733FE2037BD46B0BDAFF300803B
:1034A000CD1B08CD1B1896C0A5D247B4C909BA4098
:1034B000255D7DC26475014180B586B004AF0346C9
:1034C0003960FB80FB88012B03D8134B02221A8042
:1034D00002E0114AFB8813803B689AB20F4B1A80B6
:1034E000012300930E4B01930023029300230393C7
:1034F0000C480D494FF4807200230EF055FC034632
:10350000012B03D0FCF7F6FE002300E00123184650
:103510000837BD4680BD00BFC80B0020CA0B002085
:10352000C40B002059350008AC82010880B500AFFB
:10353000084B1B68002B09D0064B1B6818460EF081
:10354000E7FC044B00221A60012300E00023184628
:1035500080BD00BFC40B002080B584B000AF786090
:103560000EF042FE0346BB60BB68FB60104B1B883D
:103570009BB21A4607F10803184611460EF00EFDDD
:103580000C4B1B781846FFF74BFC0EF02DFE014646
:10359000094B1B889BB21A464FF47A7303FB02F265
:1035A000FB681344994201D3FFF7C0FFDEE700BF79
:1035B000C80B0020CC0B0020CA0B002080B485B0C3
:1035C00000AF0346FB80FB8845F6C05202FB03F3C5
:1035D0000B4A82FB03121A44D213DB17D31A03F5EA
:1035E000BB434033FB60074B1B68FA6892B25A63D7
:1035F000054AFB8813801437BD465DF8047B70478D
:1036000001800080880B0020700B002080B485B002
:1036100000AF0346FB80FB8845F6C05202FB03F374
:103620000B4A82FB03121A44D213DB17D31A03F599
:10363000BB434033FB60074B1B68FA6892B29A6346
:10364000054AFB8853801437BD465DF8047B7047FC
:1036500001800080880B0020700B002080B485B0B2
:1036600000AF0346FB80FB8845F6C05202FB03F324
:103670000B4A82FB03121A44D213DB17D31A03F549
:10368000BB434033FB60074B1B68FA6892B2DA63B6
:10369000054AFB8893801437BD465DF8047B70476C
:1036A00001800080880B0020700B002080B485B062
:1036B00000AF0346FB80FB8845F6C05202FB03F3D4
:1036C0000B4A82FB03121A44D213DB17D31A03F5F9
:1036D000BB434033FB60074B1B68FA6892B21A6425
:1036E000054AFB88D3801437BD465DF8047B7047DC
:1036F00001800080880B0020700B002080B485B012
:1037000000AFF860B9607A603B60FB681B68B3F596
:10371000803F03DBFB684FF6FF721A60BB681B68D3
:10372000B3F5803F03DBBB684FF6FF721A607B681E
:103730001B68B3F5803F03DB7B684FF6FF721A60AE
:103740003B681B68B3F5803F03DB3B684FF6FF72B5
:103750001A60FB681B68002B02DAFB6800221A6003
:10376000BB681B68002B02DABB6800221A607B680A
:103770001B68002B02DA7B6800221A603B681B681A
:10378000002B02DA3B6800221A601437BD465DF850
:10379000047B704780B400AF714B4FF080421A60D9
:1037A0006F4B4FF000025A606D4B4FF07C529A60A5
:1037B0006B4B4FF07E52DA60694B4FF07E521A61CC
:1037C000674B684A5A61664B4FF000029A61644B3E
:1037D0004FF00002DA61624B4FF000021A62604B58
:1037E0004FF000025A625E4B4FF000029A625C4B4F
:1037F0004FF00002DA625A4B5B4A1A63584B5B4A3D
:103800005A63574B5A4A9A635A4B4FF080421A6098
:10381000584B4FF000025A60564B4FF07C529A6062
:10382000544B4FF07E52DA60524B4FF07E521A6189
:10383000504B4C4A5A614F4B4FF000029A614D4B2E
:103840004FF00002DA614B4B4FF000021A62494B15
:103850004FF000025A62474B4FF000029A62454B0C
:10386000454ADA62434B404A1A63424B434A5A6321
:10387000404B4FF000029A63414B4FF080421A6078
:103880003F4B4FF000025A603D4B4FF07C529A6024
:103890003B4B4FF07E52DA60394B4FF07E521A614B
:1038A000374B304A5A61364B4FF000029A61344B25
:1038B0004FF00002DA61324B4FF000021A62304BD7
:1038C0004FF000025A622E4B4FF000029A622C4BCE
:1038D000294ADA622A4B244A1A63294B274A5A6337
:1038E000274B4FF000029A63264B4FF080421A603C
:1038F000244B4FF000025A60224B4FF07C529A60EA
:10390000204B4FF07E52DA601E4B4FF07E521A6110
:103910001C4B144A5A611B4B4FF000029A61194B21
:103920004FF00002DA61174B4FF000021A62154B9C
:103930004FF000025A62134B4FF000029A62114B93
:10394000114ADA620F4B114A1A630E4B104A5A633E
:103950000C4B4FF000029A63BD465DF8047B704744
:10396000D00B002000007041AA6239C26666064092
:103970003D0A1DC10C0C0020AA6239428FC2F53CE1
:10398000480C0020840C0020E89B6A3EE89B6ABE3D
:103990008FC2753D80B52DED028B82B000AF78608F
:1039A00001F0E6FFB0EE408AFEF7F0FEF0EE407A5E
:1039B0001C48B0EE480AF0EE670A00F039F8F0EE65
:1039C000407A7B68C3ED017A01F0E0FFB0EE408AF7
:1039D000FEF7EAFEF0EE407A1348B0EE480AF0EE49
:1039E000670A00F025F8F0EE407A7B68C3ED027AB2
:1039F00001F0DAFFB0EE408AFEF7E4FEF0EE407A26
:103A00000A48B0EE480AF0EE670A00F011F8F0EE4E
:103A1000407A7B68C3ED037A0837BD46BDEC028B64
:103A200080BD00BF0C0C0020480C0020840C00203E
:103A30002DE9B04F86B000AFF86087ED020AC7ED00
:103A4000010AFB6893ED007AFB68D3ED036AD7EDBA
:103A5000017A66EEA76AD7ED027A76EEE77A67EE2C
:103A6000277AFB68C3ED067AFB685B68184610F09E
:103A7000C5F802460B4610461946A4A3D3E9002315
:103A800010F0A0FB0346002B4CD0FB68DB69184606
:103A900010F0B4F804460D46FB68D3ED007AB3EE9F
:103AA000047A67EE877A17EE900A10F0A7F80246BC
:103AB0000B46104619464FF00002934B10F01CFACB
:103AC00002460B4690469946FB685B68184610F024
:103AD00095F802460B464046494610F00DFA02465C
:103AE0000B469046994697ED017AD7ED027A77EE2C
:103AF000677A17EE900A10F081F802460B464046AE
:103B0000494610F0CFF802460B46204629460FF0F2
:103B100017FF02460B461046194610F085FB024679
:103B2000FB68DA61FB689B68184610F067F804468A
:103B30000D46FB689B68184610F060F88046894681
:103B4000FB68D3ED057AB3EE047A67EE877A17EE59
:103B5000900A10F053F802460B46104619464FF0F3
:103B60000002694B10F0C8F902460B464046494630
:103B70000FF0E6FE02460B462046294610F0BCF93F
:103B800002460B4614461D46FB681B6A184610F099
:103B900035F802460B462046294610F083F80246C7
:103BA0000B4614461D46FB6893ED007AFB68D3ED87
:103BB000027A27EE277AFB68D3ED057A67EE277A3B
:103BC00017EE900A10F01AF880468946FB689B6849
:103BD000184610F013F882468B46FB68D3ED057A41
:103BE000B3EE047A67EE877A17EE900A10F006F8C3
:103BF00002460B46104619464FF00002424B10F0A9
:103C00007BF902460B46504659460FF099FE024694
:103C10000B464046494610F06FF902460B46904667
:103C20009946FB6893ED047AFB68D3ED0A7AD7EDE9
:103C3000016A76EEE77A27EE277AFB68D3ED097AF8
:103C4000D7ED026A76EEE77A77EE677A17EE900A9A
:103C50000FF0D4FF02460B464046494610F022F8CA
:103C600002460B46204629460FF06AFE02460B46E6
:103C70001046194610F0D8FA0246FB681A62FB6833
:103C800093ED067AFB68D3ED077A37EE277AFB6867
:103C9000D3ED087A37EE277AFB68D3ED0E7A37EE4C
:103CA000277AFB68D3ED0D7A67EE277AC7ED057AA0
:103CB000FB6893ED0C7AD7ED057AB4EEE77AF1EE76
:103CC00010FA03DDFB681B6B7B610CE0FB6893ED76
:103CD0000B7AD7ED057AB4EEE77AF1EE10FA02D559
:103CE000FB68DB6A7B61FB68BA685A62FB687A68CA
:103CF0009A627B6907EE903AB0EE670A1837BD46C4
:103D0000BDE8B08FAFF3008000408F40FCA9F1D236
:103D10004D62503FAFF3008080B500AF00F00CFE65
:103D200000F000FF0346002B01D1002307E000F064
:103D3000D7FF0346002B01D1002300E001231846E2
:103D400080BD00BF80B586B004AF03463960FB80FC
:103D5000FB88152B03D8134B16221A8002E0114A58
:103D6000FB8813803B689AB20F4B1A8001230093A3
:103D70000E4B019300230293002303930C480D493B
:103D80004FF4807200230EF00FF80346012B03D08E
:103D9000FCF7B0FA002300E0012318460837BD46BF
:103DA00080BD00BFB80F0020BA0F0020B40F002064
:103DB00025560008C482010880B483B000AF0346D2
:103DC000FB71044AFB7913700C37BD465DF8047B28
:103DD000704700BFBC0F002080B500AF084B1B68C8
:103DE000002B09D0064B1B6818460EF091F8044BC7
:103DF00000221A60012300E00023184680BD00BFA6
:103E0000B40F002080B500AF0348044900F0F8FD6E
:103E10000346184680BD00BF280D0020880D0020F5
:103E200080B500AF0348044900F0EAFD0346184698
:103E300080BD00BF380D00208E0D002080B500AF82
:103E40000348044900F0DCFD0346184680BD00BF6E
:103E5000480D0020940D002080B500AF03480449B0
:103E600000F0CEFD0346184680BD00BF580D00206F
:103E70009A0D002080B500AF0348044900F0C0FD52
:103E80000346184680BD00BF680D0020A00D00202D
:103E900080B500AF0348044900F0B2FD0346184660
:103EA00080BD00BF780D0020A60D002080B500AFBA
:103EB000FFF7E0FF03461A4646F264639A4209DDC3
:103EC000FFF7E6FF03461A4646F264639A4201DDB5
:103ED000012300E00023184680BD00BF80B500AF7D
:103EE000FFF7C8FF03461A4646F264639A4208DDAC
:103EF000FFF7CEFF03461A46034B9A4201DA01232D
:103F000000E00023184680BD9B99FFFF2DE9F04F8C
:103F1000D5B006AF0246FB1D1A70FB1D1B78002BA7
:103F200066D107F1900318468F49A02211F0F0F8EE
:103F300000F006FB0346002B0FD007F19003184654
:103F400011F0B0F80346C3F19F0307F19002104649
:103F500086491A4611F0AEF80EE007F190031846B4
:103F600011F0A0F80346C3F19F0307F19002104639
:103F70007F491A4611F09EF807F19003184611F098
:103F800091F8024607F190039D1807F19003184637
:103F900011F088F80346C3F19F04FFF733FF03468F
:103FA0009B46FFF73DFF03469A46FFF747FF034650
:103FB0009946FFF751FF03469846FFF75BFF03461C
:103FC0001E46FFF765FF0346CDF800A0CDF804902C
:103FD000CDF808800396049328462146654A5B463F
:103FE00011F00AF807F19003184604F075F9B6E0ED
:103FF000FB1D1B78012B40F0B28007F10803012262
:104000001A7007F1080301221A7207F1080301224E
:104010001A7407F1080301221A7607F10803012236
:1040200083F8202007F10803012283F82820FFF7F6
:10403000E9FE03461A4607F108035A60FFF7F0FE4F
:1040400003461A4607F10803DA60FFF7F7FE034656
:104050001A4607F108035A61FFF7FEFE03461A46A7
:1040600007F10803DA61FFF705FF03461A4607F177
:1040700008035A62FFF70CFF03461A4607F10803CC
:10408000DA6207F17C0207F1380310461946422232
:10409000FDF786FC07F17C0207F10803104636495C
:1040A0001A46FDF77DFF034687F83731D7F8883089
:1040B00007F1900200931046A021304A012310F02E
:1040C0009BFF07F19003184610F0ECFFC7F8300192
:1040D000D7F88820D7F83031D418294810F0E2FFFB
:1040E000034623449F2B1ED807F19002D7F83031A6
:1040F000D118D7F8883007F13802084611461A4619
:1041000010F0E6F8D7F88820D7F83031134407F1DB
:104110009002D4181A4810F0C5FF034620461849EB
:104120001A4610F0D5F897F83731002B15D0D7F88C
:1041300088309AB2D7F830319BB213449CB2104801
:1041400010F0B0FF03469BB223449BB207F19002EC
:104150001046194604F0D2F801E0FCF7CBF807F559
:104160009E77BD46BDE8F08FD4820108F882010831
:104170000483010810830108A495010858830108ED
:104180006083010880B500AF1C4B1B78DBB2012BAC
:104190002DD000F0D5F90346002B04D1184804F0C7
:1041A0009BF8002327E0174801F038F9164801F082
:1041B00035F9164801F032F9154801F02FF9154884
:1041C00001F02CF9144801F029F905F031FE0246FE
:1041D000124B1A60124B00221A70084B01221A70FF
:1041E00016204FF49661FFF7ADFD012303E00D4863
:1041F00004F072F80023184680BD00BFAC0D00200B
:1042000064830108B80D0020600E00200C0E002011
:10421000B40E0020080F00205C0F0020B00D00201D
:10422000B40D00208883010880B58AB000AF012357
:1042300087F82730002387F82630984B1B78DBB2AD
:10424000012B40F02381964BDB889BB2B3F57A7F3C
:1042500002D2002387F82730924BDB889BB2B3F55C
:104260007A7F02D2002387F827308F4BDB889BB2FE
:10427000B3F57A7F02D2002387F827308B4BDB8897
:104280009BB2B3F57A7F02D2002387F82730884BA0
:10429000DB889BB2B3F57A7F02D2002387F8273000
:1042A000844BDB889BB2B3F57A7F02D2002387F878
:1042B000273097F82730002B0CD197F8263083F061
:1042C0000103DBB2002B05D07B4804F005F8012385
:1042D00087F82630724B9B889BB2B3F5FA7F02D2E7
:1042E000002387F827306F4B9B889BB2B3F5FA7F8A
:1042F00002D2002387F827306B4B9B889BB2B3F523
:10430000FA7F02D2002387F82730684B9B889BB244
:10431000B3F5FA7F02D2002387F8273097F82730C9
:10432000002B0CD197F8263083F00103DBB2002B71
:1043300005D0624803F0D0FF012387F8263060489B
:104340001021FBF777FF03463B805E481021FBF707
:1043500071FF0346BB805C481021FBF76BFF0346EF
:10436000FB805A481021FBF765FF03467B815848C4
:104370001021FBF75FFF0346BB8156481021FBF776
:1043800059FF03463B8254481021FBF753FF034675
:104390007B8252481021FBF74DFF0346FB825048B9
:1043A0001021FBF747FF03463B834E481021FBF7E4
:1043B00041FF0346BB834C481021FBF73BFF0346FC
:1043C000FB834A481021FBF735FF03467B84344BBF
:1043D0001B68334A928892B2B3FBF2F39BB27B80A4
:1043E000304B1B682F4A928892B2B3FBF2F39BB218
:1043F0003B812D4B1B682C4A928892B2B3FBF2F39F
:104400009BB2FB81294B1B68284A928892B2B3FB6E
:10441000F2F39BB2BB8246F678133B8446F67813E0
:104420007B833B46184600F085FE0346002B0FD1E8
:1044300097F8263083F00103DBB2002B08D02C481C
:1044400003F04AFF002387F82730012387F826303E
:1044500097F82730012B11D13B461846FCF79AF903
:104460000346002B03D0234803F036FF02E0224826
:1044700003F032FF3B46184600F088FF074B00224E
:104480001A70FFF7A9FC97F8273003E01B4803F0E8
:1044900023FF002318462837BD4680BDAC0D002001
:1044A000B80D00200C0E0020600E0020B40E00207D
:1044B000080F00205C0F0020B4830108DC83010892
:1044C000C00D0020E40D0020140E0020380E002046
:1044D000680E00208C0E0020BC0E0020E00E002094
:1044E000100F0020340F0020640F0020880F0020E0
:1044F0001C840108B8840108DC84010808850108CF
:1045000080B58AB000AF3B1D184600F027FA3B1D6E
:104510001846FCF73FF90346002B03D0064803F08A
:10452000DBFE02E0054803F0D7FE3B1D184600F015
:104530002DFF2837BD4680BD2C8501085485010814
:1045400080B582B000AF164B1B889BB21548194648
:1045500000F0D4FD0346FB71114B1B889BB212483F
:10456000194600F0CBFD0346BB710D4B1B889BB277
:104570000E48194600F0C2FD03467B71FB79002B03
:1045800007D0BB79002B04D07B79002B01D001230D
:1045900000E00023DBB218460837BD4680BD00BFEF
:1045A000B00F0020380D0020480D0020580D0020CD
:1045B00080B400AF034B1B889BB21846BD465DF824
:1045C000047B7047880D002080B400AF034B5B88EC
:1045D0009BB21846BD465DF8047B7047880D0020ED
:1045E00080B400AF034B9B889BB21846BD465DF874
:1045F000047B7047880D002080B400AF034BDB883C
:104600009BB21846BD465DF8047B7047880D0020BC
:1046100080B400AF034B1B899BB21846BD465DF8C2
:10462000047B7047880D002080B400AF034B5B898A
:104630009BB21846BD465DF8047B7047880D00208C
:1046400080B400AF034B9B899BB21846BD465DF812
:10465000047B7047880D002080B400AF034BDB89DA
:104660009BB21846BD465DF8047B7047880D00205C
:1046700080B400AF034B1B8A9BB21846BD465DF861
:10468000047B7047880D002080B400AF034B5B8A29
:104690009BB21846BD465DF8047B7047880D00202C
:1046A00080B400AF034B9B8A9BB21846BD465DF8B1
:1046B000047B7047880D002080B400AF034BDB8A79
:1046C0009BB21846BD465DF8047B7047880D0020FC
:1046D00080B400AF034B1B8B9BB21846BD465DF800
:1046E000047B7047880D002080B400AF034B5B8BC8
:1046F0009BB21846BD465DF8047B7047880D0020CC
:1047000080B400AF034B9B8B9BB21846BD465DF84F
:10471000047B7047880D002080B400AF034BDB8B17
:104720009BB21846BD465DF8047B7047880D00209B
:1047300080B400AF034B1B8C9BB21846BD465DF89E
:10474000047B7047880D002080B400AF034B5B8C66
:104750009BB21846BD465DF8047B7047880D00206B
:1047600080B584B004AF094B1B889BB20022009235
:104770000193074B029307480749084A084B00F08A
:1047800043FB03461846BD4680BD00BFB00F002066
:10479000B80D002004570020C00C0020200D002080
:1047A000280D002080B584B004AF094B1B889BB254
:1047B000042200920193074B029307480749084AD5
:1047C000084B00F021FB03461846BD4680BD00BFE4
:1047D000B00F00200C0E002004570020D00C002049
:1047E000210D0020380D002080B584B004AF094BA6
:1047F0001B889BB2082200920193074B0293074843
:104800000749084A084B00F0FFFA03461846BD4620
:1048100080BD00BFB00F0020600E002004570020B4
:10482000E00C0020220D0020480D002080B584B04F
:1048300004AF094B1B889BB20C2200920193074BDB
:10484000029307480749084A084B00F0DDFA03467F
:104850001846BD4680BD00BFB00F0020B40E00203A
:1048600004570020F00C0020230D0020580D0020DC
:1048700080B584B004AF094B1B889BB20022009224
:104880000193074B029307480749084A084B00F079
:10489000BBFA03461846BD4680BD00BFB20F0020DC
:1048A000080F0020C8560020000D0020240D002015
:1048B000680D002080B584B004AF094B1B889BB203
:1048C000042200920193074B029307480749084AC4
:1048D000084B00F099FA03461846BD4680BD00BF5C
:1048E000B20F00205C0F0020C8560020100D0020E1
:1048F000250D0020780D002080B400AF054B1B88EB
:104900009BB201339AB2034B1A80BD465DF8047B1B
:10491000704700BFB00F002080B400AF054B1B886C
:104920009BB201339AB2034B1A80BD465DF8047BFB
:10493000704700BFB20F002080B500AF064800F0FE
:10494000D7F80346002B04D1034800F007F80023F2
:1049500000E00123184680BD880D002080B483B09C
:1049600000AF78607B684FF407421A807B6846F698
:1049700078125A807B6844F6F0329A807B684FF454
:104980000742DA807B6846F678121A817B6844F623
:10499000F0325A817B684FF407429A817B6846F671
:1049A0007812DA817B6844F6F0321A827B684FF421
:1049B00007425A827B6846F678129A827B6844F6F0
:1049C000F032DA827B684FF407421A837B6846F63E
:1049D00078125A837B6844F6F0329A837B684FF4EE
:1049E0000742DA837B6846F678121A847B6844F6BD
:1049F000F0325A840C37BD465DF8047B704700BF27
:104A000080B483B000AF786039607B689B899AB2CC
:104A10003B689B889BB29A4202D24FF400435FE00E
:104A20007B689B899AB23B681B889BB29A4202D9E9
:104A300047F6FF7354E03B681B889AB23B689B883B
:104A40009BB29A424BD93B681B889AB23B685B8801
:104A50009BB29A4243D93B689B889AB23B685B8879
:104A60009BB29A423BD27B689B899AB23B685B8837
:104A70009BB29A421BD27B689B899BB21A463B68C9
:104A80009B889BB2D31A1A461346DB039B1A3A68DB
:104A9000528892B211463A68928892B28A1AB3FB4F
:104AA000F2F39BB2A3F500439BB29BB218E07B6884
:104AB0009B899BB21A463B685B889BB2D31A1A4605
:104AC0001346DB039B1A3A68128892B211463A6881
:104AD000528892B28A1AB3FBF2F39BB200E0002331
:104AE0001BB218460C37BD465DF8047B704700BF0B
:104AF00080B582B000AF78607868FBF737FE034678
:104B0000002B01D1002308E0786800F013FB034676
:104B1000002B01D1002300E0012318460837BD46D1
:104B200080BD00BF80B582B000AF0123FB71654B33
:104B30004FF080421A60634B4FF6FF72DA60624BAF
:104B40001B68624AA2FB03231B0E013B5D4A5360B4
:104B50005C4B00221A615B4B00229A6059480BF0B3
:104B600081F80346002B03D00023FB71FBF7C2FB47
:104B7000544B002283F8392052480BF029F90346A0
:104B8000002B03D00023FB71FBF7B4FB504B00223A
:104B90009A604F4B0022DA604D4B00221A604C4B5A
:104BA00001225A6047484A4900220BF0A1FA034605
:104BB000002B03D00023FB71FBF79CFB454B00222D
:104BC0009A60444B0022DA60424B00221A60414B4B
:104BD00001225A603B483F4904220BF089FA034600
:104BE000002B03D00023FB71FBF784FB3A4B002220
:104BF0009A60394B0022DA60374B00221A60364B3C
:104C000001225A602F48344908220BF071FA0346FA
:104C1000002B03D00023FB71FBF76CFB2F4B002212
:104C20009A602E4B0022DA602C4B00221A602B4B2C
:104C300001225A60234829490C220BF059FA0346F5
:104C4000002B03D00023FB71FBF754FB1D48002110
:104C50000BF0E6F80346002B03D00023FB71FBF7B3
:104C600049FB184804210BF0DBF80346002B03D066
:104C70000023FB71FBF73EFB124808210BF0D0F834
:104C80000346002B03D00023FB71FBF733FB0D48D9
:104C90000C210BF0C5F80346002B03D00023FB7159
:104CA000FBF728FB07480BF005F80346002B03D061
:104CB0000023FB71FBF71EFBFB7918460837BD4646
:104CC00080BD00BF04570020D4010020B5FA9BEE40
:104CD000C00C0020D00C0020E00C0020F00C0020C4
:104CE00080B582B000AF0123FB71414B414A1A608D
:104CF0003F4B4FF6FF72DA603F4B1B683F4AA2FB07
:104D000003231B0E013B3A4A5360394B00221A61C0
:104D1000374B00229A6036480AF0A4FF0346002B66
:104D200003D00023FB71FBF7E5FA314B002283F837
:104D300039202F480BF04CF80346002B03D00023FA
:104D4000FB71FBF7D7FA2E4B00229A602C4B002206
:104D5000DA602B4B00221A60294B01225A6024484A
:104D6000274900220BF0C4F90346002B03D000238F
:104D7000FB71FBF7BFFA234B00229A60214B002204
:104D8000DA60204B00221A601E4B01225A6018483C
:104D90001C4904220BF0ACF90346002B03D000237E
:104DA000FB71FBF7A7FA124800210BF039F8034614
:104DB000002B03D00023FB71FBF79CFA0C48042165
:104DC0000BF02EF80346002B03D00023FB71FBF7FA
:104DD00091FA07480AF06EFF0346002B03D0002328
:104DE000FB71FBF787FAFB7918460837BD4680BD93
:104DF000C856002000040040D4010020B5FA9BEE04
:104E0000000D0020100D002080B58AB000AFF860C2
:104E1000B9607A603B60012387F827307B681B7894
:104E2000002B4FD1F868396B0BF0FEF9F8617B6805
:104E300001221A70BB6802221A603B689B889AB2F2
:104E40003B681A81FB699AB23B689A803B685B8930
:104E50009AB2BB8E9BB29A4217D23B689B889BB298
:104E600003F57F43FF333A68128992B2991ABB8ED9
:104E70009BB21A463B685B899BB2D31A5A1E1346F3
:104E80001B049B1A0B443B6208E03B689B889BB267
:104E90001A463B681B899BB2D31A3B623B6A374A6E
:104EA000934207D83B6A364A934203D93B683A6A31
:104EB0001A6002E0002387F82730BB8E9AB23B6865
:104EC0005A814FE07B681B78012B4BD1F868396B16
:104ED0000BF0AAF9B8617B6800221A70BB68002247
:104EE0001A60BB699AB23B68DA803B68DB889AB289
:104EF0003B689B889BB2D31AFB82FB8AB3F5224F97
:104F00002DD8FB8AB3F5735F29D3BB8E9BB21A46AB
:104F10003B685B899BB2D31A012B20DC3B68FA8A81
:104F20009A813B6801229A73164B1B78DBB2012BE6
:104F300014D104F07DFF0246134B1B6803F5921356
:104F400003F578639A4203D90E4B00221A7005E0EC
:104F5000FB8AB86B194600F019F803E002E0002361
:104F600087F82730F868B9683A6B00F0A3FA97F829
:104F7000273018462837BD4680BD00BF8097060001
:104F80003F7E0500AC0D0020B00D002080B485B040
:104F900000AF78600B467B807B6893F85030DBB2C3
:104FA000002B22D00023FB811CE07B685B8D9AB232
:104FB000F9897B68043133F811309BB29A420ED9DB
:104FC000FA897B68043233F812309AB27B685A85CA
:104FD0007B68FA891A857B68002283F85020FB8958
:104FE0000133FB81FB890F2BDFD97B685B8D9BB283
:104FF0007A889A4210D97B684FF6FF725A857B688F
:105000001B8D9BB21A467B680432798823F81210F4
:105010007B68012283F850207B6893F85130DBB223
:10502000002B27D00023FB8121E07B68B3F84E30B2
:105030009AB2FB89796814335B000B449B889BB25E
:105040009A4211D2FB897A6814335B0013449B881F
:105050009AB27B68A3F84E207B68FA89A3F84C20AB
:105060007B68002283F85120FB890133FB81FB8997
:105070000F2BDAD97B68B3F84E309BB27A889A420C
:1050800011D27B680022A3F84E207B68B3F84C3025
:105090009BB27A6814335B0013447A889A807B68E9
:1050A000012283F851207B8845F6EC62934217D9A0
:1050B0007B8847F20442934212D87B68DB889BB21C
:1050C000B3F5FA7F0CD27B681A687B881A447B6838
:1050D0001A607B689B889BB201339AB27B689A8086
:1050E0007B68DB889BB201339AB27B68DA8001234C
:1050F00018461437BD465DF8047B704780B485B010
:1051000000AF78600B467B807B887A68528992B2C8
:105110009B1AFB60FB68B3F5967F02D97B6800227F
:105120009A737B689B7BDBB218461437BD465DF8EB
:10513000047B704780B483B000AF78607B681B88C5
:105140009BB249F28042934206D87B681B889BB28F
:1051500044F25742934201D8002310E17B685B88F8
:105160009BB247F20442934206D87B685B889BB2AD
:1051700045F6EB62934201D8002300E17B689B88EF
:105180009BB245F28832934206D87B689B889BB2DB
:1051900044F25742934201D80023F0E07B68DB8859
:1051A0009BB249F28042934206D87B68DB889BB26F
:1051B00044F25742934201D80023E0E07B681B8908
:1051C0009BB247F20442934206D87B681B899BB28C
:1051D00045F6EB62934201D80023D0E07B685B89FF
:1051E0009BB245F28832934206D87B685B899BB2BA
:1051F00044F25742934201D80023C0E07B689B8968
:105200009BB249F28042934206D87B689B899BB24D
:1052100044F25742934201D80023B0E07B68DB8917
:105220009BB247F20442934206D87B68DB899BB26B
:1052300045F6EB62934201D80023A0E07B681B8A0D
:105240009BB245F28832934206D87B681B8A9BB298
:1052500044F25742934201D8002390E07B685B8A76
:105260009BB249F28042934206D87B685B8A9BB22C
:1052700044F25742934201D8002380E07B689B8A26
:105280009BB247F20442934206D87B689B8A9BB24A
:1052900045F6EB62934201D8002370E07B68DB8A1D
:1052A0009BB245F28832934206D87B68DB8A9BB278
:1052B00044F25742934201D8002360E07B681B8B85
:1052C0009BB249F28042934206D87B681B8B9BB20B
:1052D00044F25742934201D8002350E07B685B8B35
:1052E0009BB247F20442934206D87B685B8B9BB229
:1052F00045F6EB62934201D8002340E07B689B8B2C
:105300009BB245F28832934206D87B689B8B9BB256
:1053100044F25742934201D8002330E07B68DB8B94
:105320009BB249F28042934206D87B68DB8B9BB2EA
:1053300044F25742934201D8002320E07B681B8C43
:105340009BB247F20442934206D87B681B8C9BB207
:1053500045F6EB62934201D8002310E07B685B8C3A
:105360009BB245F28832934206D87B685B8C9BB235
:1053700044F25742934201D8002300E0012318462B
:105380000C37BD465DF8047B704700BF80B483B026
:1053900000AF78607B681B889AB21F4B1A807B68CD
:1053A0009B889AB21C4B9A807B68DB889AB21A4B16
:1053B000DA807B685B899AB2174B5A817B689B893C
:1053C0009AB2154B9A817B681B8A9AB2124B1A8249
:1053D0007B685B8A9AB2104B5A827B68DB8A9AB2EE
:1053E0000D4BDA827B681B8B9AB20B4B1A837B685E
:1053F0009B8B9AB2084B9A837B68DB8B9AB2064BE5
:10540000DA837B685B8C9AB2034B5A840C37BD46B7
:105410005DF8047B704700BF880D002080B485B024
:1054200000AF78607B680022DA807B68002283F816
:1054300050200023FB8109E0FA897B68043246F69C
:10544000781123F81210FB890133FB81FB890F2BA4
:10545000F2D97B6846F678125A857B6800221A8555
:105460007B68002283F851200023BB810AE0BB89BE
:105470007A6814335B00134446F678129A80BB892D
:105480000133BB81BB890F2BF1D97B6846F67812BB
:10549000A3F84E207B680022A3F84C207B680022F2
:1054A0009A807B6800221A601437BD465DF8047B41
:1054B000704700BF80B586B000AFF860B9607A6011
:1054C00000237B6100233B61FB68022283F83920C3
:1054D0007B68002B23D1FB681B68FA681268126A8C
:1054E00022F001021A62FB681B689B697B61FB6802
:1054F0001B681B6A3B613B6923F00A033B61BB6885
:105500001B6803F00A033A6913433B61FB681B689D
:105510007A699A61FB681B683A691A6273E07B6872
:10552000042B24D1FB681B68FA681268126A22F007
:1055300010021A62FB681B689B697B61FB681B6831
:105540001B6A3B613B6923F0A0033B61BB681B689E
:105550001B0103F0A0033A6913433B61FB681B681E
:105560007A699A61FB681B683A691A624BE07B684A
:10557000082B24D1FB681B68FA681268126A22F4AF
:1055800080721A62FB681B68DB697B61FB681B68C1
:105590001B6A3B613B6923F420633B61BB681B686A
:1055A0001B0203F420633A6913433B61FB681B68E9
:1055B0007A69DA61FB681B683A691A6223E0FB6862
:1055C0001B68FA681268126A22F480521A62FB6839
:1055D0001B68DB697B61FB681B681B6A3B613B697D
:1055E00023F420433B61BB681B681B0303F4204387
:1055F0003A6913433B61FB681B687A69DA61FB68AF
:105600001B683A691A62FB68012283F83920FB683B
:105610001B681846796801220BF04AFA1837BD4614
:1056200080BD00BF80B584B000AF78600CF0DCFDB9
:105630000346BB60BB68FB60294B1B78DBB2012BC8
:1056400002D1284802F048FE274B1B889BB21A461D
:1056500007F10803184611460CF0A0FC204B1B78FC
:10566000DBB2012B25D1214B1B78DBB283F0010388
:10567000DBB2002B1DD01E4B9B889BB2B3F5FA7F8B
:1056800017D31C4B9B889BB2B3F5FA7F11D31A4BEF
:105690009B889BB2B3F5FA7F0BD3184B9B889BB2C8
:1056A000B3F5FA7F05D3164802F016FE0F4B012220
:1056B0001A70144B1B781846FEF728FC0CF094FD6A
:1056C0000146114B1B889BB21A464FF47A7303FBB9
:1056D00002F2FB681344994201D3FEF77DFBB3E766
:1056E000AC0D002080850108B80F0020B40D00200B
:1056F000B80D00200C0E0020600E0020B40E00201B
:10570000B0850108BC0F0020BA0F0020B0B58AB0E8
:1057100000AF0D4B3C1D1D460FCD0FC40FCD0FC468
:105720002B6823603B1D0948032103220DF040FE36
:105730009FED070ADFED060A9FED051A00F00AF853
:105740002837BD46B0BD00BFEC850108405700209A
:105750000000000080B52DED028B8EB000AF87ED0C
:10576000030AC7ED020A87ED011A97ED020A0DF050
:10577000B1FEB0EE408A97ED010A0DF0ABFEF0EEFF
:10578000407A68EE277AC7ED057A97ED020A0DF0A8
:10579000A1FEB0EE408A97ED010A0DF0B3FFF0EEE6
:1057A000407A68EE277AC7ED067A97ED020A0DF087
:1057B000A9FFF0EE407AF1EE677AC7ED077A97ED30
:1057C000030A0DF087FEF0EE407AB1EE678A97ED9E
:1057D000010A0DF097FFF0EE407A28EE278A97ED48
:1057E000030A0DF08FFFF0EE408A97ED020A0DF0EC
:1057F00089FFF0EE407A68EEA78A97ED010A0DF076
:1058000069FEF0EE407A68EEA77A78EE277AC7ED67
:10581000087A97ED030A0DF05DFEB0EE408A97ED31
:10582000010A0DF057FEF0EE407A28EE278A97ED38
:10583000030A0DF067FFF0EE408A97ED020A0DF0C3
:1058400061FFF0EE407A68EEA78A97ED010A0DF04D
:1058500059FFF0EE407A68EEA77A78EE277AC7ED26
:10586000097A97ED030A0DF04DFFB0EE408A97EDEF
:10587000020A0DF02FFEF0EE407A68EE277AC7EDAF
:105880000A7A97ED030A0DF03DFFB0EE408A97EDDE
:10589000010A0DF037FFF0EE407A28EE278A97EDE7
:1058A000030A0DF017FEF0EE408A97ED020A0DF0A4
:1058B00029FFF0EE407A68EEA78A97ED010A0DF015
:1058C00009FEF0EE407A68EEA77A78EE277AC7ED07
:1058D0000B7A97ED030A0DF015FFF0EE407AB1EE6A
:1058E000678A97ED010A0DF0F5FDF0EE407A28EE9B
:1058F000278A97ED030A0DF0EDFDF0EE408A97ED53
:10590000020A0DF0FFFEF0EE407A68EEA78A97EDEE
:10591000010A0DF0F7FEF0EE407A68EEA77A78EE15
:10592000277AC7ED0C7A97ED030A0DF0D3FDB0EEA0
:10593000408A97ED020A0DF0CDFDF0EE407A68EE58
:10594000277AC7ED0D7A07F11403074803210322D4
:105950000DF02EFD044805490DF042FD3837BD46D7
:10596000BDEC028B80BD00BF48570020405700208F
:1059700080B400AF044B1B6807EE903AB0EE670AA4
:10598000BD465DF8047B70479857002080B400AF97
:10599000044B9B6807EE903AB0EE670ABD465DF88F
:1059A000047B70479857002080B400AF044B1B69FC
:1059B00007EE903AB0EE670ABD465DF8047B70478B
:1059C0009857002080B582B000AF0346FB80FB886B
:1059D000012B12D1144B1B78DBB20133DAB2124B1C
:1059E0001A70114B1B78DBB2072B1AD9042000F078
:1059F00001FB0D4B00221A7013E0FB88022B03D130
:105A00000A20FBF727FC0CE0FB88102B03D11A209F
:105A1000FBF720FC05E0FB88042B02D12A20FBF7D2
:105A200019FC0837BD4680BDD457002080B500AFB3
:105A3000FAF760FC80BD00BF80B500AF0F4B1B685C
:105A400001330E4A13600D4B1A680D4BA3FB021372
:105A50009B094FF47A7101FB03F3D31A002B02D197
:105A6000062000F0C7FA04F0D5F90CF0A9FF0346B0
:105A7000002B01D00BF05CFC80BD00BFC00F0020EC
:105A8000D34D621080B582B000AF78607B681B6830
:105A9000B3F1804F02D1FEF72FFF0EE07B681B6849
:105AA000074A934202D1FEF737FF06E07B681B6886
:105AB000044A934201D1FBF70DF90837BD4680BD7A
:105AC000000400400040014080B582B000AF786023
:105AD0007B681B68B3F1804F1BD17B681B7E012B59
