:020000040800F2
:100000002C0E002071020008351C0008411C00085D
:10001000491C0008511C0008591C00080000000081
:10002000000000000000000000000000611C00084B
:100030006D1C000800000000791C0008851C0008E9
:10004000D9020008D9020008D9020008D902000824
:10005000D9020008D9020008C51C0008D90200080E
:10006000D9020008D9020008D9020008D902000804
:10007000D9020008D9020008D9020008D9020008F4
:10008000D9020008D9020008D9020008D9020008E4
:10009000D9020008D9020008D9020008D9020008D4
:1000A000D9020008D9020008D9020008D9020008C4
:1000B000D9020008D9020008D9020008D9020008B4
:1000C000D9020008D9020008D9020008D9020008A4
:1000D000D9020008D9020008D9020008D902000894
:1000E000D9020008D9020008D9020008D902000884
:1000F000D9020008D9020008D9020008D902000874
:10010000D9020008D9020008D9020008D902000863
:10011000D9020008D9020008D9020008D902000853
:10012000D9020008D9020008D9020008D902000843
:10013000D9020008D9020008D9020008D902000833
:10014000D9020008D9020008D9020008D902000823
:10015000D9020008D9020008D9020008D902000813
:10016000D9020008D9020008D9020008D902000803
:10017000D9020008D9020008D9020008D9020008F3
:10018000D9020008D902000880B485B000AF034648
:100190003960FB8040F2D453C2F200031B685B8AD3
:1001A000FB60FB88002B0ED140F2D453C2F2000357
:1001B0001B683A689188FA6892B28A1A92B21A82D7
:1001C0004FF0000303E03B681A68FB68D318184639
:1001D00007F11407BD4680BC704700BF80B485B0EE
:1001E00000AF0346FB7140F24C03C2F200031B78E0
:1001F000BB604FF00003FB6021E0FB68DBB24FEA1D
:10020000830303F1804303F5B843FA68D2B24FEA9F
:10021000820202F1804202F5B842126892B211469F
:1002200040F60F720A4042F4004242F08002F96840
:10023000C9B20A431A60FB6803F10103FB60FA6864
:10024000BB689A42D9D345F64C43C4F20003FA790D
:1002500062F07F02D2B21A6007F11407BD4680BC7B
:10026000704700BF80B400AFBD4680BC704700BF80
:1002700080B582B000AF46F6A413C0F600037B60E1
:1002800040F20003C2F200033B600BE07B681A6897
:100290003B681A603B6803F104033B607B6803F131
:1002A00004037B603A6840F24453C2F200039A426E
:1002B000ECD3074807494FF000028842B8BF40F826
:1002C000042BFADB01F084FF07F10807BD4680BD6F
:1002D000440500203006002080B400AFFEE700BFD8
:1002E00080B48BB000AF78604FF000033B624FF0FA
:1002F0000003FB614FF00003BB614FF000037B6123
:100300004FF000033B614FF000037B624FF00003AE
:10031000FB604FF00003BB604FF48053C4F2020354
:100320005B6803F00C033B623B6A042B0AD0082B8A
:100330000FD0002B48D17A684FF49053C0F27A0363
:10034000136048E07A684FF49053C0F27A03136068
:1003500041E04FF48053C4F202035B6803F470136E
:10036000FB614FF48053C4F202035B6803F48033F3
:10037000BB61FB694FEA934303F10203FB61BB6975
:10038000002B08D1FA694FF41063C0F23D0303FB60
:1003900002F37B6214E04FF48053C4F20203DB6A81
:1003A00003F00F0303F101037B614FF49053C0F29C
:1003B0007A037A69B3FBF2F3FA6902FB03F37B6217
:1003C0007B687A6A1A6006E07A684FF49053C0F24C
:1003D0007A03136000BF4FF48053C4F202035B68DA
:1003E00003F0F0033B623B6A4FEA13133B6240F2B7
:1003F0000003C2F200033A6A9B181B78DBB2BB60B1
:100400007B681A68BB6822FA03F27B685A604FF473
:100410008053C4F202035B6803F4E0633B623B6A0F
:100420004FEA13233B6240F20003C2F200033A6A30
:100430009B181B78DBB23B617B685A683B6922FAE8
:1004400003F27B689A604FF48053C4F202035B6846
:1004500003F460533B623B6A4FEAD3233B6240F2B2
:100460000003C2F200033A6A9B181B78DBB2FB6000
:100470007B685A68FB6822FA03F27B68DA604FF403
:100480008053C4F20203DB6A03F4F8733B623B6AF5
:100490004FEA13133B6240F21003C2F200033A6AC0
:1004A00033F812309BB23B613B6903F01003002B21
:1004B00006D07A6A3B69B2FBF3F27B681A6103E00B
:1004C0007B681A687B681A614FF48053C4F2020398
:1004D000DB6A03F478533B623B6A4FEA53233B6287
:1004E00040F21003C2F200033A6A33F812309BB2B2
:1004F0003B613B6903F01003002B06D07A6A3B692D
:10050000B2FBF3F27B685A6103E07B681A687B6890
:100510005A614FF48053C4F202031B6B03F01003C3
:10052000002B06D17A684FF49053C0F27A0393619E
:1005300003E07B681A687B689A614FF48053C4F2C9
:1005400002031B6B03F02003002B06D17A684FF4E3
:100550009053C0F27A03D36103E07B681A687B682A
:10056000DA614FF48053C4F202031B6B03F480730F
:10057000002B0ED07B681A687B6A9A4209D1FA6810
:10058000BB689A4205D17B6A4FEA43027B681A62D4
:1005900003E07B68DA687B681A624FF48053C4F228
:1005A00002031B6B03F40073002B0ED07B681A68E8
:1005B0007B6A9A4209D1FA68BB689A4205D17B6A84
:1005C0004FEA43027B685A6203E07B68DA687B6823
:1005D0005A624FF48053C4F202031B6B03F003030F
:1005E000002B04D17B68DA687B689A622AE04FF4BA
:1005F0008053C4F202031B6B03F00303012B04D1ED
:100600007B681A687B689A621CE04FF48053C4F2DE
:1006100002031B6B03F00303022B04D17B684FF42E
:1006200000429A620EE04FF48053C4F202031B6B47
:1006300003F00303032B05D17A684FF49053C0F203
:100640007A0393624FF48053C4F202031B6B03F4EA
:100650004033002B04D17B689A687B68DA622DE016
:100660004FF48053C4F202031B6B03F44033B3F521
:10067000803F04D17B681A687B68DA621EE04FF421
:100680008053C4F202031B6B03F44033B3F5003F05
:1006900004D17B684FF40042DA620FE04FF48053DC
:1006A000C4F202031B6B03F44033B3F5403F05D1A2
:1006B0007A684FF49053C0F27A03D3624FF48053B8
:1006C000C4F202031B6B03F44023002B04D17B68AC
:1006D0009A687B681A632DE04FF48053C4F20203DA
:1006E0001B6B03F44023B3F5802F04D17B681A6899
:1006F0007B681A631EE04FF48053C4F202031B6B45
:1007000003F44023B3F5002F04D17B684FF400427B
:100710001A630FE04FF48053C4F202031B6B03F41F
:100720004023B3F5402F05D17A684FF49053C0F2BF
:100730007A0313634FF48053C4F202031B6B03F478
:100740004013002B04D17B689A687B685A632DE0C4
:100750004FF48053C4F202031B6B03F44013B3F550
:10076000801F04D17B681A687B685A631EE04FF4CF
:100770008053C4F202031B6B03F44013B3F5001F54
:1007800004D17B684FF400425A630FE04FF480536A
:10079000C4F202031B6B03F44013B3F5401F05D1F1
:1007A0007A684FF49053C0F27A0353634FF4805346
:1007B000C4F202031B6B03F44003002B04D17B68DB
:1007C0009A687B689A632DE04FF48053C4F2020369
:1007D0001B6B03F44003B3F5800F04D17B681A68E8
:1007E0007B689A631EE04FF48053C4F202031B6BD4
:1007F00003F44003B3F5000F04D17B684FF40042CB
:100800009A630FE04FF48053C4F202031B6B03F4AE
:100810004003B3F5400F05D17A684FF49053C0F20E
:100820007A03936307F12C07BD4680BC704700BF75
:1008300080B483B000AF78604FF0D803C4F2422395
:100840007A681A6007F10C07BD4680BC704700BF8C
:1008500080B483B000AF78600B46FB70FB78002B50
:100860000DD04FF48053C4F202034FF48052C4F20F
:100870000202526911467A680A435A610EE04FF447
:100880008053C4F202034FF48052C4F20202526950
:1008900011467A686FEA02020A405A6107F10C07B2
:1008A000BD4680BC704700BF80B483B000AF7860A5
:1008B0000B46FB70FB78002B0DD04FF48053C4F235
:1008C00002034FF48052C4F20202926911467A6820
:1008D0000A439A610EE04FF48053C4F202034FF4CE
:1008E0008052C4F20202926911467A686FEA0202EB
:1008F0000A409A6107F10C07BD4680BC704700BFF3
:1009000080B483B000AF78600B46FB70FB78002B9F
:100910000DD04FF48053C4F202034FF48052C4F25E
:100920000202D26911467A680A43DA610EE04FF496
:100930008053C4F202034FF48052C4F20202D2691F
:1009400011467A686FEA02020A40DA6107F10C0781
:10095000BD4680BC704700BF80B483B000AF7860F4
:100960000B46FB70FB78002B0DD04FF48053C4F284
:1009700002034FF48052C4F20202D26811467A6830
:100980000A43DA600EE04FF48053C4F202034FF4DE
:100990008052C4F20202D26811467A686FEA0202FB
:1009A0000A40DA6007F10C07BD4680BC704700BF03
:1009B00080B483B000AF78600B46FB70FB78002BEF
:1009C0000DD04FF48053C4F202034FF48052C4F2AE
:1009D0000202126911467A680A431A610EE04FF466
:1009E0008053C4F202034FF48052C4F2020212692F
:1009F00011467A686FEA02020A401A6107F10C0791
:100A0000BD4680BC704700BF80B584B000AF786041
:100A10004FF00003FB734FF00003BB7300F004FBC7
:100A20007B681A787B685B781343DAB27B689B78C3
:100A30001343DAB2FB7B1343DBB2FB737B681A7997
:100A40007B685B791343DAB27B689B791343DAB234
:100A50007B68DB781343DAB2BB7B1343DBB2BB7337
:100A600007F10F034FF032004FF020011A4600F05B
:100A700085F807F10E034FF032004FF023011A46BC
:100A800000F07CF807F11007BD4680BD80B584B04A
:100A900000AF786007F10F034FF032004FF02101F3
:100AA0001A464FF0010300F089F9FB7B03F00C03B9
:100AB000DBB2FB737B681A787B685B781343DAB22E
:100AC0007B689B781343DAB27B68DB781343DAB236
:100AD000FB7B1343DBB2FB7307F10F034FF03200D4
:100AE0004FF021011A4600F049F807F11007BD4602
:100AF00080BD00BF80B584B000AF78604FF00003C8
:100B0000FB734FF00003BB734FF000037B7300F0E7
:100B10008BFA7B681A787B685B781343DAB2FB7BCD
:100B20001343DBB2FB737B68DA78BB7B1343DBB226
:100B3000BB737B689A787B7B1343DBB27B7307F1D3
:100B40000F034FF03C004FF000011A4600F016F87A
:100B500007F10E034FF03C004FF001011A4600F080
:100B60000DF807F10D034FF03C004FF002011A465B
:100B700000F004F807F11007BD4680BD80B584B0D1
:100B800002AF0B463A600246FA71BB7140F22C0389
:100B9000C2F200034FF420421A6017E040F22C0327
:100BA000C2F200031B68002B14BF00220122D2B244
:100BB00003F1FF3140F22C03C2F200031960002A56
:100BC00004D003F019F803469BB2F1E04FF4A840BB
:100BD000C4F200004FF4004103F0EEFB0346002B8B
:100BE000DCD1FB799BB24FF4005200924FF4A84045
:100BF000C4F2000019464FF001024FF0807303F079
:100C00008FFB40F22C03C2F200034FF420421A6023
:100C100017E040F22C03C2F200031B68002B14BF44
:100C200000220122D2B203F1FF3140F22C03C2F2C2
:100C300000031960002A04D002F0DEFF03469BB2D5
:100C4000B6E04FF4A840C4F200004FF0020103F0F8
:100C5000B3FB0346002BDCD0BB794FF4A840C4F2B1
:100C60000000194603F08CFB40F22C03C2F2000393
:100C70004FF420421A6017E040F22C03C2F2000346
:100C80001B68002B14BF00220122D2B203F1FF31F6
:100C900040F22C03C2F200031960002A04D002F0D3
:100CA000ABFF03469BB283E04FF4A840C4F20000C0
:100CB0004FF0800103F080FB0346002BDCD0FB7972
:100CC0009BB24FF0000200924FF4A840C4F2000023
:100CD00019464FF001024FF0007303F021FB40F280
:100CE0002C03C2F200034FF420421A6017E040F2D6
:100CF0002C03C2F200031B68002B14BF0022012248
:100D0000D2B203F1FF3140F22C03C2F200031960AA
:100D1000002A04D002F070FF03469BB248E04FF473
:100D2000A840C4F200004FF0020103F045FB034667
:100D3000002BDCD03B681B784FF4A840C4F20000C5
:100D4000194603F01DFB40F22C03C2F200034FF4DE
:100D500020421A6017E040F22C03C2F200031B6825
:100D6000002B14BF00220122D2B203F1FF3140F266
:100D70002C03C2F200031960002A04D002F03CFFE9
:100D800003469BB214E04FF4A840C4F200004FF0B9
:100D9000200103F011FB0346002BDCD04FF4A840E8
:100DA000C4F200004FF0200103F02AFB4FF00003D3
:100DB000184607F10807BD4680BD00BF80B584B066
:100DC00002AF3A600246FA710A46BA71BB8040F23D
:100DD0002C03C2F200034FF420421A6017E040F2E5
:100DE0002C03C2F200031B68002B14BF0022012257
:100DF000D2B203F1FF3140F22C03C2F200031960BA
:100E0000002A04D002F0F8FE03469BB206E14FF43C
:100E1000A840C4F200004FF4004103F0CDFA0346AD
:100E2000002BDCD1FB799BB24FF4005200924FF4BF
:100E3000A840C4F2000019464FF001024FF0000331
:100E400003F06EFA40F22C03C2F200034FF420428A
:100E50001A6017E040F22C03C2F200031B68002B5B
:100E600014BF00220122D2B203F1FF3140F22C0361
:100E7000C2F200031960002A04D002F0BDFE03464E
:100E80009BB2CBE04FF4A840C4F200004FF0020147
:100E900003F092FA0346002BDCD0BB88012B03D968
:100EA000BB7963F07F03BB71BB794FF4A840C4F2F8
:100EB0000000194603F064FA40F22C03C2F200036A
:100EC0004FF420421A6017E040F22C03C2F20003F4
:100ED0001B68002B14BF00220122D2B203F1FF31A4
:100EE00040F22C03C2F200031960002A04D002F081
:100EF00083FE03469BB291E04FF4A840C4F2000089
:100F00004FF0400103F058FA0346002BDCD0FB7988
:100F10009AB2BB88DBB24FF4105100914FF4A84055
:100F2000C4F2000011461A464FF0007303F0F8F9BE
:100F30003CE040F22C03C2F200034FF420421A605E
:100F400017E040F22C03C2F200031B68002B14BF11
:100F500000220122D2B203F1FF3140F22C03C2F28F
:100F600000031960002A04D002F046FE03469BB23B
:100F700054E04FF4A840C4F200004FF0040103F025
:100F80001BFA0346002BDCD04FF4A840C4F200004B
:100F900003F004FA03461A463B681A703B6803F1F3
:100FA00001033B60BB8803F1FF33BB80BB88002B90
:100FB000BFD140F22C03C2F200034FF420421A606A
:100FC00017E040F22C03C2F200031B68002B14BF91
:100FD00000220122D2B203F1FF3140F22C03C2F20F
:100FE00000031960002A04D002F006FE03469BB2FB
:100FF00014E04FF4A840C4F200004FF0200103F0C9
:10100000DBF90346002BDCD04FF4A840C4F200000B
:101010004FF0200103F0F4F94FF00003184607F1F8
:101020000807BD4680BD00BF80B58CB000AF4FF44F
:1010300000104FF00101FFF763FC4FF480204FF0E8
:101040000101FFF705FC4FF400104FF00101FFF71D
:10105000FFFB4FF400104FF00101FFF7F9FB4FF4D5
:1010600000104FF00101FFF7F3FB4FF48060C4F66E
:1010700000004FF006014FF0040200F083FF4FF430
:101080008060C4F600004FF007014FF0040200F04A
:1010900079FF4FF0020387F82C304FF0000387F8F8
:1010A0002E304FF0020387F82F304FF0030387F8FC
:1010B0002D304FF04003BB6207F128034FF48060EE
:1010C000C4F60000194600F073FE4FF08003BB62C7
:1010D00007F128034FF48060C4F60000194600F0C1
:1010E00067FE4FF0000387F82C304FF0000387F8BD
:1010F0002E304FF0000387F82F304FF0030387F8AE
:101100002D304FF00403BB6207F128034FF48050E9
:10111000C4F60000194600F04BFE4FF004004FF0FB
:10112000020103F07FFC4FF002033B624FF000032B
:1011300087F824304FF0080387F825304FF001037B
:1011400087F8263007F12003184602F065FD4FF0BE
:1011500000033B614FF00003BB604FF00003FB60F6
:101160004FF000037B614FF00003BB614FF00003C1
:10117000FB6142F22503C0F290037B6007F1040398
:101180004FF4A840C4F20000194603F043F84FF4AE
:10119000A840C4F200004FF0010103F0A5F84FF0A1
:1011A0001003BB624FF0000387F82C304FF00003B0
:1011B00087F82E304FF0030387F82D304FF00003EF
:1011C00087F82F3007F128034FF48050C4F6000051
:1011D000194600F0EDFD4FF02003BB6207F1280334
:1011E0004FF48050C4F60000194600F0E1FD07F10D
:1011F0003007BD4680BD00BF80B483B000AF03465A
:10120000FB8045F65043C4F20003F9884FF6F872AC
:101210000A401A6007F10C07BD4680BC704700BF4A
:1012200080B483B000AF02460B46FA71BB80FB79F5
:101230004FEA830303F1804303F5B843FA794FEA99
:10124000820202F1804202F5B842126892B222F4A0
:10125000EC4222F0700291B2BA880A4392B292B282
:101260001A6007F10C07BD4680BC704790B482B08D
:1012700000AF02460B46FA71BB80FB794FEA83034D
:1012800003F1804303F5B8431B689BB223F4E043AA
:1012900023F040039CB2BB8803F010039BB2002BE9
:1012A00002D084F010039CB2BB8803F020039BB2F1
:1012B000002B02D084F020039CB2FB794FEA830319
:1012C00003F1804202F5B84248F28003CFF6FF7383
:1012D00023439BB2136007F10807BD4690BC7047DB
:1012E00090B482B000AF02460B46FA71BB80FB7926
:1012F0004FEA830303F1804303F5B8431B689BB2B5
:1013000023F4804323F070039CB2BB8803F4805322
:101310009BB2002B02D084F480539CB2BB8803F4B0
:1013200000539BB2002B02D084F400539CB2FB7993
:101330004FEA830303F1804202F5B84248F280038A
:10134000CFF6FF7323439BB2136007F10807BD4636
:1013500090BC704790B482B000AF0346FB71FB793C
:101360004FEA830303F1804303F5B8431B689BB244
:1013700023F4804323F070039CB284F480539CB226
:1013800084F400539CB2FB794FEA830303F180425B
:1013900002F5B84248F28003CFF6FF7323439BB2B5
:1013A000136007F10807BD4690BC704780B483B056
:1013B00000AF0346FB71FB794FEA830303F18042E0
:1013C00002F5B842FB794FEA830303F1804303F54A
:1013D000B8431B689BB223F4F8734FEA03534FEAF8
:1013E00013539BB243F07F4343F47F0343F4004322
:1013F00043F080039BB29BB2136007F10C07BD461C
:1014000080BC704780B483B000AF02460B46FA71CF
:10141000BB8045F65043C4F200031B689BB21A46DA
:10142000FB794FEAC303D31803F1005303F540538C
:101430004FEA4303BA884FEA520292B24FEA42029D
:101440001A6007F10C07BD4680BC704780B483B0BA
:1014500000AF02460B46FA71BB8045F65043C4F21A
:1014600000031B689BB21A46FB794FEAC303D218EC
:1014700043F20403C2F20003D3184FEA4303BA88CD
:101480004FEA520292B24FEA42021A6007F10C0789
:10149000BD4680BC704700BF80B483B000AF024639
:1014A0000B46FA71BB8045F65043C4F200031B683B
:1014B0009BB21A46FB794FEAC303D21843F20203E8
:1014C000C2F20003D3184FEA4303BA881A6007F147
:1014D0000C07BD4680BC704780B485B000AF0246A3
:1014E0000B46FA71BB8045F65043C4F200031B68FB
:1014F0009BB21A46FB794FEAC303D21843F20603A4
:10150000C2F20003D3184FEA4303BB60BB883E2BF3
:1015100015D9BB884FEA5313FB81BB8803F01F0327
:10152000002B03D1FB8903F1FF33FB81FB894FEAD9
:10153000832343F400431A46BB681A6013E0BB8858
:101540004FEA5303FB81BB8803F00103DBB2002B9E
:1015500003D0FB8903F10103FB81FB894FEA83235D
:101560001A46BB681A6007F11407BD4680BC704775
:1015700080B582B000AF4FF080504FF00101FFF70F
:10158000BFF94FF001004FF00101FFF78DF94FF463
:1015900000104FF00101FFF75BF94FF400304FF0FE
:1015A0000101FFF755F94FF4C0533B604FF00303BF
:1015B0007B714FF002033B714FF00003BB714FF0A2
:1015C0000003FB713B464FF09040194600F0F0FBE2
:1015D0004FF090404FF00B014FF00E0200F0D2FCA4
:1015E0004FF090404FF00C014FF00E0200F0CAFC9B
:1015F0004FF000004FF0010103F0FCFA4FF0120031
:1016000002F092FC40F29C53C2F200034FF012022F
:101610001A6040F29C53C2F200034FF000021A71AC
:1016200040F29C53C2F200034FF008025A7140F29C
:101630009C53C2F200034FF001029A7140F29C5099
:10164000C2F2000002F0E8FA4FF0000002F06CFC79
:1016500007F10807BD4680BD80B500AF4FF0000020
:10166000FFF7E6F84FF400004FF00101FFF748F9EB
:1016700080BD00BF80B582B000AF4FF4A06002F023
:10168000EDFE4FF014033B714FF002037B714FF0FE
:101690000003BB714FF00103FB7107F1040318460F
:1016A00002F0F0FE4FF02A033B714FF001037B7113
:1016B0004FF00103FB7107F10403184602F0E2FE4C
:1016C0004FF006033B714FF000037B7107F10403F9
:1016D000184602F0D7FE07F10807BD4680BD00BFDF
:1016E00080B582B000AF0346FB71FB79002B08D0B8
:1016F0004FF48050C4F600004FF4804100F034FCF9
:1017000007E04FF48050C4F600004FF4804100F031
:101710001DFC07F10807BD4680BD00BF80B584B041
:1017200000AF4FF2E873C1F6FF731B68FB604FF226
:10173000EC73C1F6FF731B68BB604FF2F073C1F628
:10174000FF731B687B60FA687B68D318FB60FB68DB
:10175000002B0BD0F86807494FF0080200F00EF894
:10176000B86805494FF0040200F008F807F11007C7
:10177000BD4680BD320000204200002080B487B00A
:1017800000AFF860B9601346FB714FF00003FB75C2
:101790004FF00003FB7531E0FB684FEA1373092B30
:1017A0000DD8FB7D4FEA4303BA68D318FA684FEAB5
:1017B0001272D2B202F13002D2B21A700CE0FB7D8A
:1017C0004FEA4303BA68D318FA684FEA1272D2B2EA
:1017D00002F13702D2B21A70FB684FEA0313FB60C2
:1017E000FB7D4FEA430303F10103BA68D3184FF0BE
:1017F00000021A70FB7D03F10103FB75FA7DFB7992
:101800009A42C9D307F11C07BD4680BC704700BF90
:1018100080B500AFFFF782FF40F2D453C2F200035D
:101820001B684FF000029A7200F002FC02F0F6FD15
:1018300040F24853C2F200034FF000021A6080BD2C
:1018400080B500AF40F2D453C2F200031B684FF0E2
:1018500000029A7240F2D453C2F200031B684FF0A8
:101860000002DA7240F2D453C2F200031A6846F65C
:101870006C03C0F60003DB7953724FF00000FFF7F2
:10188000BBFC4FF000004FF40071FFF7C9FC4FF0B4
:1018900000004FF01001FFF7E9FC4FF000004FF09F
:1018A0001801FFF7D3FD4FF000004FF05801FFF78C
:1018B000A9FD4FF00000FFF779FD40F25003C2F29E
:1018C000000393F82C304FF000001946FFF704FE98
:1018D0004FF00000FFF73EFD4FF001004FF4C061F4
:1018E000FFF79EFC4FF001004FF48071FFF78AFD77
:1018F0004FF001004FF00401FFF7CEFD4FF0010063
:101900004FF00001FFF7ECFC4FF001004FF0200119
:10191000FFF7ACFC4FF00000FEF760FC40F24853CC
:10192000C2F200034FF001021A6080BD80B483B0A0
:1019300000AF40F2B453C2F200037B607B689B7A35
:10194000002B06D040F24853C2F200034FF00502CC
:101950001A6007F10C07BD4680BC704780B400AF29
:1019600040F24853C2F200034FF004021A60BD4631
:1019700080BC704780B400AFBD4680BC704700BFDC
:1019800080B400AFBD4680BC704700BF80B584B056
:1019900000AF0346FB714FF00003FB60FB79062BA1
:1019A0002DD140F2D453C2F200031B681B7803F020
:1019B0007F03012B23D140F2D453C2F200031B68F2
:1019C0005B79002B1BD140F2D453C2F200031B6899
:1019D0009B78222B05D141F64133C0F60003FB6012
:1019E00020E040F2D453C2F200031B689B78212B05
:1019F00018D141F66933C0F60003FB6012E040F2F3
:101A0000D453C2F200031B681B7803F07F03212B21
:101A100009D1FB79032B06D141F6F933C0F6000357
:101A2000FB6000E000BFFB68002B02D14FF0020317
:101A300014E040F2D453C2F200031B68FA689A61C2
:101A400040F2D453C2F200031B684FF000025A82E6
:101A5000FB684FF0000098474FF00003184607F16D
:101A60001007BD4680BD00BF80B582B000AF034601
:101A7000FB7140F2D453C2F200031B681B7803F0E1
:101A80007F03212B06D1FB790B2B03D100F09CF8AF
:101A9000034601E04FF00203184607F10807BD4670
:101AA00080BD00BF80B582B000AF0346FB80FB88DD
:101AB000184640F2A401C2F20001FEF765FB03469E
:101AC000184607F10807BD4680BD00BF80B582B04B
:101AD00000AF0346FB80FB88184640F2AC01C2F21F
:101AE0000001FEF751FB0346184607F10807BD4603
:101AF00080BD00BF80B584B000AF0346FB8040F2DC
:101B0000D453C2F200031B68DB78FB73FB7B042B0E
:101B100002D94FF000030DE0FB7B4FEAC30240F215
:101B2000C403C2F20003D318FA8810461946FEF720
:101B30002BFB0346184607F11007BD4680BD00BFCA
:101B400080B582B000AF0346FB80FB88184640F2A8
:101B5000B401C2F20001FEF717FB0346184607F175
:101B60000807BD4680BD00BF80B582B000AF034608
:101B7000FB80FB88184640F2BC01C2F20001FEF770
:101B800003FB0346184607F10807BD4680BD00BFAA
:101B900080B483B000AF02460B46FA71BB71BB79CB
:101BA000002B02D04FF0020307E0FB79002B02D09C
:101BB0004FF0020301E04FF00003184607F10C0755
:101BC000BD4680BC704700BF80B483B000AF40F218
:101BD000D453C2F200031B68DB78FB71FA7940F240
:101BE000A453C2F200031A604FF00003184607F135
:101BF0000C07BD4680BC704780B483B000AF03467D
:101C0000FB80FB88002B0AD140F2D453C2F20003C0
:101C10001B684FF001021A824FF0000303E040F20C
:101C2000A453C2F20003184607F10C07BD4680BC5E
:101C3000704700BF80B400AFBD4680BC704700BF96
:101C400080B400AFFEE700BF80B400AFFEE700BF86
:101C500080B400AFFEE700BF80B400AFFEE700BF76
:101C600080B400AFBD4680BC704700BF80B400AFF9
:101C7000BD4680BC704700BF80B400AFBD4680BC8D
:101C8000704700BF80B500AF01F09EFF40F2E8034F
:101C9000C2F200031B6803F1FF3240F2E803C2F214
:101CA00000031A6040F27D53C2F200031B78DBB2DE
:101CB00003F10103DAB240F27D53C2F200031A705D
:101CC00080BD00BF80B500AF4FF0000002F0E8F823
:101CD0000346012B6AD14FF0000003F001F80346E0
:101CE000002B63D040F24453C2F200034FF00002D5
:101CF0001A600BE040F24453C2F200031B6803F188
:101D0000010240F24453C2F200031A6040F244530D
:101D1000C2F200031A684FF6FE73C0F207039A423C
:101D2000E8D900BF4FF0000002F0DAFF0346002BB5
:101D3000F8D140F24453C2F200034FF000021A609F
:101D40000BE040F24453C2F200031B6803F10102AE
:101D500040F24453C2F200031A6040F24453C2F20C
:101D600000031A684FF6FE73C0F207039A42E8D9DF
:101D700040F25053C2F200031B6803F1010240F22B
:101D80005053C2F200031A6040F25053C2F20003F3
:101D90001B68022B06D940F25053C2F200034FF0E9
:101DA00000021A604FF0000002F0BEF880BD00BFD4
:101DB00080B487B000AF786039604FF000037B617A
:101DC0004FF000033B614FF00003FB604FF0000356
:101DD0007B6192E07B694FF0010202FA03F33B6101
:101DE0003B681A683B691340FB60FA683B699A429A
:101DF0007FD13B681B79012B03D03B681B79022BF9
:101E00003CD17B689B681A467B694FEA43034FF0DD
:101E1000030101FA03F36FEA03031A407B689A6037
:101E20007B689B681A463B685B7919467B694FEA79
:101E3000430301FA03F31A437B689A607B689B882B
:101E40009AB27B699BB24FF0010101FA03F39BB296
:101E50006FEA03039BB213409AB27B689A807B6857
:101E60009B889AB23B689B7919467B699BB201FAC1
:101E700003F39BB213439AB27B689A807B681B681A
:101E80001A467B694FEA43034FF0030101FA03F35B
:101E90006FEA03031A407B681A607B681B681A4666
:101EA0003B681B7919467B694FEA430301FA03F348
:101EB0001A437B681A607B68DB681A467B699BB2B1
:101EC0004FEA43034FF0030101FA03F36FEA030300
:101ED0001A407B68DA607B68DB681A463B68DB790E
:101EE00019467B694FEA430301FA03F31A437B68FF
:101EF000DA607B6903F101037B617B690F2B7FF65D
:101F000069AF07F11C07BD4680BC704780B485B03F
:101F100000AF78600B467B804FF00003FB737B685B
:101F20001B8A9AB27B8813409BB2002B03D04FF0E0
:101F30000103FB7302E04FF00003FB73FB7B1846C9
:101F400007F11407BD4680BC704700BF80B483B062
:101F500000AF78600B467B807A887B689A6107F1D6
:101F60000C07BD4680BC704780B483B000AF78607A
:101F70000B467B807B687A881A8507F10C07BD4683
:101F800080BC704780B485B000AF786013460A46C5
:101F90007A807B704FF00003FB604FF00003BB6062
:101FA0007A787B8803F007034FEA830302FA03F38E
:101FB000FB607B884FEAD3039BB21A467B884FEACB
:101FC000D3039BB219467B6801F1080153F8213015
:101FD00019467B8803F007034FEA83034FF00F0095
:101FE00000FA03F36FEA030319407B6802F1080269
:101FF00043F822107B884FEAD3039BB21A467B68D2
:1020000002F1080253F822301A46FB681343BB6002
:102010007B884FEAD3039BB21A467B6802F1080221
:10202000B96843F8221007F11407BD4680BC704719
:1020300080B582B000AF4FF00100FFF751FB4FF0C9
:102040000103FB8045F64043C4F20003FA881A609E
:1020500040F2D853C2F200034FF000021A8045F656
:102060004043C4F2000340F2D852C2F20002128888
:102070001A6045F64443C4F200034FF000021A60B0
:1020800040F2D853C2F200034FF4E0521A8045F6F2
:102090004043C4F2000340F2D852C2F20002128858
:1020A0001A604FF00003184607F10807BD4680BDCF
:1020B00080B500AF40F2D453C2F2000340F2B452F4
:1020C000C2F200021A6040F2D453C2F200031B684D
:1020D0004FF002021A7240F2AC53C2F2000340F217
:1020E0005002C2F200021A6040F2D053C2F2000362
:1020F00040F28002C2F200021A6040F2AC53C2F217
:1021000000031B681B68984780BD00BF80B483B084
:1021100000AF03463960FB7197F90730002B10DAE6
:102120004FF46D43CEF20003FA7902F00F02A2F1F0
:1021300004013A68D2B24FEA0212D2B25B181A76A0
:102140000DE04FF46143CEF2000397F907103A68AF
:10215000D2B24FEA0212D2B25B1883F8002307F121
:102160000C07BD4680BC704780B582B000AF786078
:102170007A686FF07F439A4202D94FF001031FE063
:102180004EF21003CEF200037A6822F07F4202F191
:10219000FF325A604FF0FF304FF00F01FFF7B6FFEC
:1021A0004EF21003CEF200034FF000029A604EF29E
:1021B0001003CEF200034FF007021A604FF0000345
:1021C000184607F10807BD4680BD00BF00000000AB
:1021D00090B583B000AF4FF00003FB7140F2F450B4
:1021E000C2F20000FEF77CF840F2F453C2F20003A2
:1021F0005A6848F21F53C5F2EB13A3FB02134FEAD0
:1022000053131846FFF7B0FF4FF0000002F064FCD4
:102210004FF0010002F060FC4FF0020002F05CFCA5
:102220004FF0030002F058FC4FF0040002F054FCA1
:102230004FF0050002F050FC4FF0060002F04CFC9D
:102240004FF0070002F048FC4FF000004FF0010192
:1022500002F0D0FC01F038F940F25053C2F2000312
:102260004FF000021A604FF0000002F085FC4FF0C2
:10227000030002F081FC4FF0040002F07DFC4FF0FF
:10228000010002F079FC4FF0070002F075FC4FF0FE
:10229000050002F071FC4FF0060002F06DFC4FF0FB
:1022A000020002F069FC3FE04FF0000002F07EFC0B
:1022B0004FF0050001F070FC4FF0020002F076FCD8
:1022C0004FF0050001F068FC4FF0040002F06EFCD6
:1022D0004FF0050001F060FC4FF0060002F066FCD4
:1022E0004FF0050001F058FC4FF0070002F05EFCD3
:1022F0004FF0050001F050FC4FF0050002F056FCD5
:102300004FF0050001F048FC4FF0030002F04EFCD6
:102310004FF0050001F040FC4FF0010002F046FCD8
:102320004FF0050001F038FC40F25053C2F20003B8
:102330001B68002BB8D040F27D53C2F200034FF06F
:1023400000021A704FF0000002F016FC4FF003007C
:1023500002F012FC4FF0040002F00EFC4FF00100FE
:1023600002F00AFC4FF0070002F006FC4FF00500F7
:1023700002F002FC4FF0060002F0FEFB4FF00200FC
:1023800002F0FAFB01F0BAF8FAE000BF40F27D5328
:10239000C2F200031B78DBB2052BF7D140F27D536C
:1023A000C2F200034FF000021A704FF0000002F07A
:1023B000E3FB4FF0030002F0DFFB4FF0040002F0FC
:1023C000DBFB4FF0010002F0D7FB4FF0070002F0FB
:1023D000D3FB4FF0050002F0CFFB4FF0060002F0F8
:1023E000CBFB4FF0020002F0C7FB40F27050C2F28C
:1023F000000001F0B3F840F27053C2F200031B6812
:10240000184604F0FDF90346DBB25BB2002BB8BFFF
:102410005B42DAB240F2DC53C2F200031A7040F2BF
:102420007053C2F200035B68184604F0E9F90346F2
:10243000DBB25BB2002BB8BF5B42DAB240F27C5336
:10244000C2F200031A7040F2DC53C2F200031A78A1
:1024500040F27C53C2F200031B789A4248D940F202
:102460007053C2F200031B68184604F0C9F9034612
:10247000DBB25BB2184603F0A9FF03464FF001023E
:1024800014461846DFF8681604F0B0F90346002B2E
:1024900002D14FF000031C46E3B2002B03D04FF0F3
:1024A000070002F04FFB40F27053C2F200031B68BA
:1024B000184604F0A5F90346DBB25BB2184603F0F8
:1024C00085FF03464FF0010214461846DFF8241634
:1024D00004F06EF90346002B02D14FF000031C46B6
:1024E000E3B2002B4CD04FF0000002F02BFB47E092
:1024F00040F27053C2F200035B68184604F080F9A2
:102500000346DBB25BB2184603F060FF03464FF0B0
:10251000010214461846DFF8DC1504F049F90346B9
:10252000002B02D14FF000031C46E3B2002B03D076
:102530004FF0030002F006FB40F27053C2F20003BA
:102540005B68184604F05CF90346DBB25BB21846E0
:1025500003F03CFF03464FF0010214461846DFF833
:10256000901504F043F90346002B02D14FF000030D
:102570001C46E3B2002B03D04FF0040002F0E2FA55
:1025800040F25053C2F200031B68012B3FF4FDAE32
:1025900040F27D53C2F200034FF000021A704FF078
:1025A000010002F0E9FA4FF0000002F0E5FA4FF006
:1025B000030002F0E1FA4FF0040002F0DDFA4FF000
:1025C000070002F0D9FA4FF0050002F0D5FA4FF0FB
:1025D000060002F0D1FA4FF0020002F0CDFA01F04D
:1025E00085F800F052BF00BF40F27D53C2F20003F5
:1025F0001B78DBB2052BF7D140F27D53C2F200030A
:102600004FF000021A7040F25850C2F2000001F080
:10261000B7F940F26450C2F2000001F0A9F84FF09F
:102620000003FB7118E0FC79FA7940F26453C2F2BE
:10263000000353F822301846DFF8BC1403F0CEFF35
:1026400003461A4640F26453C2F2000343F82420C2
:10265000FB7903F10103FB71FB79022BE3D940F213
:102660006453C2F200031A6840F26453C2F20003DA
:102670001B681046194603F0FDFE03461C4640F257
:102680006453C2F200035A6840F26453C2F200037A
:102690005B681046194603F0EDFE034620461946D6
:1026A00003F0E0FD03461C4640F26453C2F200030F
:1026B0009A6840F26453C2F200039B6810461946C0
:1026C00003F0D8FE03462046194603F0CBFD03462F
:1026D000184603F083FA02460B461046194602F0EC
:1026E0006DFB02460B461046194603F065FD024697
:1026F00040F2F053C2F200031A6040F26453C2F297
:1027000000035B6883F0004240F2F053C2F2000322
:102710001B681046194603F061FF03461A4640F253
:10272000E853C2F200031A6040F2E853C2F2000319
:102730001A6840F2E853C2F200031B6810461946BB
:1027400003F098FE0346184603F048FA02460B468B
:102750004FF000004FF07E5101F5E00103F0DEF88C
:1027600002460B461046194602F028FB02460B466D
:102770001046194603F020FD024640F2E053C2F233
:1027800000031A6040F26453C2F200031A6840F278
:10279000F053C2F200031B681046194603F01EFFF7
:1027A00003461A4640F2EC53C2F200031A6040F2AC
:1027B000EC53C2F200031A6840F2EC53C2F2000379
:1027C0001B681046194603F055FE0346184603F0F1
:1027D00005FA02460B464FF000004FF07E5101F51E
:1027E000E00103F09BF802460B461046194602F042
:1027F000E5FA02460B461046194603F0DDFC024698
:1028000040F28053C2F200031A6040F2E853C2F271
:1028100000031B684FF0010214461846B74903F045
:10282000E5FF0346002B02D14FF000031C46E3B244
:10283000002B77D040F2E053C2F200031B684FF048
:10284000010214461846AD4903F0D0FF0346002BA1
:1028500002D14FF000031C46E3B2002B2CD040F213
:10286000E053C2F200031B68184603F0B7F90246B2
:102870000B461046194602F051FA02460B46104626
:10288000194695A3D3E9002303F0FCF902460B4651
:102890001046194692A3D3E9002303F01DFB02461C
:1028A0000B461046194603F087FC024640F284535B
:1028B000C2F200031A60B5E040F2E053C2F2000336
:1028C0001B68184603F08AF902460B461046194663
:1028D00002F024FA02460B46104619467EA3D3E9BD
:1028E000002303F0CFF902460B46104619467CA39D
:1028F000D3E9002303F0F0FA02460B4610461946CE
:1029000075A3D3E9002303F00BF802460B461046EB
:10291000194603F051FC024640F28453C2F2000310
:102920001A607FE040F2E053C2F200031B684FF0F0
:10293000010214461846714903F058FF0346002B64
:1029400002D14FF000031C46E3B2002B35D040F219
:10295000E053C2F200031B68184603F03FF9024639
:102960000B461046194602F0D9F902460B461046AE
:10297000194659A3D3E9002303F084F902460B4614
:102980001046194656A3D3E9002303F0A5FA0246E0
:102990000B461046194654A3D3E9002302F0C0FFAA
:1029A00002460B461046194603F006FC024640F26A
:1029B0008453C2F200031A6034E040F2E053C2F2E2
:1029C00000031B68184603F009F902460B4610463F
:1029D000194602F0A3F902460B46104619463EA3DB
:1029E000D3E9002303F04EF902460B461046194680
:1029F0003BA3D3E9002303F06FFA02460B461046CF
:102A0000194635A3D3E9002302F08AFF02460B469C
:102A10001046194603F0D0FB024640F28453C2F23E
:102A200000031A6040F2EC53C2F200031B684FF03F
:102A3000010214461846314903F0D8FE0346002B24
:102A400002D14FF000031C46E3B2002B00F08E8051
:102A500040F28053C2F200031B684FF0010214469B
:102A60001846264903F0C2FE0346002B02D14FF060
:102A700000031C46E3B2002B42D040F28053C2F266
:102A800000031B68184603F0A9F802460B461046DF
:102A9000194602F043F902460B46104619460EA3AA
:102AA000D3E9002303F0EEF802460B461046194620
:102AB0000BA3D3E9002303F00FFA02460B4610469E
:102AC000194603F079FB024640F28853C2F2000334
:102AD0001A60DCE0AFF30080000000000080664078
:102AE00000000060FB2109400000000000807640EB
:102AF0000000A0400000A0C00000C842000000008C
:102B000040F28053C2F200031B68184603F066F8D7
:102B100002460B461046194602F000F902460B46E3
:102B20001046194638A3D3E9002303F0ABF8024658
:102B30000B461046194636A3D3E9002303F0CCF91F
:102B400002460B46104619462FA3D3E9002302F094
:102B5000E7FE02460B461046194603F02DFB0246DF
:102B600040F28853C2F200031A6090E040F28053B2
:102B7000C2F200031B684FF00102144618462849B0
:102B800003F034FE0346002B02D14FF000031C4635
:102B9000E3B2002B46D040F28053C2F200031B6820
:102BA000184603F01BF802460B461046194602F081
:102BB000B5F802460B461046194613A3D3E9002385
:102BC00003F060F802460B461046194610A3D3E9FD
:102BD000002303F081F902460B46104619460EA366
:102BE000D3E9002302F09CFE02460B46104619462C
:102BF00003F0E2FA024640F28853C2F200031A6080
:102C000045E000BFAFF30080000000000080664098
:102C100000000060FB2109400000000000807640B9
:102C20000000000040F28053C2F200031B68184607
:102C300002F0D4FF02460B461046194602F06EF829
:102C400002460B4610461946ADA3D3E9002303F014
:102C500019F802460B4610461946ABA3D3E90023E8
:102C600003F03AF902460B4610461946A4A3D3E9ED
:102C7000002302F055FE02460B461046194603F0AB
:102C80009BFA024640F28853C2F200031A6040F2F7
:102C90008453C2F200031B684FF001021446184629
:102CA0009B4903F099FD0346002B02D14FF000032E
:102CB0001C46E3B2002B0FD040F28453C2F2000353
:102CC0001B681846924903F0CBFA03461A4640F2B5
:102CD0008453C2F200031A6040F28853C2F2000328
:102CE0001B684FF0010214461846894903F074FD31
:102CF0000346002B02D14FF000031C46E3B2002B29
:102D00000FD040F28853C2F200031B681846804976
:102D100003F0A6FA03461A4640F28853C2F20003B3
:102D20001A6040F25853C2F200031A6840F280530E
:102D3000C2F200031B681046194603F09BFB0346D2
:102D40001C4640F25853C2F200039A6840F2EC531A
:102D5000C2F200031B681046194603F08BFB0346C2
:102D60002046194603F07EFA03461A4640F2E45321
:102D7000C2F200031A6040F25853C2F200031A680C
:102D800040F2E853C2F200031B681046194603F0F4
:102D900071FB03461A4640F2EC53C2F200031B6873
:102DA0001046194603F066FB03461C4640F2585392
:102DB000C2F200035A6840F2E053C2F200031B68FB
:102DC0001046194603F056FB03462046194603F009
:102DD00049FA03461C4640F25853C2F200035A68AF
:102DE00040F2E853C2F200031B681046194603F094
:102DF00041FB03461A4640F28053C2F200031B68AF
:102E00001046194603F036FB03462046194603F0E8
:102E100027FA03461A4640F28C53C2F200031A60A6
:102E200040F28C53C2F200031A6840F2E453C2F23B
:102E300000031B681046194602F014F803461846B2
:102E4000344903F017FB03461846334903F0C6FB29
:102E500003461A4640F25453C2F200031A6040F28D
:102E60005453C2F200031B684FF001021446184687
:102E70002A4903F09DFC0346002B02D14FF00003CA
:102E80001C46E3B2002B0FD040F25453C2F20003B1
:102E90001B6818461E4903F0E5F903461A4640F23E
:102EA0005453C2F200031A6040F28453C2F200038A
:102EB0001B684FF0010214461846194903F082FCC2
:102EC0000346002B02D14FF000031C46E3B2002B57
:102ED00000F0B58240F28853C2F200031B684FF045
:102EE0000102144618460E4903F06CFC0346002B01
:102EF00018D14FF000031C4614E000BFAFF3008070
:102F0000000000000080664000000060FB210940D6
:102F10000000B44300003443DB0F494000000000D0
:102F200000002042E3B2002B00F0898240F25453AB
:102F3000C2F200031B684FF0010214461846DFF886
:102F4000601503F035FC0346002B02D14FF000035F
:102F50001C46E3B2002B15D040F25453C2F20003DA
:102F60001B684FF0010214461846DFF8381503F0CD
:102F700033FC0346002B02D14FF000031C46E3B2A2
:102F8000002B2BD140F25453C2F200031B684FF0C8
:102F9000010214461846DFF8101503F01DFC034625
:102FA000002B02D14FF000031C46E3B2002B36D0B9
:102FB00040F25453C2F200031B684FF00102144662
:102FC0001846DFF8E81403F0FDFB0346002B02D19E
:102FD0004FF000031C46E3B2002B20D04FF0070057
:102FE00001F0B0FD4FF0000001F0C6FD4FF003000E
:102FF00001F0C2FD4FF0040001F0BEFD4FF00100F2
:1030000001F0BAFD4FF0050001F0B6FD4FF00600EB
:1030100001F0B2FD4FF0020001F0AEFD0EE240F211
:103020005453C2F200031B684FF0010214461846C5
:10303000DFF87C1403F0BCFB0346002B02D14FF0F9
:1030400000031C46E3B2002B36D040F25453C2F2C8
:1030500000031B684FF0010214461846DFF84014C5
:1030600003F0BAFB0346002B02D14FF000031C46CD
:10307000E3B2002B20D04FF0060001F063FD4FF0CB
:10308000030001F079FD4FF0070001F075FD4FF0EE
:10309000000001F071FD4FF0050001F06DFD4FF0F3
:1030A000020001F069FD4FF0010001F065FD4FF0F5
:1030B000040001F061FDC1E140F25453C2F200038B
:1030C0001B684FF0010214461846FA4903F070FBE2
:1030D0000346002B02D14FF000031C46E3B2002B45
:1030E00035D040F25453C2F200031B684FF0010286
:1030F00014461846EE4903F06FFB0346002B02D13D
:103100004FF000031C46E3B2002B20D04FF0040028
:1031100001F018FD4FF0000001F02EFD4FF001000E
:1031200001F02AFD4FF0060001F026FD4FF00700E8
:1031300001F022FD4FF0050001F01EFD4FF00300ED
:1031400001F01AFD4FF0020001F016FD76E140F2A9
:103150005453C2F200031B684FF001021446184694
:10316000D54903F025FB0346002B02D14FF00003A5
:103170001C46E3B2002B35D040F25453C2F2000398
:103180001B684FF0010214461846CA4903F024FB9D
:103190000346002B02D14FF000031C46E3B2002B84
:1031A00020D04FF0020001F0CDFC4FF0030001F001
:1031B000E3FC4FF0070001F0DFFC4FF0050001F0E9
:1031C000DBFC4FF0060001F0D7FC4FF0040001F0EB
:1031D000D3FC4FF0010001F0CFFC4FF0000001F0F4
:1031E000CBFC2BE140F25453C2F200031B684FF0BA
:1031F000010214461846B14903F0DAFA0346002BDF
:1032000002D14FF000031C46E3B2002B35D040F250
:103210005453C2F200031B684FF0010214461846D3
:10322000A54903F0D9FA0346002B02D14FF0000361
:103230001C46E3B2002B20D04FF0000001F082FCCE
:103240004FF0030001F098FC4FF0010001F094FCF6
:103250004FF0050001F090FC4FF0060001F08CFCEF
:103260004FF0020001F088FC4FF0070001F084FCF1
:103270004FF0040001F080FCE0E040F25453C2F251
:1032800000031B684FF00102144618468C4903F0F6
:103290008FFA0346002B02D14FF000031C46E3B225
:1032A000002B35D040F25453C2F200031B684FF09C
:1032B000010214461846814903F08EFA0346002B9A
:1032C00002D14FF000031C46E3B2002B20D04FF098
:1032D000010001F037FC4FF0030001F04DFC4FF00E
:1032E000070001F049FC4FF0050001F045FC4FF0EC
:1032F000060001F041FC4FF0020001F03DFC4FF0F0
:10330000000001F039FC4FF0040001F035FC95E0BD
:1033100040F25453C2F200031B684FF001021446FE
:103320001846684903F044FA0346002B02D14FF0D7
:1033300000031C46E3B2002B35D040F25453C2F2D6
:1033400000031B684FF00102144618465C4903F065
:1033500043FA0346002B02D14FF000031C46E3B2B0
:10336000002B20D04FF0030001F0ECFB4FF00600E3
:1033700001F002FC4FF0070001F0FEFB4FF00500EA
:1033800001F0FAFB4FF0000001F0F6FB4FF00200F5
:1033900001F0F2FB4FF0010001F0EEFB4FF00400F2
:1033A00001F0EAFB4AE040F25453C2F200031B680A
:1033B0004FF00102144618463B4903F0F9F9034661
:1033C000002B02D14FF000031C46E3B2002B5BD070
:1033D00040F25453C2F200031B684FF0010214463E
:1033E0001846384903F0F8F90346002B02D14FF094
:1033F00000031C46E3B2002B46D04FF0050001F05D
:10340000A1FB4FF0030001F0B7FB4FF0070001F004
:10341000B3FB4FF0040001F0AFFB4FF0060001F0EA
:10342000ABFB4FF0000001F0A7FB4FF0010001F0F3
:10343000A3FB4FF0020001F09FFB25E024E04FF0DA
:10344000040001F0B3FB4FF0030001F0AFFB4FF0BD
:10345000070001F0ABFB4FF0050001F0A7FB4FF0B8
:10346000060001F0A3FB4FF0000001F09FFB4FF0BE
:10347000010001F09BFB4FF0020001F097FB4FF0C1
:10348000050000F089FB00E000BF40F25053C2F29B
:1034900000031B68022B3FF4A6A8FEF7E4BE00BFA2
:1034A0000000C841000000000000AA430000B4432F
:1034B00000008C420000E6420000204300004D4323
:1034C00000007A430080934380B500AFFEF750F8C8
:1034D000FEF7C2F8FEF7CEF8FEF7EAFD00BF40F2B5
:1034E0004853C2F200031B68052B06D040F2E803E4
:1034F000C2F200031B68002BF1D180BD80B584B0FF
:1035000000AF4FF008033B724FF000037B724FF0A7
:103510000703BB724FF03003FB724FF000033B73A5
:103520004FF000037B734FF01003BB7307F10803E8
:10353000184601F01BF84FF000033B714FF00003F9
:103540007B7107F10403184601F052F84FF01000A8
:1035500001F078F807F11007BD4680BD90B58BB03B
:1035600000AF78604FF00003BB614FF00003BB83F6
:103570004FF000033B614FF00003BB824FF00003AC
:10358000FB73564B7B624FF000033B6207F10F0366
:1035900018464FF023014FF0010201F0B1F807F196
:1035A000180318464FF028014FF0060201F0A8F862
:1035B000FB7B03F04003002B2BD14FF000033B6259
:1035C00023E03B6A4FEA430303F1010307F12801BB
:1035D000CB1813F8103C4FEA03239AB23B6A4FEA28
:1035E000430307F12801CB1813F8103CD3189BB202
:1035F0009AB23B6A4FEA430307F12801CB1823F83C
:10360000182C3B6A03F101033B623B6A022BD8DDB5
:103610002AE04FF000033B6223E03B6A4FEA43039A
:1036200007F12802D31813F8103C4FEA03239AB28B
:103630003B6A4FEA430303F1010307F12801CB186A
:1036400013F8103CD3189BB29AB23B6A4FEA43037B
:1036500007F12801CB1823F8182C3B6A03F101036A
:103660003B623B6A022BD8DDFB7B03F03003102B5F
:1036700006D0202B07D0002B08D1194B7B6205E028
:10368000184B7B6202E0184B7B6200BF4FF00003D7
:103690003B621BE03B6A4FEA83037A68D4183B6ABB
:1036A0004FEA430307F12802D31833F8183C1BB242
:1036B000184602F08BFE03461846796A02F08EFF28
:1036C000034623603B6A03F101033B623B6A022B22
:1036D000E0DD07F12C07BD4690BD00BF00000000F3
:1036E000EC91E442549264425C8F644180B584B0B2
:1036F00000AF4FF000033B734FF014037B734FF0A8
:10370000E003FB734FF00003BB7307F10C03184693
:10371000FDF7F0F94FF000033B714FF040037B7170
:103720004FF00703BB714FF00003BB724FF0000373
:103730003B724FF000037B724FF00803FB7107F1FF
:1037400004031846FDF760F94FF080033B704FF01B
:1037500010037B704FF00003BB704FF00003FB7051
:103760003B461846FDF792F907F11007BD4680BDAC
:1037700090B58BB000AF78604FF0000387F826302B
:103780007B4B3B6207F114034FF032004FF02301F3
:103790001A464FF00203FDF711FB07F10C034FF03F
:1037A00032004FF028011A464FF00603FDF706FBE2
:1037B0007B7D03F04003002B04D04FF0400387F8DB
:1037C000273003E04FF0100387F827303B7D03F0EC
:1037D0004003002B04D07B7D03F04003002B36D048
:1037E0004FF0000387F826302CE097F8263097F842
:1037F00026204FEA420202F1010207F12800821856
:1038000012F81C2C4FEA022292B211B297F826202D
:103810004FEA420207F12800821812F81C2C89187E
:1038200097F8272091FBF2F292B24FEA430307F197
:103830002801CB1823F8102C97F8263003F1010348
:1038400087F8263097F82630022BCED935E04FF096
:10385000000387F826302CE097F8263097F82620CA
:103860004FEA420207F12800821812F81C2C4FEA96
:10387000022292B211B297F826204FEA420202F1D8
:10388000010207F12800821812F81C2C891897F8F9
:10389000272091FBF2F292B24FEA430307F128018D
:1038A000CB1823F8102C97F8263003F1010387F882
:1038B000263097F82630022BCED907F114034FF0AB
:1038C00032004FF023011A464FF00203FDF776FA5B
:1038D0007B7D03F04003002B02D0264B3B621AE0B5
:1038E0003B7D03F03003102B0CD0102B02DC002B9F
:1038F00005D010E0202B08D0302B09D00BE01C4B5A
:103900003B6208E01C4B3B6205E01A4B3B6202E065
:103910001A4B3B6200BF4FF0000387F826301FE0D0
:1039200097F826304FEA83037A68D41897F8263040
:103930004FEA430307F12802D31833F8103C1BB2B7
:10394000184602F043FD03461846396A02F046FE67
:103950000346236097F8263003F1010387F82630E9
:1039600097F82630022BDBD907F12C07BD4690BD16
:103970000000803F0000803E0000003F9FCDAA3D38
:10398000B0B584B000AF78604FF00003BB724FF069
:103990000003FB814FF00003BB814FF00003FB727B
:1039A00007F10A034FF03C004FF001011A464FF0B7
:1039B0000103FDF703FA4FF03C004FF0030140F222
:1039C0009052C2F200024FF00103FDF7F7F94FF0F9
:1039D0003C004FF004016B4A4FF00103FDF7EEF994
:1039E0004FF03C004FF00701674A4FF00103FDF72D
:1039F000E5F94FF03C004FF00801644A4FF0010335
:103A0000FDF7DCF94FF03C004FF00501604A4FF044
:103A10000103FDF7D3F94FF03C004FF006015D4A7A
:103A20004FF00103FDF7CAF9BB7A03F0E003802BE6
:103A300024D0802B06DC402B12D0602B17D0202BFB
:103A400007D037E0C02B27D0E02B2CD0A02B1CD0E8
:103A500030E040F24C43FB814FF47573BB8129E0A9
:103A600040F25733FB814FF43E73BB8122E040F2BA
:103A70009E23FB814FF41673BB811BE04FF4E1736F
:103A8000FB814FF4C873BB8114E04FF4C873FB8112
:103A900040F26313BB810DE04FF4A573FB8140F24C
:103AA0002713BB8106E04FF0E603FB814FF0CD0307
:103AB000BB8100BF4FF00003FB7234E0FB7A4FEA9A
:103AC00083037A68D418FB7A4FEA430240F290539A
:103AD000C2F200039B5C4FEA03239AB2FB7A4FEADF
:103AE000430303F1010140F29053C2F200035B5C17
:103AF000D3189BB29BB21BB24FF47A7202FB03F352
:103B0000184602F063FC0546FB89184602F05EFC8D
:103B100003462846194602F061FD03462360FB7AFE
:103B200003F10103FB72FB7A012BC7D97B6803F118
:103B3000080440F29053C2F200031B794FEA0323BA
:103B40009AB240F29053C2F200035B79D3189BB251
:103B50009BB21BB24FF47A7202FB03F3184602F0D9
:103B600035FC0546BB89184602F030FC0346284662
:103B7000194602F033FD0346236007F11007BD46E6
:103B8000B0BD00BF910500209205002093050020E4
:103B9000940500209505002080B483B000AF7860C4
:103BA0007A6840F24C53C2F200031A6000BF40F240
:103BB0004C53C2F200031B68002BF8D107F10C072D
:103BC000BD4680BC704700BF80B400AF40F24C538C
:103BD000C2F200031B68002B0BD040F24C53C2F220
:103BE00000031B6803F1FF3240F24C53C2F20003A2
:103BF0001A60BD4680BC704780B400AF4FF0000330
:103C00001846BD4680BC704780B400AF4FF000033B
:103C10001846BD4680BC704780B485B000AF786060
:103C20004FF00003FB604FF48063C4F20103FB60BC
:103C30007B689B79002B00F011817B681B684FEA41
:103C4000531303F1007303F502634FEA43131A465B
:103C50007B681B684FEA531303F1007303F502639B
:103C60004FEA431319687B681B6803F01F034FF08A
:103C7000010000FA03F36FEA03030B4013607B6853
:103C80001B684FEA53134FEA431240F20443C4F255
:103C90000103D3181A467B681B684FEA53134FEA97
:103CA000431140F20443C4F20103CB1819687B6846
:103CB0001B6803F01F034FF0010000FA03F36FEAE3
:103CC00003030B4013607B681B791A467B681B68F3
:103CD0004FEA53134FEA4313D318FA68D318FB6023
:103CE000FB68FA6811687A68126802F01F024FF0E8
:103CF000010000FA02F20A431A604FF48063C4F232
:103D00000103FB607B681B684FEA53134FEA4312C1
:103D10004FF48163C4F20103D3181A467B681B6811
:103D20004FEA53134FEA43114FF48163C4F2010386
:103D3000CB1819687B681B6803F01F034FF0010064
:103D400000FA03F36FEA03030B4013607B681B6800
:103D50004FEA53134FEA431240F20C43C4F20103FB
:103D6000D3181A467B681B684FEA53134FEA431176
:103D700040F20C43C4F20103CB1819687B681B683E
:103D800003F01F034FF0010000FA03F36FEA03038F
:103D90000B4013607B685B79102B44D17B681B68F8
:103DA0004FEA53134FEA43124FF48163C4F2010305
:103DB000D3181A467B681B684FEA53134FEA431126
:103DC0004FF48163C4F20103CB1819687B681B6848
:103DD00003F01F034FF0010000FA03F30B431360DD
:103DE0007B681B684FEA53134FEA431240F20C43BF
:103DF000C4F20103D3181A467B681B684FEA5313B9
:103E00004FEA431140F20C43C4F20103CB18196886
:103E10007B681B6803F01F034FF0010000FA03F3F7
:103E20000B43136036E07B685B791A467B681B683E
:103E30004FEA53134FEA4313D318FA68D318FB60C1
:103E4000FB68FA6811687A68126802F01F024FF086
:103E5000010000FA02F20A431A601BE07B681B793A
:103E60001A467B681B684FEA53134FEA4313D31873
:103E7000FA68D318FB60FB68FA6811687A68126800
:103E800002F01F024FF0010000FA02F26FEA020294
:103E90000A401A6007F11407BD4680BC704700BF96
:103EA00080B485B000AF78604FF00003FB734FF033
:103EB0000003BB607B684FEA531303F1007303F503
:103EC00002634FEA43131A687B6803F01F034FF045
:103ED000010101FA03F31340BB607B684FEA5313FF
:103EE0004FEA431240F21443C4F20103D3181A6894
:103EF0007B6803F01F034FF0010101FA03F3134045
:103F0000002B06D0BB68002B03D04FF00103FB73DE
:103F100002E04FF00003FB73FB7B184607F1140728
:103F2000BD4680BC704700BF80B483B000AF7860EE
:103F30007B684FEA53134FEA431240F21443C4F232
:103F40000103D3187A6802F01F024FF0010101FA51
:103F500002F21A6007F10C07BD4680BC704700BF33
:103F600080B582B000AF78607A684FF44053C4F2F5
:103F700001039A420CD14FF480504FF00101FCF73D
:103F8000EBFC4FF480504FF00001FCF7E5FC26E01D
:103F90007A684FF46053C4F200039A420CD14FF494
:103FA00080404FF00101FCF703FD4FF480404FF0DB
:103FB0000001FCF7FDFC12E07A684FF47053C4F284
:103FC00000039A420BD14FF400404FF00101FCF77F
:103FD000EFFC4FF400404FF00001FCF7E9FC07F163
:103FE0000807BD4680BD00BF80B485B000AF7860D3
:103FF00039604FF00003FB813B685B88B3F5827F3B
:1040000036D17B681B88FB81FB8903F44153FB811C
:104010003B681A883B685B8813439AB23B68D9882F
:104020003B681B890B4399B23B6858893B689B8965
:10403000034398B23B68DB8903439BB20B439BB2BB
:1040400013439AB2FB891343FB817B68FA891A8078
:104050007B689B88FB81FB8923F47063FB813B6851
:104060009A88FB891343FB817B68FA899A8035E043
:104070007B689B88FB81FB8923F47063FB813B6831
:104080009A88FB891343FB817B68FA899A807B6855
:104090001B88FB81FB8903F44153FB813B681A8831
:1040A0003B685B8813439AB23B68D9883B681B899D
:1040B0000B4399B23B6858893B689B89034398B28C
:1040C0003B68DB8903439BB20B439BB213439AB219
:1040D000FB891343FB817B68FA891A807B689B8B81
:1040E0009BB223F400639AB27B689A833B681A8A76
:1040F0007B681A8207F11407BD4680BC704700BF79
:1041000080B483B000AF78600B46FB70FB78002B67
:1041100008D07B681B889BB243F040039AB27B684F
:104120001A8007E07B681B889BB223F040039AB299
:104130007B681A8007F10C07BD4680BC704700BF42
:1041400080B483B000AF78600B467B807B689B882F
:104150009BB223F480539AB27B689A807B689B88D9
:104160009AB27B8813439AB27B689A8007F10C0756
:10417000BD4680BC704700BF80B485B000AF78609A
:104180000B46FB704FF00003FB607B68FB60FB6835
:1041900003F10C03FB60FB68FA781A7007F114074F
:1041A000BD4680BC704700BF80B485B000AF78606A
:1041B0004FF00003FB607B68FB60FB6803F10C03BE
:1041C000FB60FB681B78DBB2184607F11407BD469D
:1041D00080BC704780B485B000AF78600B467B80B0
:1041E0004FF00003FB737B681B899AB27B881340F6
:1041F0009BB2002B03D04FF00103FB7302E04FF0A2
:104200000003FB73FB7B184607F11407BD4680BC17
:10421000704700BF80B485B000AF786039604FF060
:104220000003FB607B681B6823F001027B681A6057
:104230007B681B68FB60FA684EF2FF03C0F2CF0395
:104240001340FB603B685A683B689B684FEA032356
:104250001343FA681343FB607B68FA681A603B6893
:104260001B6823F070627B681A617B681B6843F0EF
:1042700001027B681A604FF00003FB607B68FA68FC
:104280009A607B68FA68DA603B689A693B681B69E8
:104290001343FB607B68FA689A607B689B6843F411
:1042A00000427B689A603B68DB68FB607B681B6848
:1042B0001A46FB681A437B681A607B685B68FB6080
:1042C000FB6823F0784323F40043FB603B685B69A1
:1042D000FA681343FB607B68FA685A6007F11407B9
:1042E000BD4680BC704700BF80B483B000AF78602B
:1042F0000B46FB70FB78002B06D07B681B6843F0F5
:1043000001027B681A6005E07B681B6823F00102EC
:104310007B681A6007F10C07BD4680BC704700BF80
:1043200080B487B000AFF8607B600B467B8113469A
:104330007B724FF000037B61FB685B687B617A698D
:104340004FF41843CFF6004313407B617B894FEA5B
:1043500083534FEA93537A7A4FEA024202F47F0280
:104360001A437B681A433B6A13437A6913437B61A0
:10437000FB687A695A6007F11C07BD4680BC70472C
:1043800080B483B000AF78600B46FB70FA787B682E
:104390009A6207F10C07BD4680BC704780B483B0B9
:1043A00000AF78607B685B6ADBB2184607F10C07E8
:1043B000BD4680BC704700BF80B485B000AF786058
:1043C00039604FF00003BB604FF00003FB737B6864
:1043D0009B69BB60BA683B681340BB60BB68002B3D
:1043E00003D04FF00103FB7302E04FF00003FB73B7
:1043F000FB7B184607F11407BD4680BC704700BF21
:1044000080B483B000AF786039607B683A68DA6165
:1044100007F10C07BD4680BC704700BF80B400AFF9
:1044200045F64443C4F200034FF000021A6040F224
:10443000D853C2F200034FF43F421A8045F640437E
:10444000C4F2000340F2D852C2F2000212881A608D
:104450004FF000031846BD4680BC704780B483B05F
:1044600000AF78604FF46D43CEF200037A6842F0FB
:10447000BE6242F42022DA6007F10C07BD4680BC20
:10448000704700BF80B487B000AF78604FF0000382
:104490007B614FF000033B614FF00F03FB607B68D3
:1044A000DB78002B47D04FF46D43CEF20003DB687E
:1044B0006FEA030303F4E0634FEA13237B617B6934
:1044C000C3F104033B617B69FA6822FA03F3FB60E2
:1044D0007B685B781A463B6902FA03F37B617B6871
:1044E0009B781A46FB6813407A6913437B617B69AA
:1044F0004FEA03137B614FF46143CEF200037A6805
:10450000127811467A69D2B25B1883F800234FF40F
:104510006143CEF200037A6812784FEA5212D2B2A7
:104520007968097801F01F014FF0010000FA01F1EC
:1045300043F8221014E04FF46143CEF200037A688E
:1045400012784FEA5212D2B27968097801F01F014D
:104550004FF0010000FA01F102F1200243F82210AD
:1045600007F11C07BD4680BC704700BF80B584B012
:1045700000AF78604FF00003FB734FF00003BB7394
:1045800000F0FEF87B681A787B685B781343DAB238
:104590007B689B781343DAB27B68DB781343DAB22B
:1045A000FB7B1343DBB2FB737B681A797B685B7917
:1045B0001343DAB27B689B791343DAB2BB7B1343B4
:1045C000DBB2BB7307F10F0318464FF020014FF029
:1045D000010200F05DF807F10E0318464FF02301C9
:1045E0004FF0010200F054F807F11007BD4680BDFE
:1045F00080B584B000AF786007F10F0318464FF024
:1046000021014FF0010200F07BF8FB7B23F03F0318
:10461000DBB2FB737B681A787B685B781343DAB292
:10462000FB7B1343DBB2FB7307F10F0318464FF01C
:1046300021014FF0010200F02BF807F11007BD46F1
:1046400080BD00BF80B584B000AF0346FB7107F1A9
:104650000F0318464FF024014FF0010200F050F80C
:10466000FB7B23F01003DBB2FB73FA7BFB79134374
:10467000DBB2FB7307F10F0318464FF024014FF034
:10468000010200F005F807F11007BD4680BD00BF2C
:1046900080B582B000AF786013460A46FA703B805E
:1046A0003B88012B03D9FB7843F04003FB704FF4A8
:1046B0008050C4F600004FF00801FDF755FCFB7870
:1046C000184600F03FF90CE07B681B78184600F0B4
:1046D00039F93B8803F1FF333B807B6803F1010329
:1046E0007B603B88002BEFD14FF48050C4F6000074
:1046F0004FF00801FDF72AFC07F10807BD4680BD11
:1047000080B582B000AF786013460A46FA703B80ED
:104710003B88012B04D9FB7863F03F03FB7003E077
:10472000FB7863F07F03FB704FF48050C4F6000009
:104730004FF00801FDF718FCFB78184600F002F96D
:104740000FE04FF0000000F0FDF803461A467B68CA
:104750001A703B8803F1FF333B807B6803F1010350
:104760007B603B88002BECD14FF48050C4F60000F6
:104770004FF00801FDF7EAFB07F10807BD4680BDD1
:1047800080B588B000AF4FF480504FF00101FCF7C6
:104790008BF84FF400304FF00101FCF759F84FF45B
:1047A00000104FF00101FCF753F84FF400104FF0E8
:1047B0000101FCF74DF84FF400104FF00101FCF738
:1047C00047F84FF090404FF005014FF00502FDF71C
:1047D000D9FB4FF090404FF006014FF00502FDF776
:1047E000D1FB4FF090404FF007014FF00502FDF76D
:1047F000C9FB4FF002033B774FF00003BB774FF04C
:104800000003FB774FF003037B774FF02003BB617E
:1048100007F118034FF090401946FDF7C9FA4FF021
:104820008003BB6107F118034FF090401946FDF774
:10483000BFFA4FF04003BB6107F118034FF09040FF
:104840001946FDF7B5FA4FF44050C4F20100FFF7E6
:1048500087FB4FF00003BB804FF4E0633B814FF0D8
:1048600000037B814FF00003BB814FF40073FB8199
:104870004FF010033B824FF000037B824FF00703A1
:10488000BB824FF48273FB8007F104034FF4405066
:10489000C4F201001946FFF7A7FB4FF44050C4F2E1
:1048A00001004FF48051FFF74BFC4FF44050C4F22D
:1048B00001004FF00101FFF723FC4FF00803BB613B
:1048C0004FF001033B774FF00003BB774FF003033A
:1048D0007B7707F118034FF48050C4F600001946A7
:1048E000FDF766FA4FF48050C4F600004FF008015F
:1048F000FDF72CFB4FF00103BB614FF000033B774A
:104900004FF00003BB774FF003037B774FF00003BA
:10491000FB7707F118034FF48050C4F600001946E6
:10492000FDF746FA4FF00203BB6107F118034FF49D
:104930008050C4F600001946FDF73AFA07F1200747
:10494000BD4680BD80B582B000AF0346FB7140F22A
:10495000EC03C2F200034FF480521A6017E040F2F9
:10496000EC03C2F200031B68002B14BF00220122DB
:10497000D2B203F1FF3140F2EC03C2F2000319603E
:10498000002A04D0FFF740F90346DBB244E04FF4BD
:104990004050C4F201004FF00201FFF71BFC034638
:1049A000002BDCD0FB794FF44050C4F201001946D3
:1049B000FFF7E2FB40F2EC03C2F200034FF4805237
:1049C0001A6017E040F2EC03C2F200031B68002BF0
:1049D00014BF00220122D2B203F1FF3140F2EC03F6
:1049E000C2F200031960002A04D0FFF70DF9034654
:1049F000DBB211E04FF44050C4F201004FF001016E
:104A0000FFF7E8FB0346002BDCD04FF44050C4F224
:104A10000100FFF7C9FB0346184607F10807BD462A
:104A200080BD00BF90B484B000AF02460B46FA715F
:104A3000BB714FF00003FB60BB7903F003034FEA47
:104A400083034FF00F0202FA03F3FB604FF0000301
:104A5000C4F20103BA794FEA9202D2B210464FF083
:104A60000002C4F20102B9794FEA9101C9B201F121
:104A7000020152F821201146FA686FEA0202114041
:104A800000F1020243F822104FF00003C4F20103C8
:104A9000BA794FEA9202D2B210464FF00002C4F245
:104AA0000102B9794FEA9101C9B201F1020152F84C
:104AB00021201146FC79BA7902F003024FEA820202
:104AC00004FA02F2114300F1020243F8221007F146
:104AD0001007BD4690BC704780B584B000AF034658
:104AE000FB71FA7946F63813C0F6000353F822300A
:104AF00018464FF00101FBF7ABFEFA7946F6281392
:104B0000C0F6000333F81230BB604FF001033B7373
:104B10004FF00003BB734FF00103FB734FF003032F
:104B20007B73FA7940F2F003C2F2000353F82220BB
:104B300007F1080310461946FDF73AF907F1100787
:104B4000BD4680BD80B483B000AF0346FB71FA79E7
:104B500040F2F003C2F2000353F82220F97946F63E
:104B60002813C0F6000333F81130936107F10C07E6
:104B7000BD4680BC704700BF80B483B000AF034621
:104B8000FB71FA7940F2F003C2F2000353F82220DD
:104B9000F97946F62813C0F6000333F8113013856F
:104BA00007F10C07BD4680BC704700BF80B483B0DE
:104BB00000AF0346FB71FA7940F2F003C2F2000342
:104BC00053F82220F97940F2F003C2F2000353F8BF
:104BD00021309B8A99B2F87946F62813C0F6000373
:104BE00033F810304B409BB2938207F10C07BD465F
:104BF00080BC704780B588B000AF02460B46FA71A2
:104C0000BB71FA7946F65C13C0F6000353F8223004
:104C100018464FF00101FBF71BFE4FF001004FF06B
:104C20000101FBF741FE4FF000033B774FF000031B
:104C3000FB77FA7946F65813C0F6000333F81230C2
:104C4000BB61FA7940F21013C2F2000353F822203C
:104C500007F1180310461946FDF7AAF8BB79012B96
:104C60003AD1FA7946F66413C0F600039A5CF979F2
:104C700046F66813C0F600035B5C10461946FFF762
:104C8000D1FEFA7946F66013C0F6000333F812300D
:104C90003B614FF000033B754FF008037B754FF00D
:104CA0000103BB7507F110031846FEF7B5FFFA794B
:104CB00046F66C13C0F600039B5C3B734FF00F038A
:104CC0007B734FF00F03BB734FF00103FB7307F1CE
:104CD0000C031846FFF7D6FB07F12007BD4680BD41
:104CE00080B582B000AF0346FB71FA7940F2101331
:104CF000C2F2000353F82220F97946F65813C0F6A1
:104D0000000333F8113010461946FDF7FFF803464B
:104D1000184607F10807BD4680BD00BF2DE9D04306
:104D2000234C8AB006460F4600F09EF894F90030F6
:104D300001338046894604D03046394600F07CFC79
:104D400020B9404649460AB0BDE8D08330463946CE
:104D500000F06EFC00230022C3F6F07301F022FA8B
:104D60000028EED0134B1448019301230093002335
:104D70000893CDE90467CDE9026700F093FC94F94C
:104D80000030022BCDE9060108D0684600F088FC0F
:104D900020B1089B3BB9DDE90689D2E701F056FD59
:104DA00021230360F5E701F051FD089B0360F2E762
:104DB0001401002070690008746900082DE9D04FC3
:104DC000264C8AB006460F4600F0B6FA94F9003039
:104DD0000133804689462ED03046394600F02CFCFF
:104DE000002828D04FF0000A4FF0000B304639461B
:104DF00052465B4601F0B8F9E8B1194B24780193AB
:104E00000123009300230893CDE90467CDE90267ED
:104E1000B4B15046594652465B4601F05DF8022C4B
:104E2000CDE906010ED101F011FD21230360089B9D
:104E300073B9DDE90689404649460AB0BDE8D08F1E
:104E4000CDE906AB684600F02BFC0028EFD1EAE77D
:104E500001F0FCFC089B0360EBE700BF140100209D
:104E60007869000800F042BB2DE9F04F4FF6FF7261
:104E700021F00043C3F6EF72934283B004460D461F
:104E80000EDD03F1404000F58013234340F0C8805D
:104E9000002940F354810020002103B0BDE8F08FC9
:104EA0004FF6FF72C3F6DF72934240F3B0800029E1
:104EB000C0F27E81002102462B460020C3F6F0712D
:104EC00000F02CFD00230022C3F6E07300F0DAFEB0
:104ED00006460F4600F030FA9BA3D3E90023CDE944
:104EE00000010D463046394600F0CCFE98A3D3E9C8
:104EF000002300F015FD32463B4600F0C3FE96A3AA
:104F0000D3E9002300F00AFD32463B4600F0BAFE2A
:104F100093A3D3E9002300F003FD32463B4600F0A3
:104F2000B1FE91A3D3E9002300F0F8FC32463B46E2
:104F300000F0A8FE8EA3D3E9002300F0F1FC324676
:104F40003B4600F09FFE0024A246AB4604460D46B9
:104F50003046394688A3D3E9002300F093FE88A3A6
:104F6000D3E9002300F0DAFC32463B4600F08AFE2B
:104F700085A3D3E9002300F0D3FC32463B4600F082
:104F800081FE83A3D3E9002300F0C8FC32463B46F0
:104F900000F078FE00230022C3F6F07300F0C0FC9E
:104FA00002460B462046294600F096FFDDE9002325
:104FB00000F068FE5246804689465B465046594698
:104FC00000F060FE02460B463046394600F0A6FC73
:104FD000524604460D465B46DDE9000100F0A0FCA8
:104FE00002460B462046294600F076FF02460B4655
:104FF0004046494600F094FC02460B46504659464E
:1050000000F08EFC02460B4600F08AFC45E70022C9
:10501000C3F6604293420EDC5FA1D1E900013CE798
:1050200022462B462046294600F078FC02460B46D5
:1050300000F052FF31E72B460246294600F022FEDF
:1050400041A3D3E9002306460F4600F01BFE40A310
:10505000D3E9002300F064FC32463B4600F012FE28
:105060003DA3D3E9002300F059FC32463B4600F053
:1050700009FE3BA3D3E9002300F052FC32463B4635
:1050800000F000FE38A3D3E9002300F047FC3246CD
:105090003B4600F0F7FD36A3D3E9002300F040FCC7
:1050A00032463B4600F0EEFD33A3D3E900238046B1
:1050B00089463046394600F0E5FD31A3D3E90023A7
:1050C00000F02CFC32463B4600F0DCFD2EA3D3E979
:1050D000002300F025FC32463B4600F0D3FD2CA314
:1050E000D3E9002300F01AFC32463B4600F0CAFD2B
:1050F00000230022C3F6F07300F012FC02460B46B8
:105100004046494600F0E8FE02460B462046294646
:1051100000F0B8FD02460B4621A1D1E9000100F0E4
:10512000FDFB02460B462046294600F0F7FB0246EF
:105130000B4619A1D1E9000100F0F0FBADE61AA180
:10514000D1E90001A9E600BF09F7FD0DE13D023FED
:1051500088B20175E0EF493F3B8F68B52882A43FD4
:105160005544880E55C1C93F7D6FEB0312D6D43F1D
:10517000555555555555C53F82922EB1C5B8B33FCB
:1051800059018D1B6C06E63FC88A599CE52A0040F0
:105190004B2D8A1C273A0340182D4454FB21F93F1C
:1051A000075C143326A6913C182D4454FB2109407A
:1051B00000230022C3F6F073294600F0B1FB002360
:1051C0000022C3F6E07300F05DFD43A3D3E90023A2
:1051D00004460D4600F056FD41A3D3E9002300F03C
:1051E0009FFB22462B4600F04DFD3FA3D3E9002351
:1051F00000F094FB22462B4600F044FD3CA3D3E98B
:10520000002300F08DFB22462B4600F03BFD3AA325
:10521000D3E9002300F082FB22462B4600F032FD4A
:1052200037A3D3E9002300F07BFB22462B4600F096
:1052300029FD804689462046294600F07DF832A3A4
:10524000D3E9002306460F462046294600F01AFD02
:105250002FA3D3E9002300F061FB22462B4600F088
:1052600011FD2DA3D3E9002300F05AFB22462B4663
:1052700000F008FD2AA3D3E9002300F04FFB2246EB
:105280002B4600F0FFFC00230022C3F6F07300F071
:1052900047FB02460B464046494600F01DFE32469B
:1052A0003B4600F0EFFC20A3D3E9002300F036FBDF
:1052B00002460B463046394600F032FB02460B46AA
:1052C00000F02EFB02460B4619A1D1E9000100F0C7
:1052D00025FBE2E5AFF3008009F7FD0DE13D023F5C
:1052E00088B20175E0EF493F3B8F68B52882A43F43
:1052F0005544880E55C1C93F7D6FEB0312D6D43F8C
:10530000555555555555C53F82922EB1C5B8B33F39
:1053100059018D1B6C06E63FC88A599CE52A00405E
:105320004B2D8A1C273A0340075C143326A6913C78
:10533000182D4454FB2109402DE9F8430026374637
:10534000C7F6F076C7F6F0770E40BE4204460D462B
:1053500002460B4600F0A580002979DD0A1500F011
:105360008380A2F57E7721F07F4323F47003073F0B
:10537000D20743F4801360D5C20F4FF0000C02EB4C
:1053800043037F104200654616204FF400116C184D
:10539000D60F9C424FEA420202DC65181B1B8C446C
:1053A0004908013806EB4303F1D1202680464FF02F
:1053B000004107E03DD0D40F49085200013E04EB04
:1053C00043031BD0AB4208EB0104F3DD04F00049BA
:1053D000B9F1004F04EB010825D0A9469442C5EB72
:1053E0000303C4EB020288BF013B4018D40F4908F5
:1053F0005200013E4D4604EB4303E3D11A4321D151
:1054000046084FEA6C0303F17E531CF0010F03F5CD
:10541000C00318BF46F0004603EB0755344620464C
:105420002946BDE8F883B8F1000FD6DB05F1010984
:10543000D4E79442CAD91D46BDE7C20F02EB43032D
:10544000400099E7431C3CD000F001031818D7E74F
:1054500021F000460643E2D0002939D12A46C10A8C
:10546000153A40050029FAD011F480132CD14900D7
:105470000133CC02FBD5C3F10105C3F1200420FAAE
:1054800004F4521921439840A2F57E7721F07F431E
:1054900023F47003073FD20743F480133FF56CAF4A
:1054A000CBE72046294600F0EDFB02460B4620469E
:1054B000294600F035FA04460D4620462946BDE847
:1054C000F8830CF1010C9CE7202401250023D6E78A
:1054D00022462B462046294600F020FA02460B467B
:1054E00000F0FAFC04460D4699E700BF21F00042A7
:1054F000B2F1FF4F70B513DC20F00045B5F1FF4F5E
:1055000006460DDCB1F17E5F49D08C1704F0020431
:1055100044EAD0743DB9022C3CD0032C35D070BD88
:1055200000F0A0FE70BD22B3B2F1FF4F3BD0B5F149
:10553000FF4F46D0AA1AD2153C2A21DC002958DB9D
:1055400001F04CF800F0E2F900F0B2F8012C4DD077
:10555000022C3DD0002CE2D04BF62E51C3F2BB31D1
:1055600000F080FE40F6DB71C4F2490100F078FEE5
:1055700070BD002E40F6DB7020DBC3F6C97070BD35
:1055800040F6DB70C3F6C970E0E740F6DB70CCF2A2
:10559000490070BD40F6DB70C4F2490070BDBDE843
:1055A000704000F085B8B5F1FF4F26D0022CF1D045
:1055B000032CEAD0012C2BD0002070BDCBF6C97093
:1055C00070BD002E40F6DB70F8DBC3F6C970A6E7AD
:1055D0004BF62E51C3F2BB3100F044FE014640F6BB
:1055E000DB70C4F2490000F03BFE70BD00F10040EA
:1055F00070BD3C32A4DA0020A8E7022C13D0032CA3
:105600000CD0012C40F6DB7005D0C3F6497070BD9C
:105610004FF0004070BDCBF6497070BD4CF6E430E1
:10562000CCF2160070BD4CF6E430C4F2160070BD2A
:1056300021F00041704700BF0B4661B1B1F1004F4E
:1056400009D04FF6FF72A3F58011C7F6DF729142C1
:1056500005D8042070470028F3D10220704703F1D9
:10566000FE4101F570019142F3D94FF6FF72C0F28D
:105670000F02934201D80320704703F10041914289
:10568000F9D90022C7F6F072934204D013F5801FB7
:1056900001D000207047D0F1010038BF00207047D2
:1056A0000020704700210020C7F6F871704700BF46
:1056B0002DE9F04120F00045B5F1A14F0446064622
:1056C0000DDBB5F1FF4F00F39D80002840F6DB7441
:1056D00040F3DF80C3F6C9742046BDE8F0814FF681
:1056E000FF73C3F6DF639D4200F3A180B5F1445F11
:1056F000C0F28F804FF0FF382146204600F0BAFEFE
:105700000746394600F0B6FE46F6D711C3F6854186
:10571000054600F0AFFE4DF65921C3F64B5100F09F
:10572000A1FD294600F0A6FE46F63531C3F68851A4
:1057300000F098FD294600F09DFE42F66E61C3F62A
:10574000BA5100F08FFD294600F094FE44F6251171
:10575000C3F6126100F086FD294600F08BFE4AF682
:10576000AB21C3F6AA6100F07DFD394600F082FE50
:105770004AF221210746CBF61551284600F07AFE61
:105780004FF26B11C3F66E5100F06AFD294600F02E
:1057900071FE48F29571C3F69D5100F061FD2946F6
:1057A00000F068FE48F63861C3F6E35100F058FD9A
:1057B000294600F05FFE4CF6CD41C3F64C6100F087
:1057C0004FFD294600F056FEB8F1FF3F014638462E
:1057D00054D000F047FD214600F04CFE494B53F8F1
:1057E000281000F03DFD214600F03AFD464B0146F1
:1057F00053F8280000F034FD002E3CDB0446204620
:10580000BDE8F081014600F02DFD04462046BDE8CC
:10581000F0814FF2CA21C7F2491100F023FD4FF089
:105820007E5100F0E3FF00283FF464AF54E700F03E
:105830006DF84FF6FF73C3F697739D4204464FF61B
:10584000FF7329DCC3F62F739D4249DC014600F04B
:1058500009FD4FF07E5100F003FD4FF080410546F9
:10586000204600F0FFFC0146284600F0B7FE4FF04E
:105870000008044640E700F100442DE700F0F2FC88
:10588000214600F0F7FD0146204600F0E9FC044601
:1058900022E7CBF6C9741FE7C4F21B039D4215DC57
:1058A0004FF07F5100F0DCFC4FF07F510546204661
:1058B00000F0E0FD4FF07E5100F0D4FC0146284698
:1058C00000F08CFE4FF00208044615E70020214648
:1058D000CBF6807000F082FE4FF0030804460BE721
:1058E0004FF07E5100F0BCFC4FF07E510546204643
:1058F00000F0B8FC0146284600F070FE4FF00108A9
:105900000446F9E6806900089069000820F000402C
:10591000704700BF81F0004102E000BF83F0004308
:1059200030B54FEA41044FEA430594EA050F08BF3A
:1059300090EA020F1FBF54EA000C55EA020C7FEAFE
:10594000645C7FEA655C00F0E2804FEA5454D4EB7B
:105950005555B8BF6D420CDD2C4480EA020281EA45
:10596000030382EA000083EA010180EA020281EA7D
:105970000303362D88BF30BD11F0004F4FEA0131CF
:105980004FF4801C4CEA113102D0404261EB4101DE
:1059900013F0004F4FEA03334CEA133302D0524264
:1059A00063EB430394EA050F00F0A780A4F1010420
:1059B000D5F1200E0DDB02FA0EFC22FA05F280185A
:1059C00041F1000103FA0EF2801843FA05F3594140
:1059D0000EE0A5F120050EF1200E012A03FA0EFCBF
:1059E00028BF4CF0020C43FA05F3C01851EBE371E9
:1059F00001F0004507D54FF0000EDCF1000C7EEB06
:105A000000006EEB0101B1F5801F1BD3B1F5001F43
:105A10000CD349085FEA30004FEA3C0C04F1010462
:105A20004FEA445212F5800F80F09A80BCF1004F8B
:105A300008BF5FEA500C50F1000041EB045141EA0D
:105A4000050130BD5FEA4C0C404141EB010111F40E
:105A5000801FA4F10104E9D191F0000F04BF0146B9
:105A60000020B1FA81F308BF2033A3F10B03B3F197
:105A700020020CDA0C3208DD02F1140CC2F10C0227
:105A800001FA0CF021FA02F10CE002F11402D8BF85
:105A9000C2F1200C01FA02F120FA0CFCDCBF41EA51
:105AA0000C019040E41AA2BF01EB0451294330BD20
:105AB0006FEA04041F3C1CDA0C340EDC04F11404FD
:105AC000C4F1200220FA04F001FA02F340EA0300D4
:105AD00021FA04F345EA030130BDC4F10C04C4F11A
