:020000040800F2
:1000000000A00020010300084D0300084D03000874
:100010004D0300084D0300084D03000800000000D8
:100020000000000000000000000000004D03000878
:100030004D030008000000004D0300084D030008B8
:100040004D0300084D0300084D0300084D03000850
:100050004D0300084D0300084D0300084D03000840
:100060004D0300084D0300084D0300084D03000830
:100070004D0300084D0300084D0300084D03000820
:100080004D0300084D0300084D0300084D03000810
:100090004D0300084D0300084D0300084D03000800
:1000A0004D0300084D0300084D0300084D030008F0
:1000B0004D0300084D0300084D0300084D030008E0
:1000C0004D0300084D0300084D0300084D030008D0
:1000D0004D0300084D0300084D0300084D030008C0
:1000E0004D0300084D0300084D0300084D030008B0
:1000F0004D0300084D0300084D0300084D030008A0
:100100000000000000000000000000004D03000897
:100110004D0300084D0300084D0300084D0300087F
:100120004D0300084D0300084D0300084D0300086F
:100130004D0300084D03000800000000000000000F
:100140004D0300084D0300084D03000800000000A7
:10015000000000000000000000000000000000009F
:1001600000000000000000004D0300084D030008DF
:100170004D03000800000000000000000000000027
:10018000000000004D03000880B400AFFEE700BF90
:1001900080B500AF1E4B1E4AD2F8882042F4700290
:1001A000C3F888201B4B1B4A126842F001021A60F8
:1001B000184A184B5968184B0B405360154A154B99
:1001C0001B6823F0847323F480331360114B114AAE
:1001D000126822F480221A600E4B0E4A526822F4F2
:1001E000FE025A600B4B0B4AD26A22F00F02DA620F
:1001F000084A084B196B094B0B401363054B00224F
:100200009A6000F00DF8024B4FF000629A6080BDDA
:1002100000ED00E0001002400CC07FF8CCFC00FFB5
:1002200080B483B000AF00237B6000233B60324B7F
:10023000314A126842F480321A602F4B1B6803F473
:1002400000333B607B6801337B603B68002B03D14C
:100250007B68B3F5A06FF0D1274B1B6803F4003324
:10026000002B02D001233B6001E000233B603B6890
:10027000012B3CD1214B12221A601F4B1E4A52689F
:100280005A601D4B1C4A52685A601B4B1A4A5268EE
:1002900042F480625A60184B174A526822F47C126A
:1002A0005A60154B144A526842F4E8125A60124BD5
:1002B000114A126842F080721A6000BF0E4B1B6830
:1002C00003F00073002BF9D00B4B0B4A526822F05D
:1002D00003025A60084B084A526842F002025A6010
:1002E00000BF054B5B6803F00C03082BF9D10C37FA
:1002F000BD465DF8047B70470010024000200240BC
:10030000002100F004B80C4B5B58435004310B48FB
:100310000B4B42189A42FFF4F6AF0A4A00F003B8BA
:10032000002342F8043B084B9A42FFF4F9AFFFF771
:100330002FFFFFF729FF704750030008000000203F
:10034000000000200000002000000020FFF7FEBF9A
:0400000508000000EF
:00000001FF
