:020000040800F2
:100000002C0E002059020008291600083516000899
:100010003D160008451600084D16000800000000B7
:10002000000000000000000000000000551600085D
:1000300061160008000000006D160008791600081F
:10004000B5020008B5020008B5020008B5020008B4
:10005000B5020008B5020008A5160008B5020008A0
:10006000B5020008B5020008B5020008B502000894
:10007000B5020008B5020008B5020008B502000884
:10008000B5020008B5020008B5020008B502000874
:10009000B5020008B5020008B5020008B502000864
:1000A000B5020008B5020008B5020008B502000854
:1000B000B5020008B5020008B5020008B502000844
:1000C000B5020008B5020008B5020008B502000834
:1000D000B5020008B5020008B5020008B502000824
:1000E000B5020008B5020008B5020008B502000814
:1000F000B5020008B5020008B5020008B502000804
:10010000B5020008B5020008B5020008B5020008F3
:10011000B5020008B5020008B5020008B5020008E3
:10012000B5020008B5020008B5020008B5020008D3
:10013000B5020008B5020008B5020008B5020008C3
:10014000B5020008B5020008B5020008B5020008B3
:10015000B5020008B5020008B5020008B5020008A3
:10016000B5020008B5020008B5020008B502000893
:10017000B5020008B5020008B5020008B502000883
:10018000B5020008B502000880B485B000AF034690
:100190003960FB800D4B1B685B8AFB60FB88002B82
:1001A0000AD10A4B1B683A689188FA6892B28A1A97
:1001B00092B21A82002303E03B681A68FB6813447A
:1001C00018461437BD465DF8047B7047D4050020FF
:1001D00080B485B000AF0346FB711A4B1B78BB603F
:1001E0000023FB601EE0FB68DBB29B0003F1804351
:1001F00003F5B843FA68D2B2920002F1804202F5E8
:10020000B842126892B2114640F60F720A4042F4A8
:10021000004242F08002F968C9B20A431A60FB68E2
:100220000133FB60FA68BB689A42DCD3064BFA796B
:1002300062F07F02D2B21A601437BD465DF8047BCB
:10024000704700BF4C0000204C5C004080B400AF01
:10025000BD465DF8047B704780B582B000AF104B9F
:100260007B60104B3B6007E03B681A1D3A607A6880
:10027000111D796012681A603A680B4B9A42F3D3E9
:100280000A480B494FF000028842B8BF40F8042BDF
:10029000FFF6FAAF01F0F4FB0837BD4680BD00BFA2
:1002A000D457000800000020440500204405002029
:1002B0003006002080B400AFFEE700BF80B48BB0F2
:1002C00000AF786000233B620023FB610023BB6129
:1002D00000237B6100233B6100237B620023FB60E2
:1002E0000023BB60924B5B6803F00C033B623B6AEC
:1002F000042B07D0082B09D0002B30D17B688D4A06
:100300001A6030E07B688B4A1A602CE0884B5B688F
:1003100003F47013FB61864B5B6803F48033BB61AD
:10032000FB699B0C0233FB61BB69002B05D1FB69A8
:10033000814A02FB03F37B620DE07D4BDB6A03F035
:100340000F0301337B617B4A7B69B2FBF3F3FA69EC
:1003500002FB03F37B627B687A6A1A6003E07B68C6
:10036000744A1A6000BF724B5B6803F0F0033B6293
:100370003B6A1B093B62714A3B6A13441B78DBB240
:10038000BB607B681A68BB68DA407B685A60684B60
:100390005B6803F4E0633B623B6A1B0A3B62674AAB
:1003A0003B6A13441B78DBB23B617B685A683B694C
:1003B000DA407B689A605E4B5B6803F460533B6293
:1003C0003B6ADB0A3B625D4A3B6A13441B78DBB243
:1003D000FB607B685A68FB68DA407B68DA60544BE4
:1003E000DB6A03F4F8733B623B6A1B093B62544BC4
:1003F0003A6A33F812309BB23B613B6903F0100359
:10040000002B06D07A6A3B69B2FBF3F27B681A6173
:1004100003E07B681A687B681A61454BDB6A03F46A
:1004200078533B623B6A5B0A3B62454B3A6A33F85E
:1004300012309BB23B613B6903F01003002B06D0E6
:100440007A6A3B69B2FBF3F27B685A6103E07B682E
:100450001A687B685A61364B1B6B03F01003002B44
:1004600003D17B68334A9A6103E07B681A687B6832
:100470009A612F4B1B6B03F02003002B03D17B6889
:100480002C4ADA6103E07B681A687B68DA61284BE2
:100490001B6B03F48073002B0DD07B681A687B6A9A
:1004A0009A4208D1FA68BB689A4204D17B6A5A0022
:1004B0007B681A6203E07B68DA687B681A621C4B0F
:1004C0001B6B03F40073002B0DD07B681A687B6AEA
:1004D0009A4208D1FA68BB689A4204D17B6A5A00F2
:1004E0007B685A6203E07B68DA687B685A62104B6B
:1004F0001B6B03F00303002B04D17B68DA687B6875
:100500009A6228E00A4B1B6B03F00303012B04D112
:100510007B681A687B689A621DE0054B1B6B03F0D1
:100520000303022B0ED17B684FF400429A6212E063
:100530000010024000127A0000093D000000002077
:1005400010000020604B1B6B03F00303032B02D150
:100550007B685E4A9A625C4B1B6B03F44033002B52
:1005600004D17B689A687B68DA6221E0564B1B6B8A
:1005700003F44033B3F5803F04D17B681A687B688D
:10058000DA6215E0504B1B6B03F44033B3F5003FC8
:1005900004D17B684FF40042DA6209E04A4B1B6BDE
:1005A00003F44033B3F5403F02D17B68474ADA6237
:1005B000454B1B6B03F44023002B04D17B689A68E6
:1005C0007B681A6321E0404B1B6B03F44023B3F5B7
:1005D000802F04D17B681A687B681A6315E03A4B58
:1005E0001B6B03F44023B3F5002F04D17B684FF459
:1005F00000421A6309E0344B1B6B03F44023B3F54C
:10060000402F02D17B68314A1A632F4B1B6B03F4D6
:100610004013002B04D17B689A687B685A6321E001
:10062000294B1B6B03F44013B3F5801F04D17B6887
:100630001A687B685A6315E0234B1B6B03F4401365
:10064000B3F5001F04D17B684FF400425A6309E000
:100650001D4B1B6B03F44013B3F5401F02D17B68A5
:100660001A4A5A63184B1B6B03F44003002B04D146
:100670007B689A687B689A6321E0134B1B6B03F4D9
:100680004003B3F5800F04D17B681A687B689A63D6
:1006900015E00D4B1B6B03F44003B3F5000F04D1C1
:1006A0007B684FF400429A6309E0074B1B6B03F42D
:1006B0004003B3F5400F02D17B68044A9A632C379C
:1006C000BD465DF8047B70470010024000127A00BE
:1006D00080B483B000AF7860034B7A681A600C373F
:1006E000BD465DF8047B7047D800424280B483B0B9
:1006F00000AF78600B46FB70FB78002B06D0094BEF
:10070000084A51697A680A435A6106E0054B054A6E
:1007100051697A68D2430A405A610C37BD465DF888
:10072000047B70470010024080B483B000AF786053
:100730000B46FB70FB78002B06D0094B084A9169E9
:100740007A680A439A6106E0054B054A91697A681E
:10075000D2430A409A610C37BD465DF8047B70476E
:100760000010024080B483B000AF78600B46FB708D
:10077000FB78002B06D0094B084AD1697A680A43F6
:10078000DA6106E0054B054AD1697A68D2430A402E
:10079000DA610C37BD465DF8047B704700100240FB
:1007A00080B483B000AF78600B46FB70FB78002B01
:1007B00006D0094B084AD1687A680A43DA6006E035
:1007C000054B054AD1687A68D2430A40DA600C3793
:1007D000BD465DF8047B70470010024080B483B0D2
:1007E00000AF78600B46FB70FB78002B06D0094BFE
:1007F000084A11697A680A431A6106E0054B054AFE
:1008000011697A68D2430A401A610C37BD465DF817
:10081000047B70470010024080B584B000AF786060
:100820000023FB730023BB7300F010FA7B681A7877
:100830007B685B781343DAB27B689B781343DAB248
:10084000FB7B1343DBB2FB737B681A797B685B79B4
:100850001343DAB27B689B791343DAB27B68DB78A7
:100860001343DAB2BB7B1343DBB2BB7307F10F0355
:10087000322020211A4600F073F807F10E033220CF
:1008800023211A4600F06CF81037BD4680BD00BF2A
:1008900080B584B000AF786007F10F0332202121CA
:1008A0001A46012300F00CF9FB7B03F00C03DBB2CA
:1008B000FB737B681A787B685B781343DAB27B68DA
:1008C0009B781343DAB27B68DB781343DAB2FB7BA5
:1008D0001343DBB2FB7307F10F03322021211A46C9
:1008E00000F03EF81037BD4680BD00BF80B584B033
:1008F00000AF78600023FB730023BB7300237B737E
:1009000000F0A4F97B681A787B685B781343DAB24D
:10091000FB7B1343DBB2FB737B68DA78BB7B13434F
:10092000DBB2BB737B689A787B7B1343DBB27B7350
:1009300007F10F033C2000211A4600F011F807F1DF
:100940000E033C2001211A4600F00AF807F10D03BE
:100950003C2002211A4600F003F81037BD4680BD46
:1009600080B584B002AF0B463A600246FA71BB71A3
:10097000514B4FF420421A600BE04F4B1B68591E3D
:100980004D4A1160002B04D102F024FA03469BB2B9
:100990008EE04A484FF4004102F084FD0346002BEC
:1009A000EBD1FB799BB24FF40052009243481946B9
:1009B00001224FF0807302F02DFD3F4B4FF4204297
:1009C0001A600BE03C4B1B68591E3B4A1160002B20
:1009D00004D102F0FFF903469BB269E037480221D7
:1009E00002F060FD0346002BECD0BB79334819467A
:1009F00002F03CFD304B4FF420421A600BE02E4BCE
:100A00001B68591E2C4A1160002B04D102F0E2F938
:100A100003469BB24CE02948802102F043FD034687
:100A2000002BECD0FB799BB20022009223481946A0
:100A300001224FF0007302F0EDFC1F4B4FF42042F7
:100A40001A600BE01C4B1B68591E1B4A1160002BDF
:100A500004D102F0BFF903469BB229E017480221F6
:100A600002F020FD0346002BECD03B681B781348B6
:100A7000194602F0FBFC104B4FF420421A600BE0C9
:100A80000D4B1B68591E0C4A1160002B04D102F05B
:100A9000A1F903469BB20BE00848202102F002FDB9
:100AA0000346002BECD00548202102F01BFD00235B
:100AB00018460837BD4680BD2C0000200054004079
:100AC00080B584B002AF3A600246FA710A46BA7144
:100AD000BB805C4B4FF420421A600BE0594B1B6803
:100AE000591E584A1160002B04D102F073F90346D5
:100AF0009BB2A2E054484FF4004102F0D3FC0346FD
:100B0000002BEBD1FB799BB24FF4005200924E4880
:100B100019460122002302F07DFC4A4B4FF420428B
:100B20001A600BE0474B1B68591E464A1160002BA8
:100B300004D102F04FF903469BB27EE04248022105
:100B400002F0B0FC0346002BECD0BB88012B03D98C
:100B5000BB7963F07F03BB71BB793B48194602F058
:100B600085FC384B4FF420421A600BE0354B1B6874
:100B7000591E344A1160002B04D102F02BF90346B0
:100B80009BB25AE03048402102F08CFC0346002B17
:100B9000ECD0FB799AB2BB88DBB24FF410510091D4
:100BA000294811461A464FF0007302F033FC24E046
:100BB000244B4FF420421A600BE0224B1B68591E55
:100BC000204A1160002B04D102F004F903469BB2C5
:100BD00033E01D48042102F065FC0346002BECD0F5
:100BE000194802F051FC03461A463B681A703B68EC
:100BF00001333B60BB88013BBB80BB88002BD7D156
:100C0000104B4FF420421A600BE00E4B1B68591E2C
:100C10000C4A1160002B04D102F0DCF803469BB2B1
:100C20000BE00948202102F03DFC0346002BECD0EC
:100C30000548202102F056FC002318460837BD461F
:100C400080BD00BF2C0000200054004080B58CB057
:100C500000AF4FF400100121FFF784FD4FF4802016
:100C60000121FFF743FD4FF400100121FFF73EFD86
:100C70004FF400100121FFF739FD4FF4001001215E
:100C8000FFF734FD41480621042200F01FFE3F48D3
:100C90000721042200F01AFE022387F82C300023DB
:100CA00087F82E30022387F82F30032387F82D3062
:100CB0004023BB6207F128033448194600F03AFD8F
:100CC0008023BB6207F128033048194600F032FD4B
:100CD000002387F82C30002387F82E30002387F874
:100CE0002F30032387F82D300423BB6207F128033C
:100CF0002748194600F01EFD0420022102F060FE84
:100D000002233B62002387F82430082387F825302C
:100D1000012387F8263007F12003184602F06AF80D
:100D200000233B610023BB600023FB6000237B6149
:100D30000023BB610023FB61164B7B603B1D164803
:100D4000194602F0E7FA1448012102F047FB10238C
:100D5000BB62002387F82C30002387F82E30032352
:100D600087F82D30002387F82F3007F12803084833
:100D7000194600F0DFFC2023BB6207F1280304487A
:100D8000194600F0D7FC3037BD4680BD000400484E
:100D900000100048252090000054004080B483B02B
:100DA00000AF0346FB80054AF9884FF6F8730B4005
:100DB00013600C37BD465DF8047B7047505C004003
:100DC00080B483B000AF02460B46FA71BB80FB795A
:100DD0009B0003F1804303F5B843FA79920002F1D6
:100DE000804202F5B842126892B222F4EC4222F03C
:100DF000700291B2BA880A4392B292B21A600C376A
:100E0000BD465DF8047B704790B482B000AF0246E7
:100E10000B46FA71BB80FB799B0003F1804303F51D
:100E2000B8431B689BB223F4E04323F040039CB219
:100E3000BB8803F010039BB2002B02D084F0100398
:100E40009CB2BB8803F020039BB2002B02D084F03D
:100E500020039CB2FB799B0003F1804303F5B84368
:100E6000034A224392B21A600837BD4690BC7047CD
:100E70008080FFFF90B482B000AF02460B46FA714B
:100E8000BB80FB799B0003F1804303F5B8431B68EB
:100E90009BB223F4804323F070039CB2BB8803F41D
:100EA00080539BB2002B02D084F480539CB2BB8849
:100EB00003F400539BB2002B02D084F400539CB285
:100EC000FB799B0003F1804303F5B843034A2243B7
:100ED00092B21A600837BD4690BC70478080FFFF11
:100EE00090B482B000AF0346FB71FB799B0003F125
:100EF000804303F5B8431B689BB223F4804323F07F
:100F000070039CB284F480539CB284F400539CB26E
:100F1000FB799B0003F1804303F5B843034A224366
:100F200092B21A600837BD4690BC70478080FFFFC0
:100F300080B483B000AF0346FB71FB799B0003F1E3
:100F4000804202F5B842FB799B0003F1804303F530
:100F5000B8431B689BB223F4F8731B051B0D9BB2AF
:100F600043F07F4343F47F0343F4004343F08003A3
:100F70009BB29BB213600C37BD465DF8047B704793
:100F800080B483B000AF02460B46FA71BB800B4BB6
:100F90001B689BB21A46FB79DB00134403F1005334
:100FA00003F540535B00BA88520892B252001A60AF
:100FB0000C37BD465DF8047B704700BF505C0040B5
:100FC00080B483B000AF02460B46FA71BB800A4B77
:100FD0001B689BB21A46FB79DB001A44074B13448B
:100FE0005B00BA88520892B252001A600C37BD46B4
:100FF0005DF8047B704700BF505C00400430002067
:1010000080B483B000AF02460B46FA71BB80084B38
:101010001B689BB21A46FB79DB001A44054B13444C
:101020005B00BA881A600C37BD465DF8047B7047D8
:10103000505C00400230002080B485B000AF024612
:101040000B46FA71BB801B4B1B689BB21A46FB799F
:10105000DB001A44184B13445B00BB60BB883E2B7B
:1010600012D9BB885B09FB81BB8803F01F03002BEF
:1010700002D1FB89013BFB81FB899B0243F40043C6
:101080001A46BB681A600FE0BB885B08FB81BB880F
:1010900003F00103002B02D0FB890133FB81FB89A4
:1010A0009B021A46BB681A601437BD465DF8047B84
:1010B000704700BF505C00400630002080B582B011
:1010C00000AF4FF080500121FFF74CFB01200121C0
:1010D000FFF72AFB4FF400100121FFF707FB4FF445
:1010E00000300121FFF702FB4FF4C0533B600323A4
:1010F0007B7102233B710023BB710023FB713B46D4
:101100004FF09040194600F015FB4FF090400B2136
:101110000E2200F0DBFB4FF090400C210E2200F07D
:10112000D5FB0020012102F007FD122001F094FF01
:101130000A4B12221A60094B00221A71074B08222F
:101140005A71064B01229A71044801F053FE0020A7
:1011500001F082FF0837BD4680BD00BF9C0500201E
:1011600080B500AF0020FFF7B3FA4FF40000012173
:10117000FFF7F8FA80BD00BF80B582B000AF4FF432
:10118000A06002F0D7F914233B7102237B71002386
:10119000BB710123FB713B1D184602F0DDF92A23C8
:1011A0003B7101237B710123FB713B1D184602F04B
:1011B000D3F906233B7100237B713B1D184602F0D7
:1011C000CBF90837BD4680BD80B582B000AF03467D
:1011D000FB71FB79002B05D006484FF4804100F0ED
:1011E00067FB04E003484FF4804100F053FB0837ED
:1011F000BD4680BD0010004880B584B000AF0E4BE6
:101200001B68FB600D4B1B68BB600D4B1B687B6054
:10121000FA687B681344FB60FB68002B09D0F86810
:101220000849082200F012F8B8680749042200F0C3
:101230000DF81037BD4680BDE8F7FF1FECF7FF1F24
:10124000F0F7FF1F320000204200002080B487B07A
:1012500000AFF860B9601346FB710023FB750023F3
:10126000FB7525E0FB681B0F092B0AD8FB7D5B0093
:10127000BA681344FA68120FD2B23032D2B21A707E
:1012800009E0FB7D5B00BA681344FA68120FD2B222
:101290003732D2B21A70FB681B01FB60FB7D5B002A
:1012A0000133BA68134400221A70FB7D0133FB75C9
:1012B000FA7DFB799A42D5D31C37BD465DF8047B95
:1012C000704700BF80B500AFFFF796FF054B1B6866
:1012D00000229A7200F040FB02F012F9024B002249
:1012E0001A6080BDD40500204805002080B500AFFD
:1012F000254B1B6800229A72234B1B680022DA726E
:10130000214B1B68214AD2795A720020FFF746FD13
:1013100000204FF40071FFF753FD00201021FFF76C
:1013200073FD00201821FFF74BFE00205821FFF726
:1013300027FE0020FFF7FCFD154B93F82C30002012
:101340001946FFF779FE0020FFF7CAFD01204FF490
:10135000C061FFF735FD01204FF48071FFF710FEEB
:1013600001200421FFF74CFE01200021FFF782FD40
:1013700001202021FFF748FD0020FEF729FF054B43
:1013800001221A6080BD00BFD40500209C560008D1
:10139000500000204805002080B483B000AF074B08
:1013A0007B607B689B7A002B02D0054B05221A607C
:1013B0000C37BD465DF8047B704700BFB4050020C4
:1013C0004805002080B400AF034B04221A60BD46DC
:1013D0005DF8047B704700BF4805002080B400AF73
:1013E000BD465DF8047B704780B400AFBD465DF834
:1013F000047B704780B584B000AF0346FB710023C7
:10140000FB60FB79062B1CD11E4B1B681B7803F07D
:101410007F03012B15D11B4B1B685B79002B10D16F
:10142000184B1B689B78222B02D1174BFB6007E0FF
:10143000144B1B689B78212B02D1144BFB600CE0F2
:101440000BE0104B1B681B7803F07F03212B04D1AA
:10145000FB79032B01D10E4BFB60FB68002B01D104
:1014600002230BE0074B1B68FA689A61054B1B6867
:1014700000225A82FB680020984700231846103744
:10148000BD4680BDD4050020511500087515000823
:10149000F515000880B582B000AF0346FB71094B1B
:1014A0001B681B7803F07F03212B06D1FB790B2BE4
:1014B00003D100F089F8034600E0022318460837FC
:1014C000BD4680BDD405002080B582B000AF034684
:1014D000FB80FB8818460449FEF756FE0346184673
:1014E0000837BD4680BD00BFA400002080B582B093
:1014F00000AF0346FB80FB8818460449FEF744FE14
:10150000034618460837BD4680BD00BFAC0000202A
:1015100080B584B000AF0346FB800B4B1B68DB78C3
:10152000FB73FB7B042B01D9002309E0FB7BDA0072
:10153000064B1344FA8810461946FEF725FE03466B
:1015400018461037BD4680BDD4050020C4000020D9
:1015500080B582B000AF0346FB80FB881846044983
:10156000FEF712FE034618460837BD4680BD00BF91
:10157000B400002080B582B000AF0346FB80FB883A
:1015800018460449FEF700FE034618460837BD46D4
:1015900080BD00BFBC00002080B483B000AF024615
:1015A0000B46FA71BB71BB79002B01D0022305E019
:1015B000FB79002B01D0022300E0002318460C37F2
:1015C000BD465DF8047B704780B483B000AF074B25
:1015D0001B68DB78FB71FA79054B1A60002318460B
:1015E0000C37BD465DF8047B704700BFD405002072
:1015F000A405002080B483B000AF0346FB80FB88C5
:10160000002B05D1064B1B6801221A82002300E043
:10161000044B18460C37BD465DF8047B704700BF8D
:10162000D4050020A405002080B400AFBD465DF8BD
:10163000047B704780B400AFFEE700BF80B400AF0A
:10164000FEE700BF80B400AFFEE700BF80B400AF8C
:10165000FEE700BF80B400AFBD465DF8047B704775
:1016600080B400AFBD465DF8047B704780B400AF26
:10167000BD465DF8047B704780B500AF01F098FB74
:10168000064B1B685A1E054B1A60054B1B78DBB2D4
:101690000133DAB2024B1A7080BD00BFE8000020AF
:1016A0007D05002080B500AF002001F09DFC0346C1
:1016B000012B37D1002002F089FA0346002B31D0EC
:1016C000194B00221A6004E0174B1B685A1C164B7A
:1016D0001A60154B1A68154B9A42F5D900BF0020C5
:1016E00002F074FA0346002BF9D10F4B00221A6066
:1016F00004E00D4B1B685A1C0B4B1A600A4B1A680E
:101700000A4B9A42F5D90A4B1B685A1C084B1A60BF
:10171000074B1B68022B02D9054B00221A600020E0
:1017200001F09AFC80BD00BF44050020FEFF0700C9
:101730005005002080B487B000AF78603960002386
:101740007B6100233B610023FB6000237B617CE025
:101750007B69012202FA03F33B613B681A683B692B
:101760001340FB60FA683B699A426BD13B681B7976
:10177000012B03D03B681B79022B34D17B689A681C
:101780007B695B00032101FA03F3DB431A407B68AA
:101790009A607B689A683B685B7919467B695B0055
:1017A00001FA03F31A437B689A607B689B889AB2BC
:1017B0007B699BB2012101FA03F39BB2DB439BB22D
:1017C00013409AB27B689A807B689B889AB23B6888
:1017D0009B7919467B699BB201FA03F39BB21343D1
:1017E0009AB27B689A807B681A687B695B000321E8
:1017F00001FA03F3DB431A407B681A607B681A68BE
:101800003B681B7919467B695B0001FA03F31A43B5
:101810007B681A607B68DA687B699BB25B00032196
:1018200001FA03F3DB431A407B68DA607B68DA680D
:101830003B68DB7919467B695B0001FA03F31A43C5
:101840007B68DA607B6901337B617B690F2B7FF6F4
:101850007FAF1C37BD465DF8047B704780B485B010
:1018600000AF78600B467B800023FB737B681B8A8C
:101870009AB27B8813409BB2002B02D00123FB73EA
:1018800001E00023FB73FB7B18461437BD465DF86F
:10189000047B704780B483B000AF78600B467B80D8
:1018A0007A887B689A610C37BD465DF8047B704787
:1018B00080B483B000AF78600B467B807B687A8809
:1018C0001A850C37BD465DF8047B704780B485B03F
:1018D00000AF786013460A467A807B700023FB6075
:1018E0000023BB607A787B8803F007039B0002FA31
:1018F00003F3FB607B88DB089BB21A467B88DB081E
:101900009BB219467B68083153F821107B8803F09D
:1019100007039B000F2000FA03F3DB4319407B68A9
:10192000083243F822107B88DB089BB21A467B689A
:10193000083253F82220FB681343BB607B88DB0826
:101940009BB21A467B680832B96843F822101437F4
:10195000BD465DF8047B704780B582B000AF0120C2
:10196000FFF732FC0123FB800C4BFA881A600C4B0A
:1019700000221A80094B0A4A12881A60094B002279
:101980001A60074B4FF4E0521A80044B044A128845
:101990001A60002318460837BD4680BD405C0040F1
:1019A000D8050020445C004080B500AF084B094AD0
:1019B0001A60074B1B6802221A72074B074A1A600B
:1019C000074B084A1A60044B1B681B68984780BD88
:1019D000D4050020B4050020AC05002050000020F4
:1019E000D00500208000002080B483B000AF034603
:1019F0003960FB7197F90730002B0BDA0D49FB7941
:101A000003F00F03043B3A68D2B21201D2B20B4486
:101A10001A7609E0084997F907303A68D2B21201FC
:101A2000D2B20B4483F800230C37BD465DF8047B2B
:101A3000704700BF00ED00E000E100E080B582B03B
:101A400000AF78607B68B3F1807F01D3012311E0A0
:101A50000A4B7A6822F07F42013A5A604FF0FF3019
:101A60000F21FFF7C1FF054B00229A60034B0722AD
:101A70001A60002318460837BD4680BD10E000E01C
:101A800090B583B000AF0023FB71BD48FEF716FC94
:101A9000BB4B5A68BB4BA3FB02135B091846FFF70D
:101AA000CDFF002001F0CAFF012001F0C7FF022096
:101AB00001F0C4FF032001F0C1FF042001F0BEFFCC
:101AC000052001F0BBFF062001F0B8FF072001F060
:101AD000B5FF0020012102F02FF800F069FEAA4BAB
:101AE00000221A60002001F0EFFF032001F0ECFF5C
:101AF000042001F0E9FF012001F0E6FF072001F0DA
:101B0000E3FF052001F0E0FF062001F0DDFF0220E9
:101B100001F0DAFF2FE0002001F0EEFF052001F0D8
:101B200033F9022001F0E8FF052001F02DF904202F
:101B300001F0E2FF052001F027F9062001F0DCFFAB
:101B4000052001F021F9072001F0D6FF052001F062
:101B50001BF9052001F0D0FF052001F015F9032045
:101B600001F0CAFF052001F00FF9012001F0C4FFC8
:101B7000052001F009F9844B1B68002BCBD0834B67
:101B800000221A70002001F09FFF032001F09CFF4B
:101B9000042001F099FF012001F096FF072001F0D9
:101BA00093FF052001F090FF062001F08DFF022039
:101BB00001F08AFF00F014FE9FE000BF734B1B781A
:101BC000DBB2052BFAD1714B00221A70002001F014
:101BD0007BFF032001F078FF042001F075FF012056
:101BE00001F072FF072001F06FFF052001F06CFF8C
:101BF000062001F069FF022001F066FF644800F052
:101C000013FE634B1B68184603F012FD0346DBB25C
:101C10005BB2002BB8BF5B42DAB25E4B1A705C4B12
:101C20005B68184603F004FD0346DBB25BB2002B91
:101C3000B8BF5B42DAB2584B1A70564B1A78564B03
:101C40001B789A422DD9524B1B68184603F0F0FCC2
:101C50000346DBB25BB2184603F0D0FA03461846DF
:101C60004E4903F0DBFC0346002B02D0072001F0B5
:101C700013FF474B1B68184603F0DAFC0346DBB240
:101C80005BB2184603F0BAFA03461846444903F01B
:101C9000A7FC0346002B00D12FE0002001F0FCFE42
:101CA0002BE03B4B5B68184603F0C2FC0346DBB2FB
:101CB0005BB2184603F0A2FA03461846384903F00F
:101CC0008FFC0346002B02D0032001F0E5FE304BD1
:101CD0005B68184603F0ACFC0346DBB25BB2184607
:101CE00003F08CFA034618462C4903F097FC034690
:101CF000002B02D0042001F0CFFE234B1B68012BE8
:101D00003FF45BAF214B00221A70012001F0DCFE92
:101D1000002001F0D9FE032001F0D6FE042001F0DE
:101D2000D3FE072001F0D0FE052001F0CDFE0620F5
:101D300001F0CAFE022001F0C7FE00F01FFE00F015
:101D40001CBD00BF114B1B78DBB2052BFAD10F4B2A
:101D500000221A704FF090404FF48071FFF79AFD07
:101D6000104800F037FF104800F04CFE4FF0904054
:101D70004FF48071FFF79CFD0023FB7127E000BF4B
:101D8000F40500201F85EB51500500207D05002043
:101D900070050020DC0500207C0500200000A0402C
:101DA0000000A0C05805002064050020FC79FA79E5
:101DB0008B4B53F8223018468A4903F027FB034621
:101DC0001A46874B43F82420FB790133FB71FB79DA
:101DD000022BEBD9824B1A68814B1B6810461946BF
:101DE00003F060FA03461C467D4B5A687C4B5B68E7
:101DF0001046194603F056FA03462046194603F0EA
:101E000049F903461C46764B9A68754B9B68104609
:101E1000194603F047FA03462046194603F03AF9FB
:101E20000346184602F0F2FD02460B4610461946DC
:101E300001F036FF02460B461046194603F0D4F86F
:101E40000246694B1A60664B5B6883F00042664B42
:101E50001B681046194603F0D9FA03461A46634B2D
:101E60001A60624B1A68614B1B681046194603F0F2
:101E700019FA0346184602F0C9FD02460B464FF018
:101E800000005B4902F062FC02460B461046194610
:101E900001F006FF02460B461046194603F0A4F86F
:101EA0000246544B1A604E4B1A684F4B1B68104643
:101EB000194603F0ABFA03461A464F4B1A604E4BD5
:101EC0001A684D4B1B681046194603F0EBF90346A0
:101ED000184602F09BFD02460B464FF000004449B5
:101EE00002F034FC02460B461046194601F0D8FEBB
:101EF00002460B461046194603F076F802463F4B61
:101F00001A603A4B1B6818464FF0000103F086FB3D
:101F10000346002B78D0374B1B6818464FF0000162
:101F200003F07CFB0346002B26D0324B1B6818467F
:101F300002F06CFD02460B461046194601F05CFEAD
:101F400002460B46104619464FF000022C4B02F099
:101F5000B1FD02460B46104619461FA3D3E90023E4
:101F600002F0D2FE02460B461046194603F03CF83A
:101F70000246244B1A60B0E01E4B1B68184602F064
:101F800045FD02460B461046194601F035FE024655
:101F90000B46104619464FF00002194B02F08AFD1D
:101FA00002460B46104619460BA3D3E9002302F064
:101FB000ABFE02460B46104619464FF00002104B8E
:101FC00002F0C6FB02460B461046194603F00CF819
:101FD00002460C4B1A6080E000000060FB210940C3
:101FE000640500200000C842F0050020E80500203C
:101FF0000000F03FE0050020EC05002080050020F7
:102000000080664084050020894B1B6818464FF00D
:10201000000103F003FB0346002B2FD0844B1B6809
:10202000184602F0F3FC02460B461046194601F032
:10203000E3FD02460B46104619464FF000027D4B69
:1020400002F038FD02460B461046194676A3D3E946
:10205000002302F059FE02460B46104619464FF087
:102060000002754B02F074FB02460B4610461946FF
:1020700002F0BAFF0246714B1A602EE06C4B1B68EF
:10208000184602F0C3FC02460B461046194601F002
:10209000B3FD02460B46104619464FF00002654B51
:1020A00002F008FD02460B46104619465EA3D3E92E
:1020B000002302F029FE02460B46104619464FF057
:1020C00000025C4B02F044FB02460B4610461946E8
:1020D00002F08AFF0246594B1A60594B1B6818469A
:1020E0004FF0000103F09AFA0346002B60D0554BE5
:1020F0001B6818464FF0000103F090FA0346002BCE
:1021000026D0504B1B68184602F080FC02460B4656
:102110001046194601F070FD02460B46104619465E
:102120004FF00002434B02F0C5FC02460B4610463E
:1021300019463DA3D3E9002302F0E6FD02460B4613
:102140001046194602F050FF02463F4B1A60ACE0C1
:102150003C4B1B68184602F059FC02460B461046E1
:10216000194601F049FD02460B46104619464FF04C
:102170000002304B02F09EFC02460B461046194608
:1021800029A3D3E9002302F0BFFD02460B46104607
:1021900019464FF00002274B02F0DAFA02460B46CE
:1021A0001046194602F020FF0246274B1A607CE0D9
:1021B000244B1B6818464FF0000103F02FFA03462A
:1021C000002B43D01F4B1B68184602F01FFC024631
:1021D0000B461046194601F00FFD02460B4610460D
:1021E00019464FF00002134B02F064FC02460B4606
:1021F000104619460CA3D3E9002302F085FD0246E0
:102200000B46104619464FF000020B4B02F0A0FAA5
:1022100002460B461046194602F0E6FE02460A4BFD
:102220001A6042E0AFF3008000000060FB2109402B
:10223000E005002000806640008076408405002094
:10224000EC0500208005002088050020944B1B68C9
:10225000184602F0DBFB02460B461046194601F019
:10226000CBFC02460B46104619464FF000028D4B40
:1022700002F020FC02460B461046194686A3D3E91D
:10228000002302F041FD02460B46104619464FF06E
:102290000002844B02F05CFA02460B4610461946D7
:1022A00002F0A2FE0246804B1A60804B1B68184663
:1022B0007F4903F0A9F90346002B09D07B4B1B682B
:1022C00018467B4902F0E4FE03461A46774B1A6033
:1022D000754B1B681846764903F096F90346002BA8
:1022E00009D0714B1B681846714902F0D1FE0346B4
:1022F0001A466D4B1A606F4B1A68694B1B68104683
:10230000194602F0CFFF03461C466A4B9A686A4B97
:102310001B681046194602F0C5FF034620461946C1
:1023200002F0B8FE03461A46644B1A60614B1A6805
:10233000634B1B681046194602F0B4FF03461A4669
:102340005D4B1B681046194602F0ACFF03461C4665
:10235000584B5A685B4B1B681046194602F0A2FFA7
:1023600003462046194602F095FE03461C46514B93
:102370005A68534B1B681046194602F093FF0346F8
:102380001A46474B1B681046194602F08BFF03465E
:102390002046194602F07CFE03461A464A4B1A6054
:1023A000494B1A68454B1B681046194601F0CEFC94
:1023B00003461846454902F075FF0346184644494E
:1023C00003F024F803461A46424B1A60414B1B683F
:1023D00018464FF0000103F003F90346002B09D023
:1023E0003C4B1B681846324902F054FE03461A461D
:1023F000384B1A602D4B1B681846374903F0FAF822
:102400000346002B00F09E81274B1B68184632497B
:1024100003F0F0F80346002B00F094812D4B1B686D
:1024200018462E4903F0DCF80346002B09D0294B4F
:102430001B6818464FF0000103F0E6F80346002B36
:1024400011D1244B1B681846254903F0DDF80346DB
:10245000002B47D01F4B1B681846154903F0CAF8DC
:102460000346002B3ED0072001F016FB002001F0B0
:102470002BFB032001F028FB042001F025FB0120A9
:1024800001F022FB052001F01FFB062001F01CFBE0
:10249000022001F019FB54E100000060FB2109401B
:1024A000800500200080664088050020840500200B
:1024B0000000B44358050020EC050020E40500208E
:1024C000E8050020E00500208C05002000003443D2
:1024D000DB0F494054050020000020420000C841A5
:1024E0000000AA43A84B1B681846A84903F078F8D7
:1024F0000346002B21D0A44B1B681846A44903F0C7
:1025000083F80346002B18D0062001F0C5FA0320FB
:1025100001F0DAFA072001F0D7FA002001F0D4FA2E
:10252000052001F0D1FA022001F0CEFA012001F0DD
:10253000CBFA042001F0C8FA03E1934B1B6818465C
:10254000944903F04DF80346002B21D08E4B1B68B5
:1025500018468E4903F058F80346002B18D0042083
:1025600001F09AFA002001F0AFFA012001F0ACFA74
:10257000062001F0A9FA072001F0A6FA052001F0D3
:10258000A3FA032001F0A0FA022001F09DFAD8E09E
:102590007D4B1B681846804903F022F80346002B48
:1025A00021D0794B1B6818467A4903F02DF8034671
:1025B000002B18D0022001F06FFA032001F084FAFA
:1025C000072001F081FA052001F07EFA062001F0D3
:1025D0007BFA042001F078FA012001F075FA00205E
:1025E00001F072FAADE0684B1B6818466B4902F0C7
:1025F000F7FF0346002B21D0634B1B681846664942
:1026000003F002F80346002B18D0002001F044FA32
:10261000032001F059FA012001F056FA052001F0DB
:1026200053FA062001F050FA022001F04DFA07207B
:1026300001F04AFA042001F047FA82E0524B1B688D
:102640001846574902F0CCFF0346002B21D04E4BD1
:102650001B681846514902F0D7FF0346002B18D0DB
:10266000012001F019FA032001F02EFA072001F0F1
:102670002BFA052001F028FA062001F025FA0220A5
:1026800001F022FA002001F01FFA042001F01CFAE8
:1026900057E03D4B1B681846424902F0A1FF034634
:1026A000002B21D0384B1B6818463D4902F0ACFF87
:1026B0000346002B18D0032001F0EEF9062001F0AC
:1026C00003FA072001F000FA052001F0FDF90020CF
:1026D00001F0FAF9022001F0F7F9012001F0F4F914
:1026E000042001F0F1F92CE0274B1B6818462E4915
:1026F00002F076FF0346002B00D13EE0224B1B6820
:102700001846284902F080FF0346002B00D134E030
:10271000052001F0C1F9032001F0D6F9072001F0EE
:10272000D3F9042001F0D0F9062001F0CDF9002002
:1027300001F0CAF9012001F0C7F9022001F0C4F943
:102740001BE01AE0042001F0D7F9032001F0D4F9CE
:10275000072001F0D1F9052001F0CEF9062001F0A3
:10276000CBF9002001F0C8F9012001F0C5F90220E1
:1027700001F0C2F9052000F007FB0C4B1B68022B8F
:102780003FF4DFAAFFF7AEB95405002000008C42E9
:102790000000C8410000E6420000204300004D4315
:1027A00000007A43008093430000AA4350050020B4
:1027B00080B500AFFEF782FCFEF7D2FCFEF7DCFC32
:1027C000FFF7F2F800BF044B1B68052B03D0034B47
:1027D0001B68002BF7D180BD48050020E8000020D1
:1027E00080B584B000AF08233B7200237B720723BF
:1027F000BB723023FB7200233B7300237B731023D7
:10280000BB7307F10803184600F006FF00233B7175
:1028100000237B713B1D184600F03AFF102000F0AA
:102820005BFF1037BD4680BD90B58BB000AF7860C0
:102830000023BB610023BB8300233B610023BB82D9
:102840000023FB734FF000037B6200233B6207F120
:102850000F0318462321012200F08EFF07F1180311
:1028600018462821062200F087FFFB7B03F0400377
:10287000002B24D100233B621DE03B6A5B00013347
:1028800007F128010B4413F8103C1B029AB23B6A73
:102890005B0007F128010B4413F8103C13449BB272
:1028A0009AB23B6A5B0007F128010B4423F8182C0D
:1028B0003B6A01333B623B6A022BDEDD23E00023EF
:1028C0003B621DE03B6A5B0007F12802134413F8EA
:1028D000103C1B029AB23B6A5B00013307F12801EE
:1028E0000B4413F8103C13449BB29AB23B6A5B0052
:1028F00007F128010B4423F8182C3B6A01333B6293
:102900003B6A022BDEDDFB7B03F03003102B06D08D
:10291000202B07D0002B08D1154B7B6205E0154B0F
:102920007B6202E0144B7B6200BF00233B6218E035
:102930003B6A9B007A68D4183B6A5B0007F1280267
:10294000134433F8183C1BB2184602F057FC0346F8
:102950001846796A02F05AFD034623603B6A013348
:102960003B623B6A022BE3DD2C37BD4690BD00BFC6
:10297000EC91E442549264425C8F644180B586B02D
:1029800000AF4FF440733B6101233B7503237B751C
:102990000023BB750123FB7507F110034FF0904036
:1029A0001946FEF7C7FE00233B7314237B73E02315
:1029B000FB730023BB7307F10C031846FDF796FF6A
:1029C00000233B7140237B710723BB710023BB7243
:1029D00000233B7200237B720823FB713B1D1846CA
:1029E000FDF71AFF80233B7010237B700023BB7020
:1029F0000023FB703B461846FDF74AFF1837BD46DB
:102A000080BD00BF90B58BB000AF7860002387F821
:102A100026304FF07E533B6207F11403322023210E
:102A20001A460223FEF74CF807F10C033220282146
:102A30001A460623FEF744F87B7D03F04003002B83
:102A400003D0402387F8273002E0102387F827308F
:102A50003B7D03F04003002B04D07B7D03F040035B
:102A6000002B2FD0002387F8263026E097F8263059
:102A700097F826205200013207F12800024412F88C
:102A80001C2C120292B211B297F82620520007F1C4
:102A90002800024412F81C2C114497F8272091FBBF
:102AA000F2F292B25B0007F128010B4423F8102CDC
:102AB00097F82630013387F8263097F82630022B16
:102AC000D4D92EE0002387F8263026E097F8263068
:102AD00097F82620520007F12800024412F81C2C17
:102AE000120292B211B297F826205200013207F179
:102AF0002800024412F81C2C114497F8272091FB5F
:102B0000F2F292B25B0007F128010B4423F8102C7B
:102B100097F82630013387F8263097F82630022BB5
:102B2000D4D907F11403322023211A460223FDF7DA
:102B3000C7FF7B7D03F04003002B03D04FF07A5397
:102B40003B621DE03B7D03F03003102B0DD0102BBA
:102B500002DC002B05D013E0202B0AD0302B0CD048
:102B60000EE04FF07E533B620AE04FF07C533B6235
:102B700006E04FF07A533B6202E0154B3B6200BF28
:102B8000002387F826301CE097F826309B007A68EF
:102B9000D41897F826305B0007F12802134433F865
:102BA000103C1BB2184602F029FB03461846396A4E
:102BB00002F02CFC0346236097F82630013387F897
:102BC000263097F82630022BDED92C37BD4690BD33
:102BD0009FCDAA3DB0B584B000AF78600023BB7232
:102BE0000023FB810023BB810023FB7207F10A0352
:102BF0003C2001211A460123FDF762FF3C200321FE
:102C00005B4A0123FDF75CFF3C200421594A012364
:102C1000FDF756FF3C200721574A0123FDF750FFDF
:102C20003C200821554A0123FDF74AFF3C2005219D
:102C3000534A0123FDF744FF3C200621514A01235A
:102C4000FDF73EFFBB7A03F0E003802B24D0802BFE
:102C500006DC402B12D0602B17D0202B07D035E09C
:102C6000C02B27D0E02B2CD0A02B1CD02EE040F284
:102C70004C43FB814FF47573BB8127E040F257331F
:102C8000FB814FF43E73BB8120E040F29E23FB8129
:102C90004FF41673BB8119E04FF4E173FB814FF4DD
:102CA000C873BB8112E04FF4C873FB8140F2631319
:102CB000BB810BE04FF4A573FB8140F22713BB816E
:102CC00004E0E623FB81CD23BB8100BF0023FB7220
:102CD00028E0FB7A9B007A68D418FB7A5B00244AD0
:102CE000D35C1B029AB2FB7A5B0001332049CB5CB8
:102CF00013449BB29BB21BB24FF47A7202FB03F3F4
:102D0000184602F07BFA0546FB89184602F076FA6F
:102D100003462846194602F079FB03462360FB7AF6
:102D20000133FB72FB7A012BD3D97B6803F10804D2
:102D30000F4B1B791B029AB20D4B5B7913449BB26C
:102D40009BB21BB24FF47A7202FB03F3184602F0F7
:102D500055FA0546BB89184602F050FA0346284644
:102D6000194602F053FB034623601037BD46B0BD41
:102D70009005002091050020920500209305002079
:102D8000940500209505002080B483B000AF7860E2
:102D90007A68064B1A6000BF044B1B68002BFBD1FE
:102DA0000C37BD465DF8047B704700BF4C05002022
:102DB00080B400AF064B1B68002B04D0044B1B688B
:102DC0005A1E034B1A60BD465DF8047B704700BF76
:102DD0004C05002080B400AF00231846BD465DF8C6
:102DE000047B704780B400AF00231846BD465DF8F1
:102DF000047B704780B485B000AF78600023FB602F
:102E0000754BFB607B689B79002B00F0C8807B686A
:102E10001B685B0903F1007303F502635B011A464B
:102E20007B681B685B0903F1007303F502635B01B8
:102E300019687B681B6803F01F03012000FA03F385
:102E4000DB430B4013607B681B685B095A01634BD3
:102E500013441A467B681B685B0959015F4B0B449E
:102E600019687B681B6803F01F03012000FA03F355
:102E7000DB430B4013607B681B791A467B681B6839
:102E80005B095B011344FA681344FB60FB68FA6852
:102E900011687A68126802F01F02012000FA02F23B
:102EA0000A431A604C4BFB607B681B685B095A0144
:102EB0004B4B13441A467B681B685B095901484B0E
:102EC0000B4419687B681B6803F01F03012000FA9C
:102ED00003F3DB430B4013607B681B685B095A01FB
:102EE000404B13441A467B681B685B0959013D4BF4
:102EF0000B4419687B681B6803F01F03012000FA6C
:102F000003F3DB430B4013607B685B79102B2ED1FE
:102F10007B681B685B095A01314B13441A467B6876
:102F20001B685B0959012E4B0B4419687B681B68B1
:102F300003F01F03012000FA03F30B4313607B68C7
:102F40001B685B095A01274B13441A467B681B68B0
:102F50005B095901234B0B4419687B681B6803F01C
:102F60001F03012000FA03F30B4313602FE07B687B
:102F70005B791A467B681B685B095B011344FA683E
:102F80001344FB60FB68FA6811687A68126802F003
:102F90001F02012000FA02F20A431A6017E07B6860
:102FA0001B791A467B681B685B095B011344FA684E
:102FB0001344FB60FB68FA6811687A68126802F0D3
:102FC0001F02012000FA02F2D2430A401A601437AD
:102FD000BD465DF8047B70470004014004040140D5
:102FE000080401400C04014080B485B000AF786053
:102FF0000023FB730023BB607B685B0903F1007354
:1030000003F502635B011A687B6803F01F0301216B
:1030100001FA03F31340BB607B685B095A010D4B57
:1030200013441A687B6803F01F03012101FA03F3BC
:103030001340002B05D0BB68002B02D00123FB738B
:1030400001E00023FB73FB7B18461437BD465DF897
:10305000047B70471404014080B483B000AF7860F3
:103060007B685B095A01074B13447A6802F01F0220
:10307000012101FA02F21A600C37BD465DF8047BAB
:10308000704700BF1404014080B582B000AF786083
:103090007A68174B9A420AD14FF480500121FDF70C
:1030A0007FFB4FF480500021FDF77AFB1CE07A682B
:1030B000104B9A420AD14FF480400121FDF78EFB5C
:1030C0004FF480400021FDF789FB0DE07A680A4B40
:1030D0009A4209D14FF400400121FDF77FFB4FF4E4
:1030E00000400021FDF77AFB0837BD4680BD00BFD8
:1030F0000030014000380040003C004080B485B002
:1031000000AF786039600023FB813B685B88B3F5D2
:10311000827F36D17B681B88FB81FB8903F4415396
:10312000FB813B681A883B685B8813439AB23B6813
:10313000D9883B681B890B4399B23B6858893B6827
:103140009B89034398B23B68DB8903439BB20B43E3
:103150009BB213439AB2FB891343FB817B68FA89C4
:103160001A807B689B88FB81FB8923F47063FB8159
:103170003B689A88FB891343FB817B68FA899A80B4
:1031800035E07B689B88FB81FB8923F47063FB81BE
:103190003B689A88FB891343FB817B68FA899A8094
:1031A0007B681B88FB81FB8903F44153FB813B68EF
:1031B0001A883B685B8813439AB23B68D9883B689E
:1031C0001B890B4399B23B6858893B689B89034331
:1031D00098B23B68DB8903439BB20B439BB213431A
:1031E0009AB2FB891343FB817B68FA891A807B685A
:1031F0009B8B9BB223F400639AB27B689A833B68F3
:103200001A8A7B681A821437BD465DF8047B7047C2
:1032100080B483B000AF78600B46FB70FB78002B66
:1032200008D07B681B889BB243F040039AB27B684E
:103230001A8007E07B681B889BB223F040039AB298
:103240007B681A800C37BD465DF8047B704700BF71
:1032500080B483B000AF78600B467B807B689B882E
:103260009BB223F480539AB27B689A807B689B88D8
:103270009AB27B8813439AB27B689A800C37BD461A
:103280005DF8047B704700BF80B485B000AF786004
:103290000B46FB700023FB607B68FB60FB680C3314
:1032A000FB60FB68FA781A701437BD465DF8047B42
:1032B000704700BF80B485B000AF78600023FB602A
:1032C0007B68FB60FB680C33FB60FB681B78DBB240
:1032D00018461437BD465DF8047B704780B485B04E
:1032E00000AF78600B467B800023FB737B681B89F3
:1032F0009AB27B8813409BB2002B02D00123FB7350
:1033000001E00023FB73FB7B18461437BD465DF8D4
:10331000047B704780B485B000AF786039600023CB
:10332000FB607B681B6823F001027B681A607B6886
:103330001B68FB60FA68284B1340FB603B685A68C7
:103340003B689B681B021343FA681343FB607B686E
:10335000FA681A603B681B6823F070627B681A6128
:103360007B681B6843F001027B681A600023FB60E6
:103370007B68FA689A607B68FA68DA603B689A69E9
:103380003B681B691343FB607B68FA689A607B6843
:103390009B6843F400427B689A603B68DB68FB6093
:1033A0007B681A68FB681A437B681A607B685B68F5
:1033B000FB60FB6823F0784323F40043FB603B6829
:1033C0005B69FA681343FB607B68FA685A601437DC
:1033D000BD465DF8047B7047FFE0CF0080B483B04A
:1033E00000AF78600B46FB70FB78002B06D07B6843
:1033F0001B6843F001027B681A6005E07B681B686C
:1034000023F001027B681A600C37BD465DF8047B2F
:10341000704700BF80B487B000AFF8607B600B4698
:103420007B8113467B7200237B61FB685B687B6159
:103430007A690D4B13407B617B89C3F309027B7A68
:103440001B0403F47F031A437B681A433B6A13434C
:103450007A6913437B61FB687A695A601C37BD4601
:103460005DF8047B704700BF009800FC80B483B017
:1034700000AF78600B46FB70FA787B689A620C3775
:10348000BD465DF8047B704780B483B000AF7860C0
:103490007B685B6ADBB218460C37BD465DF8047B7F
:1034A000704700BF80B485B000AF786039600023FA
:1034B000BB600023FB737B689B69BB60BA683B6899
:1034C0001340BB60BB68002B02D00123FB7301E0FB
:1034D0000023FB73FB7B18461437BD465DF8047B65
:1034E000704700BF80B483B000AF786039607B68FC
:1034F0003A68DA610C37BD465DF8047B704700BF5F
:1035000080B400AF084B00221A60084B4FF43F42D2
:103510001A80074B054A12881A6000231846BD46D8
:103520005DF8047B704700BF445C0040D805002074
:10353000405C004080B483B000AF7860054A7B688F
:1035400043F0BF6343F40033D3600C37BD465DF8EE
:10355000047B704700ED00E080B487B000AF786076
:1035600000237B6100233B610F23FB607B68DB78DA
:10357000002B38D0264BDB68DB4303F4E0631B0AE7
:103580007B617B69C3F104033B617B69FA6822FAC2
:1035900003F3FB607B685B781A463B6902FA03F32E
:1035A0007B617B689B781A46FB6813407A691343FA
:1035B0007B617B691B017B6116497B681B787A699B
:1035C000D2B20B4483F80023124B7A681278520966
:1035D000D2B27968097801F01F01012000FA01F1E7
:1035E00043F822100EE00B4B7A6812785209D2B2DF
:1035F0007968097801F01F01012000FA01F12032F9
:1036000043F822101C37BD465DF8047B704700BFAD
:1036100000ED00E000E100E080B584B000AF78602C
:103620000023FB730023BB7300F0DCF87B681A787F
:103630007B685B781343DAB27B689B781343DAB21A
:103640007B68DB781343DAB2FB7B1343DBB2FB739B
:103650007B681A797B685B791343DAB27B689B7964
:103660001343DAB2BB7B1343DBB2BB7307F10F0327
:1036700018462021012200F04FF807F10E031846EA
:103680002321012200F048F81037BD4680BD00BF5D
:1036900080B584B000AF786007F10F031846212190
:1036A000012200F069F8FB7B23F03F03DBB2FB73E0
:1036B0007B681A787B685B781343DAB2FB7B134331
:1036C000DBB2FB7307F10F0318462121012200F042
:1036D00023F81037BD4680BD80B584B000AF0346E7
:1036E000FB7107F10F0318462421012200F044F872
:1036F000FB7B23F01003DBB2FB73FA7BFB791343F4
:10370000DBB2FB7307F10F0318462421012200F0FE
:1037100003F81037BD4680BD80B582B000AF786039
:1037200013460A46FA703B803B88012B03D9FB788D
:1037300043F04003FB700F480821FEF7B9F8FB780F
:10374000184600F0F7F80AE07B681B78184600F08E
:10375000F1F83B88013B3B807B6801337B603B8811
:10376000002BF1D103480821FEF794F80837BD4635
:1037700080BD00BF0010004880B582B000AF786007
:1037800013460A46FA703B803B88012B04D9FB782C
:1037900063F03F03FB7003E0FB7863F07F03FB7093
:1037A0000F480821FEF784F8FB78184600F0C2F8AD
:1037B0000CE0002000F0BEF803461A467B681A7041
:1037C0003B88013B3B807B6801337B603B88002B5F
:1037D000EFD103480821FEF75DF80837BD4680BDEC
:1037E0000010004880B588B000AF4FF48050012130
:1037F000FCF79AFF4FF400300121FCF777FF4FF4FC
:1038000000100121FCF772FF4FF400100121FCF7BA
:103810006DFF4FF400100121FCF768FF4FF090405E
:1038200005210522FEF752F84FF0904006210522AF
:10383000FEF74CF84FF0904007210522FEF746F8BE
:1038400002233B770023BB770023FB7703237B779F
:103850002023BB6107F118034FF090401946FDF794
:1038600069FF8023BB6107F118034FF090401946B0
:10387000FDF760FF4023BB6107F118034FF0904054
:103880001946FDF757FF2948FFF7FEFB0023BB80D1
:103890004FF4E0633B8100237B810023BB814FF425
:1038A0000073FB8110233B8200237B820723BB82B2
:1038B0004FF48273FB803B1D1C481946FFF71EFC2A
:1038C0001A484FF48051FFF7C3FC18480121FFF755
:1038D0009FFC0823BB6101233B770023BB770323B5
:1038E0007B7707F1180312481946FDF723FF1048AC
:1038F0000821FDF7CFFF0123BB6100233B770023A5
:10390000BB7703237B770023FB7707F11803084875
:103910001946FDF70FFF0223BB6107F118030448A6
:103920001946FDF707FF2037BD4680BD0030014036
:103930000010004880B582B000AF0346FB711E4BFB
:103940004FF480521A600BE01B4B1B68591E1A4A39
:103950001160002B04D1FFF745FA0346DBB227E0E4
:1039600016480221FFF7BAFC0346002BECD0FB7986
:1039700012481946FFF788FC0F4B4FF480521A602B
:103980000BE00D4B1B68591E0B4A1160002B04D134
:10399000FFF728FA0346DBB20AE008480121FFF7E7
:1039A0009DFC0346002BECD00448FFF783FC034644
:1039B00018460837BD4680BDEC00002000300140AD
:1039C00090B484B000AF02460B46FA71BB7100237D
:1039D000FB60BB7903F003039B000F2202FA03F3A1
:1039E000FB60154BBA799208D2B21349B8798008B6
:1039F000C0B2023051F82000F968C94301400232D8
:103A000043F822100C4BBA799208D2B20A49B8791D
:103A10008008C0B2023051F82000FC79B97901F079
:103A20000301890004FA01F10143023243F8221034
:103A30001037BD4690BC70470000014080B584B08F
:103A400000AF0346FB71FA79104B53F82230184649
:103A50000121FCF74BFEFA790D4B33F81230BB60B5
:103A600001233B730023BB730123FB7303237B738D
:103A7000FA79084B53F8222007F10803104619463B
:103A8000FDF758FE1037BD4680BD00BF68570008DF
:103A900058570008F000002080B483B000AF034600
:103AA000FB71FA79064B53F82230F979054A32F85E
:103AB00011209A610C37BD465DF8047B704700BF4A
:103AC000F00000205857000880B483B000AF0346D0
:103AD000FB71FA79064B53F82230F979054A32F82E
:103AE00011201A850C37BD465DF8047B704700BF76
:103AF000F00000205857000880B483B000AF0346A0
:103B0000FB71FA790A4B53F82230F979084A52F8D6
:103B10002120928A91B2F879064A32F810204A4060
:103B200092B29A820C37BD465DF8047B704700BFA5
:103B3000F00000205857000880B588B000AF02465A
:103B40000B46FA71BB714FF4003318460121FCF7A4
:103B5000CDFD01200121FCF7E7FD00233B77002389
:103B6000FB770123BB61FA79174B53F8222007F149
:103B7000180310461946FDF7DDFDBB79012B1FD157
:103B80000022002310461946FFF71AFF00233B616D
:103B900000233B7508237B750123BB7507F11003D8
:103BA0001846FFF727F906233B730F237B730F2378
:103BB000BB730123FB7307F10C031846FFF7CCFC22
:103BC0002037BD4680BD00BF1001002080B582B007
:103BD00000AF0346FB71FA79064B53F8222001230C
:103BE00010461946FDF73AFE034618460837BD460B
:103BF00080BD00BF100100202DE9F041DFF89C805E
:103C00008AB004460D4600F0A3F898F9003001335D
:103C100006460F4604D02046294600F049FC20B94C
:103C2000304639460AB0BDE8F0812046294600F00A
:103C30003BFC0022164B01F0CDF90028F0D0012307
:103C4000144A00931448019200230893CDE90445D7
:103C5000CDE9024500F056FC98F90030022BCDE981
:103C600006010AD0684600F04BFC30B1089B4BB906
:103C7000DDE906010AB0BDE8F08101F0FFFC212377
:103C80000360F3E701F0FAFC089B0360F0E700BF74
:103C90000000F03FA0570008A457000814010020BE
:103CA0002DE9F047DFF8A0A08AB004460D4600F0E9
:103CB000ABFA9AF90030013306460F460FD0204682
:103CC000294600F0F5FB50B14FF000084FF0000915
:103CD00042464B462046294601F05EF920B930465F
:103CE00039460AB0BDE8F087164B9AF80060019398
:103CF00001220023CDE90445CDE902450092089355
:103D000066B9CDE90689684600F0FAFB80B1089BE8
:103D10009BB9DDE906010AB0BDE8F0874046494697
:103D200042464B4600F0F0FF022ECDE90601EAD1F3
:103D300001F0A4FC21230360E9E701F09FFC089B4C
:103D40000360E6E7A85700081401002000F01CBB40
:103D50002DE9F84F804F21F00046BE4204460D4643
:103D60000EDD06F1404C0CF5801C5CEA000C40F0C6
:103D7000BB80002940F37C8100200021BDE8F88F42
:103D8000764FBE4240F3A8800029C0F276810246F9
:103D90000B460020724900F0D9FC0022714B00F064
:103DA00089FE04460D4600F02FFA55A3D3E90023FF
:103DB000894680462946204600F07CFE52A3D3E97E
:103DC000002300F0C5FC22462B4600F073FE50A3F2
:103DD000D3E9002300F0BAFC22462B4600F06AFE2D
:103DE0004DA3D3E9002300F0B3FC22462B4600F09C
:103DF00061FE4BA3D3E9002300F0A8FC22462B462A
:103E000000F058FE48A3D3E9002300F0A1FC2246AD
:103E10002B4600F04FFE46A3D3E9002382468B4693
:103E20002046294600F046FE43A3D3E9002300F0D4
:103E30008DFC22462B4600F03DFE41A3D3E9002332
:103E400000F086FC22462B4600F034FE3EA3D3E968
:103E5000002300F07BFC22462B4600F02BFE0022C4
:103E60003F4B00F075FC02460B465046594600F0A9
:103E70004BFF42464B4600F01DFE002682468B4615
:103E800032464B463046494600F014FE02460B4689
:103E90002046294600F05AFC324604460D464B4661
:103EA0004046494600F054FC02460B46204629464F
:103EB00000F02AFF02460B465046594600F048FCE7
:103EC00002460B463046494600F042FC02460B468D
:103ED00000F03EFCBDE8F88F234B9E4246DC1CA15F
:103EE000D1E90001BDE8F88F02460B4600F02EFC38
:103EF00002460B4600F008FFBDE8F88FAFF30080E4
:103F000009F7FD0DE13D023F88B20175E0EF493F41
:103F10003B8F68B52882A43F5544880E55C1C93FE0
:103F20007D6FEB0312D6D43F555555555555C53FBA
:103F300082922EB1C5B8B33F59018D1B6C06E63F86
:103F4000C88A599CE52A00404B2D8A1C273A034019
:103F5000182D4454FB21F93FFFFFEF3FFFFFDF3FE8
:103F60000000F03F0000E03F0000603C02460B46CE
:103F700000F0A0FD88A3D3E9002306460F4600F019
:103F800099FD87A3D3E9002300F0E2FB32463B46CC
:103F900000F090FD84A3D3E9002300F0D7FB324664
:103FA0003B4600F087FD82A3D3E9002300F0D0FB5D
:103FB00032463B4600F07EFD7FA3D3E9002300F0AC
:103FC000C5FB32463B4600F075FD7DA3D3E90023D7
:103FD00000F0BEFB32463B4600F06CFD7AA3D3E90D
:103FE0000023804689463046394600F063FD78A3B9
:103FF000D3E9002300F0AAFB32463B4600F05AFD0D
:1040000075A3D3E9002300F0A3FB32463B4600F042
:1040100051FD73A3D3E9002300F098FB32463B46E1
:1040200000F048FD0022764B00F092FB02460B4662
:104030004046494600F068FE02460B4620462946A7
:1040400000F038FD02460B4667A1D1E9000100F0FF
:104050007DFB02460B462046294600F077FB0246D0
:104060000B4663A1D1E9000100F070FBBDE8F88FB9
:1040700061A1D1E90001BDE8F88F0022604B00F09A
:1040800067FB00225F4B00F015FD43A3D3E900233B
:1040900004460D4600F00EFD41A3D3E9002300F0D5
:1040A00057FB22462B4600F005FD3FA3D3E9002332
:1040B00000F04CFB22462B4600F0FCFC3CA3D3E96D
:1040C000002300F045FB22462B4600F0F3FC3AA308
:1040D000D3E9002300F03AFB22462B4600F0EAFC2D
:1040E00037A3D3E9002300F033FB22462B4600F030
:1040F000E1FC804689462046294600F085F832A337
:10410000D3E9002306460F462046294600F0D2FC9C
:104110002FA3D3E9002300F019FB22462B4600F021
:10412000C9FC2DA3D3E9002300F012FB22462B4645
:1041300000F0C0FC2AA3D3E9002300F007FB2246CD
:104140002B4600F0B7FC00222D4B00F001FB02468D
:104150000B464046494600F0D7FD32463B4600F04C
:10416000A9FC21A3D3E9002300F0F0FA02460B4694
:104170003046394600F0ECFA02460B4600F0E8FA09
:1041800002460B461CA1D1E9000100F0DFFABDE8B0
:10419000F88F00BFAFF3008009F7FD0DE13D023F4E
:1041A00088B20175E0EF493F3B8F68B52882A43F94
:1041B0005544880E55C1C93F7D6FEB0312D6D43FDD
:1041C000555555555555C53F82922EB1C5B8B33F8B
:1041D00059018D1B6C06E63FC88A599CE52A0040B0
:1041E0004B2D8A1C273A0340075C143326A6913CCA
:1041F000182D4454FB21F93F182D4454FB2109404C
:104200000000F03F0000E03F21F0004C2DE9F843B2
:104210004FEA1C5CDFF86C814FEA0C5CC445064633
:104220000F460B46024600F08F8000296FDD0F1508
:1042300078D0A7F2FF37C3F31303F90743F48013D1
:1042400060D4D10F4FF0000C01EB43037F105200FC
:10425000654616204FF400116C189C424FEAD27646
:104260004FEA420202DC1B1B65188C44013806EB46
:1042700043034FEA5101EFD1804620264FF0004121
:1042800009E023D0D40F013E4FEA510104EB430370
:104290004FEA42021ED0AB4201EB0804F1DD04F00C
:1042A0000049B9F1004F04EB010809D0A9465B1B96
:1042B000944288BF03F1FF33121B08444D46E1E7E7
:1042C000B8F1000FF2DB05F10109F0E79442E6D9FD
:1042D0001D46D7E71A4304D0431C41D000F0010328
:1042E000184446084FEA6C031CF0010F03F17F539A
:1042F00003F5001318BF46F0004603EB07513046A4
:10430000BDE8F883D10F01EB4303520099E721F098
:104310000043034322D051BB0F46D30A153F520539
:10432000002BFAD013F480111DD15B00D80201F1EB
:104330000101FAD5C1F10100C1F1200422FA04F40F
:10434000234307448A4074E702460B4600F0B2FB61
:1043500032463B4600F0FCF9BDE8F883BDE8F8833F
:104360000CF1010CBEE7202401200021E6E7024603
:104370000B4600F0EBF902460B4600F0C5FCBDE829
:10438000F88300BF0000F07F21F00042B2F1FF4F40
:10439000F8B5044614DC20F00045B5F1FF4F0646A1
:1043A0000EDCB1F17E5F3AD08F1707F0020747EAC3
:1043B000D07755B9022F2FD0032F2FD13148F8BD18
:1043C0000846214600F066FEF8BDFAB1B2F1FF4F93
:1043D00029D0B5F1FF4F19D0AA1AD2153C2A19DC01
:1043E000002938DB204601F011F800F0A7F900F0B1
:1043F0008FF8012F2CD0022F22D0002F2FD022494E
:1044000000F048FE214900F043FEF8BD002E15DB08
:104410001F48F8BD1E48ECE71C48F8BDF8BDBDE8D4
:10442000F84000F075B8B5F1FF4F19D0022FF3D066
:10443000032FC3D0012F1BD00020F8BD1548F8BDB5
:10444000114900F027FE0146104800F021FEF8BD9A
:1044500000F10040F8BD3C32C4DA0020C9E7F8BDE5
:10446000022F0CD0032F08D0012F04D00A48F8BD2A
:104470004FF00040F8BD0948F8BD0948F8BD0948AB
:10448000F8BD00BFDB0F49C02EBDBB33DB0F494079
:10449000DB0FC93FDB0FC9BFDB0F493FDB0F49BF54
:1044A000E4CB16C0E4CB164021F00041704700BFBA
:1044B00031F0004310B408D00F4AA3F580149442A1
:1044C0000AD804205DF8044B704700280CBF022076
:1044D00003205DF8044B7047B3F5801F01D2032021
:1044E000F7E7064A934201D00020F2E7D0F101003D
:1044F00038BF0020EDE700BFFFFFDF7F0000F07F47
:104500000020704700200149704700BF0000F87F7D
:104510002DE9F04120F00045B5F1A14F04460646D3
:1045200008DBB5F1FF4F6FDC002840F3A0806F4837
:10453000BDE8F0816E4B9D4277DCB5F1445F68DBEE
:104540004FF0FF372146204600F0ACFE0146804682
:1045500000F0A8FE6749054600F0A4FE664900F099
:1045600099FD294600F09EFE644900F093FD29461E
:1045700000F098FE624900F08DFD294600F092FEA1
:10458000604900F087FD294600F08CFE5E4900F08E
:1045900081FD414600F086FE5C498046284600F0D9
:1045A00081FE5B4900F074FD294600F07BFE59490D
:1045B00000F06EFD294600F075FE574900F068FDD9
:1045C000294600F06FFE554900F062FD294600F0D3
:1045D00069FE7B1C014640464CD000F05BFD214645
:1045E00000F060FE4E4B4F4D53F8271000F050FD89
:1045F000214600F04DFD014655F8270000F048FD2A
:10460000002E30DBBDE8F081014600F043FDBDE83F
:10461000F081454900F03EFD4FF07E5100F0FEFF75
:1046200000288DD02046BDE8F08100F087F83F4B90
:104630009D42044629DCA3F5D0039D4244DC01469B
:1046400000F028FD4FF07E5100F022FD4FF0804138
:104650000546204600F01EFD0146284600F0D6FE25
:10466000002704466EE700F10040BDE8F0813048C5
:10467000BDE8F08100F00EFD214600F013FE01467A
:10468000204600F005FDBDE8F0812A4B9D4214DC78
:104690004FF07F5100F0FCFC4FF07F510546204663
:1046A00000F000FE4FF07E5100F0F4FC0146284679
:1046B00000F0ACFE0227044644E701461E4800F025
:1046C000A5FE032704463DE74FF07E5100F0E0FCD5
:1046D0004FF07E510546204600F0DCFC014628469E
:1046E00000F094FE012704462CE700BFDB0FC93F12
:1046F000FFFFDF3ED769853C59DA4B3D356B883D7E
:104700006E2EBA3D2549123EABAAAA3E21A215BD86
:104710006BF16E3D95879D3D388EE33DCDCC4C3E93
:10472000B0570008C0570008CAF24971FFFF973F11
:10473000DB0FC9BFFFFF1B40000080BF20F000401F
:10474000704700BF81F0004102E000BF83F00043EA
:1047500030B54FEA41044FEA430594EA050F08BF1C
:1047600090EA020F1FBF54EA000C55EA020C7FEAE0
:10477000645C7FEA655C00F0E2804FEA5454D4EB5D
:104780005555B8BF6D420CDD2C4480EA020281EA27
:10479000030382EA000083EA010180EA020281EA5F
:1047A0000303362D88BF30BD11F0004F4FEA0131B1
:1047B0004FF4801C4CEA113102D0404261EB4101C0
:1047C00013F0004F4FEA03334CEA133302D0524246
:1047D00063EB430394EA050F00F0A780A4F1010402
:1047E000D5F1200E0DDB02FA0EFC22FA05F280183C
:1047F00041F1000103FA0EF2801843FA05F3594122
:104800000EE0A5F120050EF1200E012A03FA0EFCA0
:1048100028BF4CF0020C43FA05F3C01851EBE371CA
:1048200001F0004507D54FF0000EDCF1000C7EEBE7
:1048300000006EEB0101B1F5801F1BD3B1F5001F25
:104840000CD349085FEA30004FEA3C0C04F1010444
:104850004FEA445212F5800F80F09A80BCF1004F6D
:1048600008BF5FEA500C50F1000041EB045141EAEF
:10487000050130BD5FEA4C0C404141EB010111F4F0
:10488000801FA4F10104E9D191F0000F04BF01469B
:104890000020B1FA81F308BF2033A3F10B03B3F179
:1048A00020020CDA0C3208DD02F1140CC2F10C0209
:1048B00001FA0CF021FA02F10CE002F11402D8BF67
:1048C000C2F1200C01FA02F120FA0CFCDCBF41EA33
:1048D0000C019040E41AA2BF01EB0451294330BD02
:1048E0006FEA04041F3C1CDA0C340EDC04F11404DF
:1048F000C4F1200220FA04F001FA02F340EA0300B6
:1049000021FA04F345EA030130BDC4F10C04C4F1FB
:10491000200220FA02F001FA04F340EA03002946DB
:1049200030BD21FA04F0294630BD94F0000F83F425
:10493000801306BF81F480110134013D4EE77FEA08
:10494000645C18BF7FEA655C29D094EA050F08BF54
:1049500090EA020F05D054EA000C04BF1946104635
:1049600030BD91EA030F1EBF0021002030BD5FEA79
:10497000545C05D14000494128BF41F0004130BDA1
:1049800014F580043CBF01F5801130BD01F00045F5
:1049900045F0FE4141F470014FF0000030BD7FEA68
:1049A000645C1ABF194610467FEA655C1CBF0B4663
:1049B000024650EA013406BF52EA033591EA030F7A
:1049C00041F4002130BD00BF90F0000F04BF002172
:1049D000704730B54FF4806404F132044FF00005A5
:1049E0004FF0000150E700BF90F0000F04BF00211E
:1049F000704730B54FF4806404F1320410F0004584
:104A000048BF40424FF000013EE700BF42004FEA7E
:104A1000E2014FEA31014FEA02701FBF12F07F43FB
:104A200093F07F4F81F06051704792F0000F14BFF8
:104A300093F07F4F704730B54FF4607401F000453C
:104A400021F0004120E700BF50EA010208BF704793
:104A500030B54FF000050AE050EA010208BF704788
:104A600030B511F0004502D5404261EB41014FF4F1
:104A7000806404F132045FEA915C3FF4DCAE4FF0F5
:104A800003025FEADC0C18BF03325FEADC0C18BFDC
:104A9000033202EBDC02C2F1200300FA03FC20FA2D
:104AA00002F001FA03FE40EA0E0021FA02F114447A
:104AB000C1E600BF70B54FF0FF0C4CF4E06C1CEA8F
:104AC00011541DBF1CEA135594EA0C0F95EA0C0F04
:104AD00000F0DEF82C4481EA030621EA4C5123EA77
:104AE0004C5350EA013518BF52EA033541F48011A6
:104AF00043F4801338D0A0FB02CE4FF00005E1FB59
:104B000002E506F00042E0FB03E54FF00006E1FBA2
:104B100003569CF0000F18BF4EF0010EA4F1FF04E5
:104B2000B6F5007F64F5407404D25FEA4E0E6D4125
:104B300046EB060642EAC62141EA55514FEAC52036
:104B400040EA5E504FEACE2EB4F1FD0C88BFBCF5B2
:104B5000E06F1ED8BEF1004F08BF5FEA500E50F163
:104B6000000041EB045170BD06F0004646EA010129
:104B700040EA020081EA0301B4EB5C04C2BFD4EB5B
:104B80000C0541EA045170BD41F480114FF0000E54
:104B9000013C00F3AB8014F1360FDEBF002001F0C2
:104BA000004170BDC4F10004203C35DA0C341BDC3C
:104BB00004F11404C4F1200500FA05F320FA04F00E
:104BC00001FA05F240EA020001F0004221F0004142
:104BD00010EBD37021FA04F642EB06015EEA430EB5
:104BE00008BF20EAD37070BDC4F10C04C4F12005E5
:104BF00000FA04F320FA05F001FA04F240EA020098
:104C000001F0004110EBD37041F100015EEA430E68
:104C100008BF20EAD37070BDC4F1200500FA05F288
:104C20004EEA020E20FA04F301FA05F243EA020307
:104C300021FA04F001F0004121FA04F220EA020016
:104C400000EBD3705EEA430E08BF20EAD37070BD5C
:104C500094F0000F0FD101F00046400041EB01013C
:104C600011F4801F08BF013CF7D041EA060195F01E
:104C7000000F18BF704703F00046520043EB0303D8
:104C800013F4801F08BF013DF7D043EA06037047C5
:104C900094EA0C0F0CEA135518BF95EA0C0F0CD0D0
:104CA00050EA410618BF52EA4306D1D181EA030116
:104CB00001F000414FF0000070BD50EA410606BF10
:104CC0001046194652EA430619D094EA0C0F02D155
:104CD00050EA013613D195EA0C0F05D152EA03369A
:104CE0001CBF104619460AD181EA030101F00041B8
:104CF00041F0FE4141F470014FF0000070BD41F001
:104D0000FE4141F4780170BD70B54FF0FF0C4CF4DA
:104D1000E06C1CEA11541DBF1CEA135594EA0C0FF9
:104D200095EA0C0F00F0A7F8A4EB050481EA030E46
:104D300052EA03354FEA013100F088804FEA03332D
:104D40004FF0805545EA131343EA12634FEA0222FB
:104D500045EA111545EA10654FEA00260EF00041BC
:104D60009D4208BF964244F1FD0404F5407402D20E
:104D70005B084FEA3202B61A65EB03055B084FEA9F
:104D800032024FF480104FF4002CB6EB020E75EB9C
:104D9000030E22BFB61A754640EA0C005B084FEAC4
:104DA0003202B6EB020E75EB030E22BFB61A754641
:104DB00040EA5C005B084FEA3202B6EB020E75EB8C
:104DC000030E22BFB61A754640EA9C005B084FEA04
:104DD0003202B6EB020E75EB030E22BFB61A754611
:104DE00040EADC0055EA060E18D04FEA051545EA00
:104DF00016754FEA06164FEAC30343EA52734FEAA9
:104E0000C2025FEA1C1CC0D111F4801F0BD141EA21
:104E100000014FF000004FF0004CB6E711F4801F86
:104E200004BF01430020B4F1FD0C88BFBCF5E06F66
:104E30003FF6AFAEB5EB030C04BFB6EB020C5FEA76
:104E4000500C50F1000041EB045170BD0EF0004ECB
:104E50004EEA113114EB5C04C2BFD4EB0C0541EAFD
:104E6000045170BD41F480114FF0000E013C90E6FA
:104E700045EA060E8DE60CEA135594EA0C0F08BFBE
:104E800095EA0C0F3FF43BAF94EA0C0F0AD150EABD
:104E900001347FF434AF95EA0C0F7FF425AF104650
:104EA00019462CE795EA0C0F06D152EA03353FF478
:104EB000FDAE1046194622E750EA410618BF52EAF5
:104EC00043067FF4C5AE50EA41047FF40DAF52EAC9
:104ED00043057FF4EBAE12E74FF0FF3C06E000BF66
:104EE0004FF0010C02E000BF4FF0010C4DF804CD73
:104EF0004FEA410C7FEA6C5C4FEA430C18BF7FEA33
:104F00006C5C1BD001B050EA410C0CBF52EA430C60
:104F100091EA030F02BF90EA020F0020704710F1E0
:104F2000000F91EA030F58BF994208BF90422CBF6F
:104F3000D8176FEAE37040F0010070474FEA410C68
:104F40007FEA6C5C02D150EA013C07D14FEA430C86
:104F50007FEA6C5CD6D152EA033CD3D05DF8040BF7
:104F6000704700BF8446104662468C461946634629
:104F700000E000BF01B5FFF7B7FF002848BF10F100
:104F8000000F01BD4DF808EDFFF7F4FF0CBF012045
:104F900000205DF808FB00BF4DF808EDFFF7EAFFC1
:104FA00034BF012000205DF808FB00BF4DF808ED7C
:104FB000FFF7E0FF94BF012000205DF808FB00BF71
:104FC0004DF808EDFFF7CEFF94BF012000205DF8FB
:104FD00008FB00BF4DF808EDFFF7C4FF34BF012008
:104FE00000205DF808FB00BF4FEA4102B2F1E04348
:104FF00024BFB3F5001CDCF1FE5C0DD901F0004CC0
:105000004FEAC0024CEA5070B2F1004F40EB83000F
:1050100008BF20F00100704711F0804F21D113F13B
:105020003872BCBF01F00040704741F480114FEA74
:105030005252C2F11802C2F1200C10FA0CF320FAFD
:1050400002F018BF40F001004FEAC1234FEAD3231A
:1050500003FA0CFC40EA0C0023FA02F34FEA430384
:10506000CCE77FEA625307D150EA01331EBF4FF00D
:10507000FE4040F44000704701F0004040F0FE4028
:1050800040F40000704700BF80F0004002E000BF25
:1050900081F0004142001FBF5FEA410392EA030F23
:1050A0007FEA226C7FEA236C6AD04FEA1262D2EB6D
:1050B0001363C1BFD218414048404140B8BF5B4272
:1050C000192B88BF704710F0004F40F4000020F00B
:1050D0007F4018BF404211F0004F41F4000121F021
:1050E0007F4118BF494292EA030F3FD0A2F101026B
:1050F00041FA03FC10EB0C00C3F1200301FA03F1A9
:1051000000F0004302D5494260EB4000B0F5000FCB
:1051100013D3B0F1807F06D340084FEA310102F18A
:105120000102FE2A51D2B1F1004F40EBC25008BF3C
:1051300020F0010040EA03007047490040EB000006
:1051400010F4000FA2F10102EDD1B0FA80FCACF135
:10515000080CB2EB0C0200FA0CF0AABF00EBC25034
:1051600052421843BCBFD0401843704792F0000F22
:1051700081F4000106BF80F400000132013BB5E775
:105180004FEA41037FEA226C18BF7FEA236C21D0EB
:1051900092EA030F04D092F0000F08BF0846704750
:1051A00090EA010F1CBF0020704712F07F4F04D11E
:1051B000400028BF40F00040704712F100723CBF31
:1051C00000F50000704700F0004343F0FE4040F45B
:1051D000000070477FEA226216BF08467FEA236319
:1051E0000146420206BF5FEA412390EA010F40F404
:1051F000800070474FF0000304E000BF10F0004350
:1052000048BF40425FEA000C08BF704743F0964336
:1052100001464FF000001CE050EA010208BF704751
:105220004FF000030AE000BF50EA010208BF7047D8
:1052300011F0004302D5404261EB41015FEA010CED
:1052400002BF84460146002043F0B64308BFA3F1E5
:105250008053A3F50003BCFA8CF2083AA3EBC253C7
:1052600010DB01FA02FC634400FA02FCC2F12002E6
:10527000BCF1004F20FA02F243EB020008BF20F01D
:105280000100704702F1200201FA02FCC2F1200283
:1052900050EA4C0021FA02F243EB020008BF20EA78
:1052A000DC7070474FF0FF0C1CEAD0521EBF1CEAA6
:1052B000D15392EA0C0F93EA0C0F6FD01A4480EA94
:1052C000010C400218BF5FEA41211ED04FF000637D
:1052D00043EA501043EA5111A0FB01310CF00040A9
:1052E000B1F5000F3EBF490041EAD3715B0040EACF
:1052F000010062F17F02FD2A1DD8B3F1004F40EB9F
:10530000C25008BF20F00100704790F0000F0CF071
:10531000004C08BF49024CEA502040EA51207F3A35
:10532000C2BFD2F1FF0340EAC250704740F4000010
:105330004FF00003013A5DDC12F1190FDCBF00F001
:1053400000407047C2F10002410021FA02F1C2F1AF
:10535000200200FA02FC5FEA310040F1000053EA4B
:105360004C0308BF20EADC70704792F0000F00F099
:10537000004C02BF400010F4000F013AF9D040EA9F
:105380000C0093F0000F01F0004C02BF490011F433
:10539000000F013BF9D041EA0C018FE70CEAD15331
:1053A00092EA0C0F18BF93EA0C0F0AD030F0004CB1
:1053B00018BF31F0004CD8D180EA010000F0004065
:1053C000704790F0000F17BF90F0004F084691F023
:1053D000000F91F0004F14D092EA0C0F01D142025D
:1053E0000FD193EA0C0F03D14B0218BF084608D126
:1053F00080EA010000F0004040F0FE4040F4000070
:10540000704740F0FE4040F4400070474FF0FF0C02
:105410001CEAD0521EBF1CEAD15392EA0C0F93EA49
:105420000C0F69D0A2EB030280EA010C49024FEA9B
:10543000402037D04FF0805343EA111143EA101354
:105440000CF000408B4238BF5B0042F17D024FF40C
:10545000000C8B4224BF5B1A40EA0C00B3EB510FE7
:1054600024BFA3EB510340EA5C00B3EB910F24BFD0
:10547000A3EB910340EA9C00B3EBD10F24BFA3EB55
:10548000D10340EADC001B0118BF5FEA1C1CE0D11D
:10549000FD2A3FF650AF8B4240EBC25008BF20F0D0
:1054A000010070470CF0004C4CEA50207F32C2BF24
:1054B000D2F1FF0340EAC250704740F400004FF0C1
:1054C0000003013A37E792F0000F00F0004C02BFF2
:1054D000400010F4000F013AF9D040EA0C0093F0BC
:1054E000000F01F0004C02BF490011F4000F013B16
:1054F000F9D041EA0C0195E70CEAD15392EA0C0F7E
:1055000008D142027FF47DAF93EA0C0F7FF470AFB5
:10551000084676E793EA0C0F04D14B023FF44CAFF8
:1055200008466EE730F0004C18BF31F0004CCAD18D
:1055300030F000427FF45CAF31F000437FF43CAFC9
:105540005FE700BF4FF0FF3C06E000BF4FF0010CEB
:1055500002E000BF4FF0010C4DF804CD4FEA4002CD
:105560004FEA41037FEA226C18BF7FEA236C11D017
:1055700001B052EA530C18BF90EA010F58BFB2EBCA
:10558000030088BFC81738BF6FEAE17018BF40F04A
:10559000010070477FEA226C02D15FEA402C05D1FE
:1055A0007FEA236CE4D15FEA412CE1D05DF8040B83
:1055B000704700BF844608466146FFE70FB5FFF716
:1055C000C9FF002848BF10F1000F0FBD4DF808EDCE
:1055D000FFF7F4FF0CBF012000205DF808FB00BFBF
:1055E0004DF808EDFFF7EAFF34BF012000205DF819
:1055F00008FB00BF4DF808EDFFF7E0FF94BF012066
:1056000000205DF808FB00BF4DF808EDFFF7D2FF62
:1056100094BF012000205DF808FB00BF4DF808EDA5
:10562000FFF7C8FF34BF012000205DF808FB00BF72
:105630004FEA4002B2F1FE4F0FD34FF09E03B3EB9F
:1056400012620DD94FEA002343F0004310F0004FDF
:1056500023FA02F018BF404270474FF00000704735
:1056600012F1610F01D1420205D110F0004008BFD4
:105670006FF0004070474FF000007047014B186812
:10568000704700BF400500201201000200000040EA
:1056900083041057000201020301000009022200E6
:1056A000010100E0320904000001030102000921A8
:1056B00000010001224A00070581030400200000C8
:1056C00005010902A1010901A10005091901290328
:1056D000150025019503750181029501750581016C
:1056E00005010930093109381581257F75089503B1
:1056F0008106C0093C05FF090115002501750195CA
:1057000002B12275069501B101C00000040309042D
:105710002603530054004D006900630072006F00BF
:1057200065006C0065006300740072006F006E001D
:1057300069006300730000001E03530054004D0015
:105740003300320020004A006F00790073007400BB
:10575000690063006B00000000020001000400808B
:105760000008004000100020000020000000200081
:1057700000002000000020000000200000002000A9
:1057800000002000000020000100000000000200D6
:105790000000000000000000000000000600000003
:1057A00061636F7300000000737172740000000089
:1057B0006937AC3168212233B40F14336821A23326
:1057C0003863ED3EDA0F493F5E987B3FDA0FC93F01
:0457D0004300000092
:1057D4000000000001020304010203040607080993
:1057E4000000010002000400060008000A000C008A
:1057F40010002000400080000001000000A0000014
:105804001A03530054004D003300320031003000BD
:105814000000000000000000000000000201000081
:10582400C5120008ED120008DD130008E913000892
:10583400F51300089514000899150008C914000808
:10584400ED140008111500080000000040000000DD
:105854004D020008991300084D0200084D0200088B
:105864004D0200084D0200084D0200084D020008D8
:10587400C513000888560008120000009C56000852
:1058840022000000C05600084A000000AE5600087E
:10589400090000000C57000804000000105700081D
:1058A40026000000385700081E00000030000020C9
:1058B4001A00000001000000640000000010000055
:1058C4000010004800100048001000480010004874
:1058D4000010004800100048001000480010004864
:1058E4000000004801000000000000000404002043
:1058F4006C040020D404002000000000000000001C
:105904000000000000000000000000000000000093
:10591400000000000000000000000000D057000854
:105924000000000000000000000000000000000073
:105934000000000000000000000000000000000063
:105944000000000000000000000000000000000053
:105954000000000000000000000000000000000043
:105964000000000000000000000000000000000033
:105974000000000000000000000000000000000023
:105984000000000000000000000000000000000013
:1059940001000000000000000E33CDAB34126DE6B0
:1059A400ECDE05000B000000000000000000000019
:1059B40000000000000000000000000000000000E3
:1059C40000000000000000000000000000000000D3
:1059D40000000000000000000000000000000000C3
:1059E40000000000000000000000000000000000B3
:045D14001801002052
:0400000508000000EF
:00000001FF
